{
  "contractName": "CompanyRegistry",
  "abi": [
    {
      "anonymous": false,
      "inputs": [
        {
          "indexed": true,
          "internalType": "address",
          "name": "companyAddress",
          "type": "address"
        }
      ],
      "name": "CompanyDeleted",
      "type": "event"
    },
    {
      "anonymous": false,
      "inputs": [
        {
          "indexed": true,
          "internalType": "address",
          "name": "companyAddress",
          "type": "address"
        },
        {
          "indexed": false,
          "internalType": "string",
          "name": "name",
          "type": "string"
        }
      ],
      "name": "CompanyRegistered",
      "type": "event"
    },
    {
      "anonymous": false,
      "inputs": [
        {
          "indexed": true,
          "internalType": "address",
          "name": "companyAddress",
          "type": "address"
        },
        {
          "indexed": false,
          "internalType": "uint256",
          "name": "amount",
          "type": "uint256"
        }
      ],
      "name": "DepositAdded",
      "type": "event"
    },
    {
      "anonymous": false,
      "inputs": [
        {
          "components": [
            {
              "internalType": "address",
              "name": "company",
              "type": "address"
            },
            {
              "internalType": "address",
              "name": "walletAddress",
              "type": "address"
            },
            {
              "internalType": "bytes32",
              "name": "passwordHash",
              "type": "bytes32"
            }
          ],
          "indexed": true,
          "internalType": "struct CompanyRegistry.User",
          "name": "user",
          "type": "tuple"
        }
      ],
      "name": "UserLoggedIn",
      "type": "event"
    },
    {
      "anonymous": false,
      "inputs": [
        {
          "indexed": true,
          "internalType": "address",
          "name": "companyAddress",
          "type": "address"
        },
        {
          "indexed": true,
          "internalType": "address",
          "name": "userAddress",
          "type": "address"
        }
      ],
      "name": "UserRegistered",
      "type": "event"
    },
    {
      "anonymous": false,
      "inputs": [
        {
          "indexed": true,
          "internalType": "address",
          "name": "userAddress",
          "type": "address"
        },
        {
          "indexed": false,
          "internalType": "uint256",
          "name": "amount",
          "type": "uint256"
        }
      ],
      "name": "UserRewarded",
      "type": "event"
    },
    {
      "inputs": [
        {
          "internalType": "address",
          "name": "walletAddress",
          "type": "address"
        }
      ],
      "name": "doesLoginExist",
      "outputs": [
        {
          "internalType": "bool",
          "name": "",
          "type": "bool"
        }
      ],
      "stateMutability": "view",
      "type": "function"
    },
    {
      "inputs": [
        {
          "internalType": "address",
          "name": "walletAddress",
          "type": "address"
        },
        {
          "internalType": "bytes32",
          "name": "passwordHash",
          "type": "bytes32"
        }
      ],
      "name": "loginUser",
      "outputs": [
        {
          "internalType": "bool",
          "name": "",
          "type": "bool"
        }
      ],
      "stateMutability": "nonpayable",
      "type": "function"
    },
    {
      "inputs": [
        {
          "internalType": "address",
          "name": "CompanyAddress",
          "type": "address"
        },
        {
          "internalType": "address",
          "name": "userAddress",
          "type": "address"
        }
      ],
      "name": "gettotalLoggedInDays",
      "outputs": [
        {
          "internalType": "uint256",
          "name": "",
          "type": "uint256"
        }
      ],
      "stateMutability": "view",
      "type": "function"
    },
    {
      "inputs": [
        {
          "internalType": "address",
          "name": "CompanyAddress",
          "type": "address"
        },
        {
          "internalType": "address",
          "name": "userAddress",
          "type": "address"
        }
      ],
      "name": "getIsLoggedInStatus",
      "outputs": [
        {
          "internalType": "bool",
          "name": "",
          "type": "bool"
        }
      ],
      "stateMutability": "view",
      "type": "function"
    },
    {
      "inputs": [
        {
          "internalType": "string",
          "name": "name",
          "type": "string"
        }
      ],
      "name": "registerCompany",
      "outputs": [],
      "stateMutability": "nonpayable",
      "type": "function"
    },
    {
      "inputs": [],
      "name": "addDeposit",
      "outputs": [],
      "stateMutability": "payable",
      "type": "function"
    },
    {
      "inputs": [],
      "name": "deleteCompany",
      "outputs": [],
      "stateMutability": "nonpayable",
      "type": "function"
    },
    {
      "inputs": [
        {
          "internalType": "address",
          "name": "walletAddress",
          "type": "address"
        },
        {
          "internalType": "bytes32",
          "name": "passwordHash",
          "type": "bytes32"
        }
      ],
      "name": "registerUser",
      "outputs": [],
      "stateMutability": "nonpayable",
      "type": "function"
    },
    {
      "inputs": [],
      "name": "getCompanyDeposit",
      "outputs": [
        {
          "internalType": "uint256",
          "name": "",
          "type": "uint256"
        }
      ],
      "stateMutability": "view",
      "type": "function"
    },
    {
      "inputs": [
        {
          "internalType": "address",
          "name": "walletAddress",
          "type": "address"
        }
      ],
      "name": "lastLoginTime",
      "outputs": [
        {
          "internalType": "uint256",
          "name": "",
          "type": "uint256"
        }
      ],
      "stateMutability": "view",
      "type": "function"
    },
    {
      "inputs": [
        {
          "internalType": "address",
          "name": "userAddress",
          "type": "address"
        }
      ],
      "name": "updateLoggedInStatus",
      "outputs": [
        {
          "internalType": "bool",
          "name": "",
          "type": "bool"
        },
        {
          "internalType": "uint256",
          "name": "",
          "type": "uint256"
        }
      ],
      "stateMutability": "nonpayable",
      "type": "function"
    },
    {
      "inputs": [
        {
          "internalType": "address",
          "name": "walletAddress",
          "type": "address"
        }
      ],
      "name": "logoutUser",
      "outputs": [],
      "stateMutability": "nonpayable",
      "type": "function"
    }
  ],
  "bytecode": "0x608060405234801561001057600080fd5b5061317a806100206000396000f3fe6080604052600436106100a65760003560e01c8063a73779a611610064578063a73779a614610198578063b4bcca03146101d6578063c89f883e14610213578063cc6911b614610250578063d7e0b6e31461027b578063f7a04903146102a4576100a6565b8062544194146100ab57806309df5060146100d457806319abc6a8146100fd5780633f3c2ad21461013a5780634a58db19146101775780635045499c14610181575b600080fd5b3480156100b757600080fd5b506100d260048036038101906100cd919061226d565b6102e1565b005b3480156100e057600080fd5b506100fb60048036038101906100f69190612314565b610490565b005b34801561010957600080fd5b50610124600480360381019061011f9190612341565b610536565b604051610131919061239a565b60405180910390f35b34801561014657600080fd5b50610161600480360381019061015c9190612314565b6107b5565b60405161016e91906123d0565b60405180910390f35b61017f610a3c565b005b34801561018d57600080fd5b50610196610bb9565b005b3480156101a457600080fd5b506101bf60048036038101906101ba9190612314565b610d8a565b6040516101cd9291906123eb565b60405180910390f35b3480156101e257600080fd5b506101fd60048036038101906101f89190612314565b6110f1565b60405161020a919061239a565b60405180910390f35b34801561021f57600080fd5b5061023a60048036038101906102359190612341565b611327565b60405161024791906123d0565b60405180910390f35b34801561025c57600080fd5b506102656115b3565b604051610272919061239a565b60405180910390f35b34801561028757600080fd5b506102a2600480360381019061029d919061244a565b61168d565b005b3480156102b057600080fd5b506102cb60048036038101906102c6919061244a565b611a93565b6040516102d891906123d0565b60405180910390f35b6000815111610325576040517f08c379a000000000000000000000000000000000000000000000000000000000815260040161031c906124e7565b60405180910390fd5b6000600160003373ffffffffffffffffffffffffffffffffffffffff1673ffffffffffffffffffffffffffffffffffffffff168152602001908152602001600020600001805461037490612536565b9050146103b6576040517f08c379a00000000000000000000000000000000000000000000000000000000081526004016103ad906125b3565b60405180910390fd5b6040518060600160405280828152602001600081526020016000815250600160003373ffffffffffffffffffffffffffffffffffffffff1673ffffffffffffffffffffffffffffffffffffffff1681526020019081526020016000206000820151816000019081610427919061278a565b5060208201518160010155604082015181600201559050503373ffffffffffffffffffffffffffffffffffffffff167f76686aa361308f4a08557cca1a847299ce61e5602a3495cd359a599a1dca438c8260405161048591906128bf565b60405180910390a250565b610499816107b5565b6104d8576040517f08c379a00000000000000000000000000000000000000000000000000000000081526004016104cf9061292d565b60405180910390fd5b6000600260008373ffffffffffffffffffffffffffffffffffffffff1673ffffffffffffffffffffffffffffffffffffffff16815260200190815260200160002060050160006101000a81548160ff02191690831515021790555050565b600080600160008573ffffffffffffffffffffffffffffffffffffffff1673ffffffffffffffffffffffffffffffffffffffff168152602001908152602001600020600001805461058690612536565b9050116105c8576040517f08c379a00000000000000000000000000000000000000000000000000000000081526004016105bf90612999565b60405180910390fd5b662386f26fc10000600160003373ffffffffffffffffffffffffffffffffffffffff1673ffffffffffffffffffffffffffffffffffffffff1681526020019081526020016000206001015411610653576040517f08c379a000000000000000000000000000000000000000000000000000000000815260040161064a90612a05565b60405180910390fd5b8273ffffffffffffffffffffffffffffffffffffffff166000808473ffffffffffffffffffffffffffffffffffffffff1673ffffffffffffffffffffffffffffffffffffffff16815260200190815260200160002060000160009054906101000a900473ffffffffffffffffffffffffffffffffffffffff1673ffffffffffffffffffffffffffffffffffffffff1614610722576040517f08c379a000000000000000000000000000000000000000000000000000000000815260040161071990612a97565b60405180910390fd5b61072b826107b5565b61076a576040517f08c379a000000000000000000000000000000000000000000000000000000000815260040161076190612b03565b60405180910390fd5b600260008373ffffffffffffffffffffffffffffffffffffffff1673ffffffffffffffffffffffffffffffffffffffff16815260200190815260200160002060040154905092915050565b600080600160003373ffffffffffffffffffffffffffffffffffffffff1673ffffffffffffffffffffffffffffffffffffffff168152602001908152602001600020600001805461080590612536565b905011610847576040517f08c379a000000000000000000000000000000000000000000000000000000000815260040161083e90612999565b60405180910390fd5b662386f26fc10000600160003373ffffffffffffffffffffffffffffffffffffffff1673ffffffffffffffffffffffffffffffffffffffff16815260200190815260200160002060010154116108d2576040517f08c379a00000000000000000000000000000000000000000000000000000000081526004016108c990612a05565b60405180910390fd5b3373ffffffffffffffffffffffffffffffffffffffff166000808473ffffffffffffffffffffffffffffffffffffffff1673ffffffffffffffffffffffffffffffffffffffff16815260200190815260200160002060000160009054906101000a900473ffffffffffffffffffffffffffffffffffffffff1673ffffffffffffffffffffffffffffffffffffffff16146109a1576040517f08c379a000000000000000000000000000000000000000000000000000000000815260040161099890612b95565b60405180910390fd5b8173ffffffffffffffffffffffffffffffffffffffff16600260008473ffffffffffffffffffffffffffffffffffffffff1673ffffffffffffffffffffffffffffffffffffffff16815260200190815260200160002060000160010160009054906101000a900473ffffffffffffffffffffffffffffffffffffffff1673ffffffffffffffffffffffffffffffffffffffff16149050919050565b6000600160003373ffffffffffffffffffffffffffffffffffffffff1673ffffffffffffffffffffffffffffffffffffffff1681526020019081526020016000206000018054610a8b90612536565b905011610acd576040517f08c379a0000000000000000000000000000000000000000000000000000000008152600401610ac490612999565b60405180910390fd5b60003411610b10576040517f08c379a0000000000000000000000000000000000000000000000000000000008152600401610b0790612c01565b60405180910390fd5b34600160003373ffffffffffffffffffffffffffffffffffffffff1673ffffffffffffffffffffffffffffffffffffffff1681526020019081526020016000206001016000828254610b629190612c50565b925050819055503373ffffffffffffffffffffffffffffffffffffffff167fa2a2db73af12c9f5bef6303364d44e78f97e992c353cd8659f3474c471427e9b34604051610baf919061239a565b60405180910390a2565b6000600160003373ffffffffffffffffffffffffffffffffffffffff1673ffffffffffffffffffffffffffffffffffffffff1681526020019081526020016000206000018054610c0890612536565b905011610c4a576040517f08c379a0000000000000000000000000000000000000000000000000000000008152600401610c4190612999565b60405180910390fd5b6000600160003373ffffffffffffffffffffffffffffffffffffffff1673ffffffffffffffffffffffffffffffffffffffff168152602001908152602001600020600101549050600160003373ffffffffffffffffffffffffffffffffffffffff1673ffffffffffffffffffffffffffffffffffffffff16815260200190815260200160002060008082016000610ce191906120b6565b6001820160009055600282016000905550503373ffffffffffffffffffffffffffffffffffffffff167f2564dc12f5c7d4be57c9d0417c313a76d08624ac131a3772f9abeedff476161160405160405180910390a26000811115610d87573373ffffffffffffffffffffffffffffffffffffffff166108fc829081150290604051600060405180830381858888f19350505050158015610d85573d6000803e3d6000fd5b505b50565b600080610d96836107b5565b610dd5576040517f08c379a0000000000000000000000000000000000000000000000000000000008152600401610dcc90612cd0565b60405180910390fd5b60006201518042610de69190612d1f565b9050600062015180600260008773ffffffffffffffffffffffffffffffffffffffff1673ffffffffffffffffffffffffffffffffffffffff16815260200190815260200160002060030154610e3b9190612d1f565b905080821115610f5c5760018183610e539190612d50565b03610eb7576001600260008773ffffffffffffffffffffffffffffffffffffffff1673ffffffffffffffffffffffffffffffffffffffff1681526020019081526020016000206004016000828254610eab9190612c50565b92505081905550610f14565b60028183610ec59190612d50565b10610f13576001600260008773ffffffffffffffffffffffffffffffffffffffff1673ffffffffffffffffffffffffffffffffffffffff168152602001908152602001600020600401819055505b5b42600260008773ffffffffffffffffffffffffffffffffffffffff1673ffffffffffffffffffffffffffffffffffffffff168152602001908152602001600020600301819055505b6001600260008773ffffffffffffffffffffffffffffffffffffffff1673ffffffffffffffffffffffffffffffffffffffff16815260200190815260200160002060050160006101000a81548160ff0219169083151502179055506007600260008773ffffffffffffffffffffffffffffffffffffffff1673ffffffffffffffffffffffffffffffffffffffff16815260200190815260200160002060040154036110535761100a85611ebf565b6000600260008773ffffffffffffffffffffffffffffffffffffffff1673ffffffffffffffffffffffffffffffffffffffff168152602001908152602001600020600401819055505b600260008673ffffffffffffffffffffffffffffffffffffffff1673ffffffffffffffffffffffffffffffffffffffff16815260200190815260200160002060050160009054906101000a900460ff16600260008773ffffffffffffffffffffffffffffffffffffffff1673ffffffffffffffffffffffffffffffffffffffff16815260200190815260200160002060040154935093505050915091565b600080600160003373ffffffffffffffffffffffffffffffffffffffff1673ffffffffffffffffffffffffffffffffffffffff168152602001908152602001600020600001805461114190612536565b905011611183576040517f08c379a000000000000000000000000000000000000000000000000000000000815260040161117a90612999565b60405180910390fd5b662386f26fc10000600160003373ffffffffffffffffffffffffffffffffffffffff1673ffffffffffffffffffffffffffffffffffffffff168152602001908152602001600020600101541161120e576040517f08c379a000000000000000000000000000000000000000000000000000000000815260040161120590612a05565b60405180910390fd5b3373ffffffffffffffffffffffffffffffffffffffff166000808473ffffffffffffffffffffffffffffffffffffffff1673ffffffffffffffffffffffffffffffffffffffff16815260200190815260200160002060000160009054906101000a900473ffffffffffffffffffffffffffffffffffffffff1673ffffffffffffffffffffffffffffffffffffffff16146112dd576040517f08c379a00000000000000000000000000000000000000000000000000000000081526004016112d490612b95565b60405180910390fd5b600260008373ffffffffffffffffffffffffffffffffffffffff1673ffffffffffffffffffffffffffffffffffffffff168152602001908152602001600020600301549050919050565b600080600160008573ffffffffffffffffffffffffffffffffffffffff1673ffffffffffffffffffffffffffffffffffffffff168152602001908152602001600020600001805461137790612536565b9050116113b9576040517f08c379a00000000000000000000000000000000000000000000000000000000081526004016113b090612999565b60405180910390fd5b662386f26fc10000600160008573ffffffffffffffffffffffffffffffffffffffff1673ffffffffffffffffffffffffffffffffffffffff1681526020019081526020016000206001015411611444576040517f08c379a000000000000000000000000000000000000000000000000000000000815260040161143b90612a05565b60405180910390fd5b8273ffffffffffffffffffffffffffffffffffffffff166000808473ffffffffffffffffffffffffffffffffffffffff1673ffffffffffffffffffffffffffffffffffffffff16815260200190815260200160002060000160009054906101000a900473ffffffffffffffffffffffffffffffffffffffff1673ffffffffffffffffffffffffffffffffffffffff1614611513576040517f08c379a000000000000000000000000000000000000000000000000000000000815260040161150a90612a97565b60405180910390fd5b61151c826107b5565b61155b576040517f08c379a000000000000000000000000000000000000000000000000000000000815260040161155290612b03565b60405180910390fd5b600260008373ffffffffffffffffffffffffffffffffffffffff1673ffffffffffffffffffffffffffffffffffffffff16815260200190815260200160002060050160009054906101000a900460ff16905092915050565b600080600160003373ffffffffffffffffffffffffffffffffffffffff1673ffffffffffffffffffffffffffffffffffffffff168152602001908152602001600020600001805461160390612536565b905011611645576040517f08c379a000000000000000000000000000000000000000000000000000000000815260040161163c90612999565b60405180910390fd5b600160003373ffffffffffffffffffffffffffffffffffffffff1673ffffffffffffffffffffffffffffffffffffffff16815260200190815260200160002060010154905090565b6000801b81036116d2576040517f08c379a00000000000000000000000000000000000000000000000000000000081526004016116c990612dd0565b60405180910390fd5b6000600160003373ffffffffffffffffffffffffffffffffffffffff1673ffffffffffffffffffffffffffffffffffffffff168152602001908152602001600020600001805461172190612536565b905011611763576040517f08c379a000000000000000000000000000000000000000000000000000000000815260040161175a90612e62565b60405180910390fd5b662386f26fc10000600160003373ffffffffffffffffffffffffffffffffffffffff1673ffffffffffffffffffffffffffffffffffffffff16815260200190815260200160002060010154116117ee576040517f08c379a00000000000000000000000000000000000000000000000000000000081526004016117e590612a05565b60405180910390fd5b8173ffffffffffffffffffffffffffffffffffffffff166000808473ffffffffffffffffffffffffffffffffffffffff1673ffffffffffffffffffffffffffffffffffffffff16815260200190815260200160002060010160009054906101000a900473ffffffffffffffffffffffffffffffffffffffff1673ffffffffffffffffffffffffffffffffffffffff16036118bd576040517f08c379a00000000000000000000000000000000000000000000000000000000081526004016118b490612ece565b60405180910390fd5b60405180606001604052803373ffffffffffffffffffffffffffffffffffffffff1681526020018373ffffffffffffffffffffffffffffffffffffffff168152602001828152506000808473ffffffffffffffffffffffffffffffffffffffff1673ffffffffffffffffffffffffffffffffffffffff16815260200190815260200160002060008201518160000160006101000a81548173ffffffffffffffffffffffffffffffffffffffff021916908373ffffffffffffffffffffffffffffffffffffffff16021790555060208201518160010160006101000a81548173ffffffffffffffffffffffffffffffffffffffff021916908373ffffffffffffffffffffffffffffffffffffffff16021790555060408201518160020155905050600160003373ffffffffffffffffffffffffffffffffffffffff1673ffffffffffffffffffffffffffffffffffffffff1681526020019081526020016000206002016000815480929190611a3090612eee565b91905055508173ffffffffffffffffffffffffffffffffffffffff163373ffffffffffffffffffffffffffffffffffffffff167f2138b9314634f9fdd5e49bee3eaf17ca557b6637524d0db759711c3bfcd3d85060405160405180910390a35050565b6000611a9e836107b5565b15611ade576040517f08c379a0000000000000000000000000000000000000000000000000000000008152600401611ad590612f82565b60405180910390fd5b6000801b8203611b23576040517f08c379a0000000000000000000000000000000000000000000000000000000008152600401611b1a90612dd0565b60405180910390fd5b816000808573ffffffffffffffffffffffffffffffffffffffff1673ffffffffffffffffffffffffffffffffffffffff1681526020019081526020016000206002015414611ba6576040517f08c379a0000000000000000000000000000000000000000000000000000000008152600401611b9d90612fee565b60405180910390fd5b60008060008573ffffffffffffffffffffffffffffffffffffffff1673ffffffffffffffffffffffffffffffffffffffff1681526020019081526020016000206040518060600160405290816000820160009054906101000a900473ffffffffffffffffffffffffffffffffffffffff1673ffffffffffffffffffffffffffffffffffffffff1673ffffffffffffffffffffffffffffffffffffffff1681526020016001820160009054906101000a900473ffffffffffffffffffffffffffffffffffffffff1673ffffffffffffffffffffffffffffffffffffffff1673ffffffffffffffffffffffffffffffffffffffff168152602001600282015481525050905060405180608001604052808281526020014281526020016001815260200160011515815250600260008673ffffffffffffffffffffffffffffffffffffffff1673ffffffffffffffffffffffffffffffffffffffff16815260200190815260200160002060008201518160000160008201518160000160006101000a81548173ffffffffffffffffffffffffffffffffffffffff021916908373ffffffffffffffffffffffffffffffffffffffff16021790555060208201518160010160006101000a81548173ffffffffffffffffffffffffffffffffffffffff021916908373ffffffffffffffffffffffffffffffffffffffff160217905550604082015181600201555050602082015181600301556040820151816004015560608201518160050160006101000a81548160ff0219169083151502179055509050506000808573ffffffffffffffffffffffffffffffffffffffff1673ffffffffffffffffffffffffffffffffffffffff168152602001908152602001600020604051611e329190613129565b60405180910390207fc3e258c2735e50ca59d445076e61f3e568466d65196515d5fa3cef1518fff1da60405160405180910390a2600260008573ffffffffffffffffffffffffffffffffffffffff1673ffffffffffffffffffffffffffffffffffffffff16815260200190815260200160002060050160009054906101000a900460ff1691505092915050565b6000600160003373ffffffffffffffffffffffffffffffffffffffff1673ffffffffffffffffffffffffffffffffffffffff16815260200190815260200160002060020154600160003373ffffffffffffffffffffffffffffffffffffffff1673ffffffffffffffffffffffffffffffffffffffff16815260200190815260200160002060010154611f519190612d1f565b9050600260008373ffffffffffffffffffffffffffffffffffffffff1673ffffffffffffffffffffffffffffffffffffffff16815260200190815260200160002060000160010160009054906101000a900473ffffffffffffffffffffffffffffffffffffffff1673ffffffffffffffffffffffffffffffffffffffff166108fc829081150290604051600060405180830381858888f19350505050158015611ffe573d6000803e3d6000fd5b50600260008373ffffffffffffffffffffffffffffffffffffffff1673ffffffffffffffffffffffffffffffffffffffff16815260200190815260200160002060000160010160009054906101000a900473ffffffffffffffffffffffffffffffffffffffff1673ffffffffffffffffffffffffffffffffffffffff167fe366ef68d2c0620e9e4c5074fd7ad0ce6739b65287f9c2d09b7d002da556879b826040516120aa919061239a565b60405180910390a25050565b5080546120c290612536565b6000825580601f106120d457506120f3565b601f0160209004906000526020600020908101906120f291906120f6565b5b50565b5b8082111561210f5760008160009055506001016120f7565b5090565b6000604051905090565b600080fd5b600080fd5b600080fd5b600080fd5b6000601f19601f8301169050919050565b7f4e487b7100000000000000000000000000000000000000000000000000000000600052604160045260246000fd5b61217a82612131565b810181811067ffffffffffffffff8211171561219957612198612142565b5b80604052505050565b60006121ac612113565b90506121b88282612171565b919050565b600067ffffffffffffffff8211156121d8576121d7612142565b5b6121e182612131565b9050602081019050919050565b82818337600083830152505050565b600061221061220b846121bd565b6121a2565b90508281526020810184848401111561222c5761222b61212c565b5b6122378482856121ee565b509392505050565b600082601f83011261225457612253612127565b5b81356122648482602086016121fd565b91505092915050565b6000602082840312156122835761228261211d565b5b600082013567ffffffffffffffff8111156122a1576122a0612122565b5b6122ad8482850161223f565b91505092915050565b600073ffffffffffffffffffffffffffffffffffffffff82169050919050565b60006122e1826122b6565b9050919050565b6122f1816122d6565b81146122fc57600080fd5b50565b60008135905061230e816122e8565b92915050565b60006020828403121561232a5761232961211d565b5b6000612338848285016122ff565b91505092915050565b600080604083850312156123585761235761211d565b5b6000612366858286016122ff565b9250506020612377858286016122ff565b9150509250929050565b6000819050919050565b61239481612381565b82525050565b60006020820190506123af600083018461238b565b92915050565b60008115159050919050565b6123ca816123b5565b82525050565b60006020820190506123e560008301846123c1565b92915050565b600060408201905061240060008301856123c1565b61240d602083018461238b565b9392505050565b6000819050919050565b61242781612414565b811461243257600080fd5b50565b6000813590506124448161241e565b92915050565b600080604083850312156124615761246061211d565b5b600061246f858286016122ff565b925050602061248085828601612435565b9150509250929050565b600082825260208201905092915050565b7f436f6d70616e79206e616d652063616e6e6f7420626520656d70747900000000600082015250565b60006124d1601c8361248a565b91506124dc8261249b565b602082019050919050565b60006020820190508181036000830152612500816124c4565b9050919050565b7f4e487b7100000000000000000000000000000000000000000000000000000000600052602260045260246000fd5b6000600282049050600182168061254e57607f821691505b60208210810361256157612560612507565b5b50919050565b7f436f6d70616e7920616c72656164792072656769737465726564000000000000600082015250565b600061259d601a8361248a565b91506125a882612567565b602082019050919050565b600060208201905081810360008301526125cc81612590565b9050919050565b600081519050919050565b60008190508160005260206000209050919050565b60006020601f8301049050919050565b600082821b905092915050565b6000600883026126407fffffffffffffffffffffffffffffffffffffffffffffffffffffffffffffffff82612603565b61264a8683612603565b95508019841693508086168417925050509392505050565b6000819050919050565b600061268761268261267d84612381565b612662565b612381565b9050919050565b6000819050919050565b6126a18361266c565b6126b56126ad8261268e565b848454612610565b825550505050565b600090565b6126ca6126bd565b6126d5818484612698565b505050565b5b818110156126f9576126ee6000826126c2565b6001810190506126db565b5050565b601f82111561273e5761270f816125de565b612718846125f3565b81016020851015612727578190505b61273b612733856125f3565b8301826126da565b50505b505050565b600082821c905092915050565b600061276160001984600802612743565b1980831691505092915050565b600061277a8383612750565b9150826002028217905092915050565b612793826125d3565b67ffffffffffffffff8111156127ac576127ab612142565b5b6127b68254612536565b6127c18282856126fd565b600060209050601f8311600181146127f457600084156127e2578287015190505b6127ec858261276e565b865550612854565b601f198416612802866125de565b60005b8281101561282a57848901518255600182019150602085019450602081019050612805565b868310156128475784890151612843601f891682612750565b8355505b6001600288020188555050505b505050505050565b60005b8381101561287a57808201518184015260208101905061285f565b60008484015250505050565b6000612891826125d3565b61289b818561248a565b93506128ab81856020860161285c565b6128b481612131565b840191505092915050565b600060208201905081810360008301526128d98184612886565b905092915050565b7f55736572206973206e6f742063757272656e746c79206c6f6767656420696e00600082015250565b6000612917601f8361248a565b9150612922826128e1565b602082019050919050565b600060208201905081810360008301526129468161290a565b9050919050565b7f436f6d70616e79206e6f74207265676973746572656400000000000000000000600082015250565b600061298360168361248a565b915061298e8261294d565b602082019050919050565b600060208201905081810360008301526129b281612976565b9050919050565b7f4465706f73697420736f6d652045544820666972737400000000000000000000600082015250565b60006129ef60168361248a565b91506129fa826129b9565b602082019050919050565b60006020820190508181036000830152612a1e816129e2565b9050919050565b7f5573657220646f65736e27742065786973747320696e207468697320636f6d7060008201527f616e790000000000000000000000000000000000000000000000000000000000602082015250565b6000612a8160238361248a565b9150612a8c82612a25565b604082019050919050565b60006020820190508181036000830152612ab081612a74565b9050919050565b7f4c6f67696e2064657461696c20646f6573206e6f742065786973747300000000600082015250565b6000612aed601c8361248a565b9150612af882612ab7565b602082019050919050565b60006020820190508181036000830152612b1c81612ae0565b9050919050565b7f5573657220646f65736e27742062656c6f6e6720746f20796f757220636f6d7060008201527f616e790000000000000000000000000000000000000000000000000000000000602082015250565b6000612b7f60238361248a565b9150612b8a82612b23565b604082019050919050565b60006020820190508181036000830152612bae81612b72565b9050919050565b7f56616c75652063616e6e6f74206265206c657373207468616e20300000000000600082015250565b6000612beb601b8361248a565b9150612bf682612bb5565b602082019050919050565b60006020820190508181036000830152612c1a81612bde565b9050919050565b7f4e487b7100000000000000000000000000000000000000000000000000000000600052601160045260246000fd5b6000612c5b82612381565b9150612c6683612381565b9250828201905080821115612c7e57612c7d612c21565b5b92915050565b7f4c6f67696e2044657461696c7320646f65736e27742065786973747300000000600082015250565b6000612cba601c8361248a565b9150612cc582612c84565b602082019050919050565b60006020820190508181036000830152612ce981612cad565b9050919050565b7f4e487b7100000000000000000000000000000000000000000000000000000000600052601260045260246000fd5b6000612d2a82612381565b9150612d3583612381565b925082612d4557612d44612cf0565b5b828204905092915050565b6000612d5b82612381565b9150612d6683612381565b9250828203905081811115612d7e57612d7d612c21565b5b92915050565b7f496e76616c69642070617373776f726420686173680000000000000000000000600082015250565b6000612dba60158361248a565b9150612dc582612d84565b602082019050919050565b60006020820190508181036000830152612de981612dad565b9050919050565b7f4f6e6c7920436f6d70616e6965732063616e207265676973746572207468656960008201527f7220757365727300000000000000000000000000000000000000000000000000602082015250565b6000612e4c60278361248a565b9150612e5782612df0565b604082019050919050565b60006020820190508181036000830152612e7b81612e3f565b9050919050565b7f5573657220616c72656164792072656769737465726564000000000000000000600082015250565b6000612eb860178361248a565b9150612ec382612e82565b602082019050919050565b60006020820190508181036000830152612ee781612eab565b9050919050565b6000612ef982612381565b91507fffffffffffffffffffffffffffffffffffffffffffffffffffffffffffffffff8203612f2b57612f2a612c21565b5b600182019050919050565b7f4c6f67696e2044657461696c7320616c72656164792065786973747300000000600082015250565b6000612f6c601c8361248a565b9150612f7782612f36565b602082019050919050565b60006020820190508181036000830152612f9b81612f5f565b9050919050565b7f496e636f72726563742070617373776f72640000000000000000000000000000600082015250565b6000612fd860128361248a565b9150612fe382612fa2565b602082019050919050565b6000602082019050818103600083015261300781612fcb565b9050919050565b60008160001c9050919050565b600073ffffffffffffffffffffffffffffffffffffffff82169050919050565b600061304e6130498361300e565b61301b565b9050919050565b61305e816122d6565b82525050565b60006130708383613055565b60208301905092915050565b6000819050919050565b60006130996130948361300e565b61307c565b9050919050565b6130a981612414565b82525050565b60006130bb83836130a0565b60208301905092915050565b6000820160008083015490506130dc8161303b565b6130e68582613064565b945050600183015490506130f98161303b565b6131038582613064565b9450506002830154905061311681613086565b61312085826130af565b94505050505050565b600061313582846130c7565b6060820191508190509291505056fea2646970667358221220cd99b86de615af6c827df6d59d03d7b265b951dfb3ffaa130dc02347625d37f764736f6c63430008130033",
  "immutableReferences": {},
  "source": "    // SPDX-License-Identifier: MIT\n    pragma solidity ^0.8.0;\n\n    contract CompanyRegistry {\n        struct User {\n            address company;\n            address walletAddress;\n            bytes32 passwordHash;\n        }\n        struct Company {\n            string name;\n            uint256 deposit;\n            uint256 totalUsers;\n        }\n\n        struct Login {\n            User user;\n            uint256 lastLoginTime;\n            uint256 totalLoggedInDays;\n            bool isLoggedIn;\n        }\n        mapping(address => User) private userMap;\n        mapping(address => Company) private companies;\n        mapping(address => Login) private LoginDetails;\n\n        event CompanyRegistered(address indexed companyAddress, string name);\n        event DepositAdded(address indexed companyAddress, uint256 amount);\n        event CompanyDeleted(address indexed companyAddress);\n        event UserLoggedIn(User indexed user);\n        event UserRewarded(address indexed userAddress, uint256 amount);\n        event UserRegistered(\n            address indexed companyAddress,\n            address indexed userAddress\n        );\n\n        function doesLoginExist(address walletAddress) public view returns (bool) {\n            require(\n                bytes(companies[msg.sender].name).length > 0,\n                \"Company not registered\"\n            );\n            require(\n                companies[msg.sender].deposit > 10000000000000000 wei,\n                \"Deposit some ETH first\"\n            );\n            require(\n                userMap[walletAddress].company == msg.sender,\n                \"User doesn't belong to your company\"\n            );\n\n            return LoginDetails[walletAddress].user.walletAddress == walletAddress;\n        }\n\n        function loginUser(address walletAddress, bytes32 passwordHash) public returns(bool) {\n            require(!doesLoginExist(walletAddress), \"Login Details already exists\");\n            require(passwordHash != 0, \"Invalid password hash\");\n            require(\n                userMap[walletAddress].passwordHash == passwordHash,\n                \"Incorrect password\"\n            );\n            User memory userInfo = userMap[walletAddress];\n            LoginDetails[walletAddress] = Login({\n                user: userInfo,\n                lastLoginTime: block.timestamp,\n                totalLoggedInDays: 1,\n                isLoggedIn: true\n            });\n            emit UserLoggedIn(userMap[walletAddress]);\n            return  LoginDetails[walletAddress].isLoggedIn;\n\n        }\n\n        // function checkForRewards() public {}\n        function gettotalLoggedInDays(address CompanyAddress, address userAddress)\n            public\n            view\n            returns (uint256)\n        {\n            require(\n                bytes(companies[CompanyAddress].name).length > 0,\n                \"Company not registered\"\n            );\n            require(\n                companies[msg.sender].deposit > 10000000000000000 wei,\n                \"Deposit some ETH first\"\n            );\n            require(\n                userMap[userAddress].company == CompanyAddress,\n                \"User doesn't exists in this company\"\n            );\n            require(doesLoginExist(userAddress), \"Login detail does not exists\");\n            return LoginDetails[userAddress].totalLoggedInDays;\n        }\n\n        function getIsLoggedInStatus(address CompanyAddress, address userAddress)\n            public\n            view\n            returns (bool)\n        {\n            require(\n                bytes(companies[CompanyAddress].name).length > 0,\n                \"Company not registered\"\n            );\n            require(\n                companies[CompanyAddress].deposit > 10000000000000000 wei,\n                \"Deposit some ETH first\"\n            );\n\n            require(\n                userMap[userAddress].company == CompanyAddress,\n                \"User doesn't exists in this company\"\n            );\n            require(doesLoginExist(userAddress), \"Login detail does not exists\");\n            return LoginDetails[userAddress].isLoggedIn;\n        }\n\n        function registerCompany(string memory name) public {\n            require(bytes(name).length > 0, \"Company name cannot be empty\");\n            require(\n                bytes(companies[msg.sender].name).length == 0,\n                \"Company already registered\"\n            );\n            companies[msg.sender] = Company(name, 0, 0);\n            emit CompanyRegistered(msg.sender, name);\n        }\n\n        function addDeposit() public payable {\n            require(\n                bytes(companies[msg.sender].name).length > 0,\n                \"Company not registered\"\n            );\n            require(msg.value > 0, \"Value cannot be less than 0\");\n            companies[msg.sender].deposit += msg.value;\n            emit DepositAdded(msg.sender, msg.value);\n        }\n\n        function deleteCompany() public {\n            require(\n                bytes(companies[msg.sender].name).length > 0,\n                \"Company not registered\"\n            );\n            uint256 balance = companies[msg.sender].deposit;\n            delete companies[msg.sender];\n            emit CompanyDeleted(msg.sender);\n            if (balance > 0) {\n                payable(msg.sender).transfer(balance);\n            }\n        }\n\n        function registerUser(address walletAddress, bytes32 passwordHash) public {\n            require(passwordHash != 0, \"Invalid password hash\");\n            require(\n                bytes(companies[msg.sender].name).length > 0,\n                \"Only Companies can register their users\"\n            );\n            require(\n                companies[msg.sender].deposit > 10000000000000000 wei,\n                \"Deposit some ETH first\"\n            );\n            require(\n                userMap[walletAddress].walletAddress != walletAddress,\n                \"User already registered\"\n            );\n\n            userMap[walletAddress] = User(msg.sender, walletAddress, passwordHash);\n            companies[msg.sender].totalUsers++;\n            emit UserRegistered(msg.sender, walletAddress);\n        }\n\n        function getCompanyDeposit() public view returns (uint256) {\n            require(\n                bytes(companies[msg.sender].name).length > 0,\n                \"Company not registered\"\n            );\n            return companies[msg.sender].deposit;\n        }\n\n        function lastLoginTime(address walletAddress)\n            public\n            view\n            returns (uint256)\n        {\n            require(\n                bytes(companies[msg.sender].name).length > 0,\n                \"Company not registered\"\n            );\n            require(\n                companies[msg.sender].deposit > 10000000000000000 wei,\n                \"Deposit some ETH first\"\n            );\n            require(\n                userMap[walletAddress].company == msg.sender,\n                \"User doesn't belong to your company\"\n            );\n\n            return (LoginDetails[walletAddress].lastLoginTime);\n        }\n\n        function giveReward(address userAddress) private {\n            uint256 rewardAmount = companies[msg.sender].deposit /\n                companies[msg.sender].totalUsers;\n            payable(LoginDetails[userAddress].user.walletAddress).transfer(\n                rewardAmount\n            );\n            emit UserRewarded(\n                LoginDetails[userAddress].user.walletAddress,\n                rewardAmount\n            );\n        }\n\n        //Update login status\n        function updateLoggedInStatus(address userAddress)\n            public\n            returns (bool, uint256)\n        {\n            require(doesLoginExist(userAddress), \"Login Details doesn't exists\");\n            uint256 currentDay = block.timestamp / 1 days;\n            uint256 lastLoginDay = LoginDetails[userAddress].lastLoginTime / 1 days;\n            if (currentDay > lastLoginDay) {\n                if (currentDay - lastLoginDay == 1) {\n                    LoginDetails[userAddress].totalLoggedInDays += 1;\n                } else if (currentDay - lastLoginDay >= 2) {\n                    LoginDetails[userAddress].totalLoggedInDays = 1;\n                }\n                LoginDetails[userAddress].lastLoginTime = block.timestamp;\n            }\n            LoginDetails[userAddress].isLoggedIn = true;\n            if (LoginDetails[userAddress].totalLoggedInDays == 7) {\n                // reward user with ETH\n                giveReward(userAddress);\n                // reset totalLoggedInDays\n                LoginDetails[userAddress].totalLoggedInDays = 0;\n            }\n            return (\n                LoginDetails[userAddress].isLoggedIn,\n                LoginDetails[userAddress].totalLoggedInDays\n            );\n        }\n\n        function logoutUser(address walletAddress) public {\n            require(\n                doesLoginExist(walletAddress),\n                \"User is not currently logged in\"\n            );\n            LoginDetails[walletAddress].isLoggedIn = false;\n        }\n    }\n",
  "sourcePath": "D:\\Final Year Project\\Blockchain-based-incentivized-auth-system\\blockchain\\contracts\\CompanyRegistry.sol",
  "compiler": {
    "name": "solc",
    "version": "0.8.19+commit.7dd6d404.Emscripten.clang"
  },
  "schemaVersion": "3.4.13",
  "updatedAt": "2023-05-21T01:15:21.841Z",
  "devdoc": {
    "kind": "dev",
    "methods": {},
    "version": 1
  },
  "userdoc": {
    "kind": "user",
    "methods": {},
    "version": 1
  }
}