{
  "contractName": "AuthenticationServiceProvider",
  "abi": [
    {
      "inputs": [],
      "stateMutability": "nonpayable",
      "type": "constructor"
    },
    {
      "anonymous": false,
      "inputs": [
        {
          "indexed": true,
          "internalType": "address",
          "name": "companyAddress",
          "type": "address"
        }
      ],
      "name": "CompanyDeleted",
      "type": "event"
    },
    {
      "anonymous": false,
      "inputs": [
        {
          "indexed": true,
          "internalType": "address",
          "name": "companyAddress",
          "type": "address"
        },
        {
          "indexed": false,
          "internalType": "string",
          "name": "name",
          "type": "string"
        }
      ],
      "name": "CompanyRegistered",
      "type": "event"
    },
    {
      "anonymous": false,
      "inputs": [
        {
          "indexed": true,
          "internalType": "address",
          "name": "companyAddress",
          "type": "address"
        },
        {
          "indexed": false,
          "internalType": "uint256",
          "name": "amount",
          "type": "uint256"
        }
      ],
      "name": "DepositAdded",
      "type": "event"
    },
    {
      "anonymous": false,
      "inputs": [
        {
          "components": [
            {
              "internalType": "address",
              "name": "company",
              "type": "address"
            },
            {
              "internalType": "address",
              "name": "walletAddress",
              "type": "address"
            },
            {
              "internalType": "bytes32",
              "name": "passwordHash",
              "type": "bytes32"
            }
          ],
          "indexed": true,
          "internalType": "struct CompanyRegistry.User",
          "name": "user",
          "type": "tuple"
        }
      ],
      "name": "UserLoggedIn",
      "type": "event"
    },
    {
      "anonymous": false,
      "inputs": [
        {
          "indexed": true,
          "internalType": "address",
          "name": "companyAddress",
          "type": "address"
        },
        {
          "indexed": true,
          "internalType": "address",
          "name": "userAddress",
          "type": "address"
        }
      ],
      "name": "UserRegistered",
      "type": "event"
    },
    {
      "anonymous": false,
      "inputs": [
        {
          "indexed": true,
          "internalType": "address",
          "name": "userAddress",
          "type": "address"
        },
        {
          "indexed": false,
          "internalType": "uint256",
          "name": "amount",
          "type": "uint256"
        }
      ],
      "name": "UserRewarded",
      "type": "event"
    },
    {
      "inputs": [],
      "name": "addDeposit",
      "outputs": [],
      "stateMutability": "payable",
      "type": "function",
      "payable": true
    },
    {
      "inputs": [],
      "name": "deleteCompany",
      "outputs": [],
      "stateMutability": "nonpayable",
      "type": "function"
    },
    {
      "inputs": [
        {
          "internalType": "address",
          "name": "walletAddress",
          "type": "address"
        }
      ],
      "name": "doesLoginExist",
      "outputs": [
        {
          "internalType": "bool",
          "name": "",
          "type": "bool"
        }
      ],
      "stateMutability": "view",
      "type": "function",
      "constant": true
    },
    {
      "inputs": [],
      "name": "getCompanyDeposit",
      "outputs": [
        {
          "internalType": "uint256",
          "name": "",
          "type": "uint256"
        }
      ],
      "stateMutability": "view",
      "type": "function",
      "constant": true
    },
    {
      "inputs": [
        {
          "internalType": "address",
          "name": "CompanyAddress",
          "type": "address"
        },
        {
          "internalType": "address",
          "name": "userAddress",
          "type": "address"
        }
      ],
      "name": "getIsLoggedInStatus",
      "outputs": [
        {
          "internalType": "bool",
          "name": "",
          "type": "bool"
        }
      ],
      "stateMutability": "view",
      "type": "function",
      "constant": true
    },
    {
      "inputs": [
        {
          "internalType": "address",
          "name": "CompanyAddress",
          "type": "address"
        },
        {
          "internalType": "address",
          "name": "userAddress",
          "type": "address"
        }
      ],
      "name": "gettotalLoggedInDays",
      "outputs": [
        {
          "internalType": "uint256",
          "name": "",
          "type": "uint256"
        }
      ],
      "stateMutability": "view",
      "type": "function",
      "constant": true
    },
    {
      "inputs": [
        {
          "internalType": "address",
          "name": "walletAddress",
          "type": "address"
        }
      ],
      "name": "lastLoginTime",
      "outputs": [
        {
          "internalType": "uint256",
          "name": "",
          "type": "uint256"
        }
      ],
      "stateMutability": "view",
      "type": "function",
      "constant": true
    },
    {
      "inputs": [
        {
          "internalType": "address",
          "name": "walletAddress",
          "type": "address"
        },
        {
          "internalType": "bytes32",
          "name": "passwordHash",
          "type": "bytes32"
        }
      ],
      "name": "loginUser",
      "outputs": [],
      "stateMutability": "nonpayable",
      "type": "function"
    },
    {
      "inputs": [
        {
          "internalType": "address",
          "name": "walletAddress",
          "type": "address"
        }
      ],
      "name": "logoutUser",
      "outputs": [],
      "stateMutability": "nonpayable",
      "type": "function"
    },
    {
      "inputs": [],
      "name": "owner",
      "outputs": [
        {
          "internalType": "address",
          "name": "",
          "type": "address"
        }
      ],
      "stateMutability": "view",
      "type": "function",
      "constant": true
    },
    {
      "inputs": [
        {
          "internalType": "string",
          "name": "name",
          "type": "string"
        }
      ],
      "name": "registerCompany",
      "outputs": [],
      "stateMutability": "nonpayable",
      "type": "function"
    },
    {
      "inputs": [
        {
          "internalType": "address",
          "name": "walletAddress",
          "type": "address"
        },
        {
          "internalType": "bytes32",
          "name": "passwordHash",
          "type": "bytes32"
        }
      ],
      "name": "registerUser",
      "outputs": [],
      "stateMutability": "nonpayable",
      "type": "function"
    }
  ],
  "bytecode": "0x608060405234801561001057600080fd5b5033600360006101000a81548173ffffffffffffffffffffffffffffffffffffffff021916908373ffffffffffffffffffffffffffffffffffffffff1602179055506130b4806100616000396000f3fe6080604052600436106100a65760003560e01c80638da5cb5b116100645780638da5cb5b14610198578063b4bcca03146101c3578063c89f883e14610200578063cc6911b61461023d578063d7e0b6e314610268578063f7a0490314610291576100a6565b8062544194146100ab57806309df5060146100d457806319abc6a8146100fd5780633f3c2ad21461013a5780634a58db19146101775780635045499c14610181575b600080fd5b3480156100b757600080fd5b506100d260048036038101906100cd919061227e565b6102ba565b005b3480156100e057600080fd5b506100fb60048036038101906100f69190612325565b610469565b005b34801561010957600080fd5b50610124600480360381019061011f9190612352565b61050f565b60405161013191906123ab565b60405180910390f35b34801561014657600080fd5b50610161600480360381019061015c9190612325565b61078e565b60405161016e91906123e1565b60405180910390f35b61017f610a15565b005b34801561018d57600080fd5b50610196610b92565b005b3480156101a457600080fd5b506101ad610d63565b6040516101ba919061240b565b60405180910390f35b3480156101cf57600080fd5b506101ea60048036038101906101e59190612325565b610d89565b6040516101f791906123ab565b60405180910390f35b34801561020c57600080fd5b5061022760048036038101906102229190612352565b610fbf565b60405161023491906123e1565b60405180910390f35b34801561024957600080fd5b5061025261124b565b60405161025f91906123ab565b60405180910390f35b34801561027457600080fd5b5061028f600480360381019061028a919061245c565b611325565b005b34801561029d57600080fd5b506102b860048036038101906102b3919061245c565b61172b565b005b60008151116102fe576040517f08c379a00000000000000000000000000000000000000000000000000000000081526004016102f5906124f9565b60405180910390fd5b6000600160003373ffffffffffffffffffffffffffffffffffffffff1673ffffffffffffffffffffffffffffffffffffffff168152602001908152602001600020600001805461034d90612548565b90501461038f576040517f08c379a0000000000000000000000000000000000000000000000000000000008152600401610386906125c5565b60405180910390fd5b6040518060600160405280828152602001600081526020016000815250600160003373ffffffffffffffffffffffffffffffffffffffff1673ffffffffffffffffffffffffffffffffffffffff1681526020019081526020016000206000820151816000019081610400919061279c565b5060208201518160010155604082015181600201559050503373ffffffffffffffffffffffffffffffffffffffff167f76686aa361308f4a08557cca1a847299ce61e5602a3495cd359a599a1dca438c8260405161045e91906128d1565b60405180910390a250565b6104728161078e565b6104b1576040517f08c379a00000000000000000000000000000000000000000000000000000000081526004016104a89061293f565b60405180910390fd5b6000600260008373ffffffffffffffffffffffffffffffffffffffff1673ffffffffffffffffffffffffffffffffffffffff16815260200190815260200160002060050160006101000a81548160ff02191690831515021790555050565b600080600160008573ffffffffffffffffffffffffffffffffffffffff1673ffffffffffffffffffffffffffffffffffffffff168152602001908152602001600020600001805461055f90612548565b9050116105a1576040517f08c379a0000000000000000000000000000000000000000000000000000000008152600401610598906129ab565b60405180910390fd5b662386f26fc10000600160003373ffffffffffffffffffffffffffffffffffffffff1673ffffffffffffffffffffffffffffffffffffffff168152602001908152602001600020600101541161062c576040517f08c379a000000000000000000000000000000000000000000000000000000000815260040161062390612a17565b60405180910390fd5b8273ffffffffffffffffffffffffffffffffffffffff166000808473ffffffffffffffffffffffffffffffffffffffff1673ffffffffffffffffffffffffffffffffffffffff16815260200190815260200160002060000160009054906101000a900473ffffffffffffffffffffffffffffffffffffffff1673ffffffffffffffffffffffffffffffffffffffff16146106fb576040517f08c379a00000000000000000000000000000000000000000000000000000000081526004016106f290612aa9565b60405180910390fd5b6107048261078e565b610743576040517f08c379a000000000000000000000000000000000000000000000000000000000815260040161073a90612b15565b60405180910390fd5b600260008373ffffffffffffffffffffffffffffffffffffffff1673ffffffffffffffffffffffffffffffffffffffff16815260200190815260200160002060040154905092915050565b600080600160003373ffffffffffffffffffffffffffffffffffffffff1673ffffffffffffffffffffffffffffffffffffffff16815260200190815260200160002060000180546107de90612548565b905011610820576040517f08c379a0000000000000000000000000000000000000000000000000000000008152600401610817906129ab565b60405180910390fd5b662386f26fc10000600160003373ffffffffffffffffffffffffffffffffffffffff1673ffffffffffffffffffffffffffffffffffffffff16815260200190815260200160002060010154116108ab576040517f08c379a00000000000000000000000000000000000000000000000000000000081526004016108a290612a17565b60405180910390fd5b3373ffffffffffffffffffffffffffffffffffffffff166000808473ffffffffffffffffffffffffffffffffffffffff1673ffffffffffffffffffffffffffffffffffffffff16815260200190815260200160002060000160009054906101000a900473ffffffffffffffffffffffffffffffffffffffff1673ffffffffffffffffffffffffffffffffffffffff161461097a576040517f08c379a000000000000000000000000000000000000000000000000000000000815260040161097190612ba7565b60405180910390fd5b8173ffffffffffffffffffffffffffffffffffffffff16600260008473ffffffffffffffffffffffffffffffffffffffff1673ffffffffffffffffffffffffffffffffffffffff16815260200190815260200160002060000160010160009054906101000a900473ffffffffffffffffffffffffffffffffffffffff1673ffffffffffffffffffffffffffffffffffffffff16149050919050565b6000600160003373ffffffffffffffffffffffffffffffffffffffff1673ffffffffffffffffffffffffffffffffffffffff1681526020019081526020016000206000018054610a6490612548565b905011610aa6576040517f08c379a0000000000000000000000000000000000000000000000000000000008152600401610a9d906129ab565b60405180910390fd5b60003411610ae9576040517f08c379a0000000000000000000000000000000000000000000000000000000008152600401610ae090612c13565b60405180910390fd5b34600160003373ffffffffffffffffffffffffffffffffffffffff1673ffffffffffffffffffffffffffffffffffffffff1681526020019081526020016000206001016000828254610b3b9190612c62565b925050819055503373ffffffffffffffffffffffffffffffffffffffff167fa2a2db73af12c9f5bef6303364d44e78f97e992c353cd8659f3474c471427e9b34604051610b8891906123ab565b60405180910390a2565b6000600160003373ffffffffffffffffffffffffffffffffffffffff1673ffffffffffffffffffffffffffffffffffffffff1681526020019081526020016000206000018054610be190612548565b905011610c23576040517f08c379a0000000000000000000000000000000000000000000000000000000008152600401610c1a906129ab565b60405180910390fd5b6000600160003373ffffffffffffffffffffffffffffffffffffffff1673ffffffffffffffffffffffffffffffffffffffff168152602001908152602001600020600101549050600160003373ffffffffffffffffffffffffffffffffffffffff1673ffffffffffffffffffffffffffffffffffffffff16815260200190815260200160002060008082016000610cba91906120c7565b6001820160009055600282016000905550503373ffffffffffffffffffffffffffffffffffffffff167f2564dc12f5c7d4be57c9d0417c313a76d08624ac131a3772f9abeedff476161160405160405180910390a26000811115610d60573373ffffffffffffffffffffffffffffffffffffffff166108fc829081150290604051600060405180830381858888f19350505050158015610d5e573d6000803e3d6000fd5b505b50565b600360009054906101000a900473ffffffffffffffffffffffffffffffffffffffff1681565b600080600160003373ffffffffffffffffffffffffffffffffffffffff1673ffffffffffffffffffffffffffffffffffffffff1681526020019081526020016000206000018054610dd990612548565b905011610e1b576040517f08c379a0000000000000000000000000000000000000000000000000000000008152600401610e12906129ab565b60405180910390fd5b662386f26fc10000600160003373ffffffffffffffffffffffffffffffffffffffff1673ffffffffffffffffffffffffffffffffffffffff1681526020019081526020016000206001015411610ea6576040517f08c379a0000000000000000000000000000000000000000000000000000000008152600401610e9d90612a17565b60405180910390fd5b3373ffffffffffffffffffffffffffffffffffffffff166000808473ffffffffffffffffffffffffffffffffffffffff1673ffffffffffffffffffffffffffffffffffffffff16815260200190815260200160002060000160009054906101000a900473ffffffffffffffffffffffffffffffffffffffff1673ffffffffffffffffffffffffffffffffffffffff1614610f75576040517f08c379a0000000000000000000000000000000000000000000000000000000008152600401610f6c90612ba7565b60405180910390fd5b600260008373ffffffffffffffffffffffffffffffffffffffff1673ffffffffffffffffffffffffffffffffffffffff168152602001908152602001600020600301549050919050565b600080600160008573ffffffffffffffffffffffffffffffffffffffff1673ffffffffffffffffffffffffffffffffffffffff168152602001908152602001600020600001805461100f90612548565b905011611051576040517f08c379a0000000000000000000000000000000000000000000000000000000008152600401611048906129ab565b60405180910390fd5b662386f26fc10000600160008573ffffffffffffffffffffffffffffffffffffffff1673ffffffffffffffffffffffffffffffffffffffff16815260200190815260200160002060010154116110dc576040517f08c379a00000000000000000000000000000000000000000000000000000000081526004016110d390612a17565b60405180910390fd5b8273ffffffffffffffffffffffffffffffffffffffff166000808473ffffffffffffffffffffffffffffffffffffffff1673ffffffffffffffffffffffffffffffffffffffff16815260200190815260200160002060000160009054906101000a900473ffffffffffffffffffffffffffffffffffffffff1673ffffffffffffffffffffffffffffffffffffffff16146111ab576040517f08c379a00000000000000000000000000000000000000000000000000000000081526004016111a290612aa9565b60405180910390fd5b6111b48261078e565b6111f3576040517f08c379a00000000000000000000000000000000000000000000000000000000081526004016111ea90612b15565b60405180910390fd5b600260008373ffffffffffffffffffffffffffffffffffffffff1673ffffffffffffffffffffffffffffffffffffffff16815260200190815260200160002060050160009054906101000a900460ff16905092915050565b600080600160003373ffffffffffffffffffffffffffffffffffffffff1673ffffffffffffffffffffffffffffffffffffffff168152602001908152602001600020600001805461129b90612548565b9050116112dd576040517f08c379a00000000000000000000000000000000000000000000000000000000081526004016112d4906129ab565b60405180910390fd5b600160003373ffffffffffffffffffffffffffffffffffffffff1673ffffffffffffffffffffffffffffffffffffffff16815260200190815260200160002060010154905090565b6000801b810361136a576040517f08c379a000000000000000000000000000000000000000000000000000000000815260040161136190612ce2565b60405180910390fd5b6000600160003373ffffffffffffffffffffffffffffffffffffffff1673ffffffffffffffffffffffffffffffffffffffff16815260200190815260200160002060000180546113b990612548565b9050116113fb576040517f08c379a00000000000000000000000000000000000000000000000000000000081526004016113f290612d74565b60405180910390fd5b662386f26fc10000600160003373ffffffffffffffffffffffffffffffffffffffff1673ffffffffffffffffffffffffffffffffffffffff1681526020019081526020016000206001015411611486576040517f08c379a000000000000000000000000000000000000000000000000000000000815260040161147d90612a17565b60405180910390fd5b8173ffffffffffffffffffffffffffffffffffffffff166000808473ffffffffffffffffffffffffffffffffffffffff1673ffffffffffffffffffffffffffffffffffffffff16815260200190815260200160002060010160009054906101000a900473ffffffffffffffffffffffffffffffffffffffff1673ffffffffffffffffffffffffffffffffffffffff1603611555576040517f08c379a000000000000000000000000000000000000000000000000000000000815260040161154c90612de0565b60405180910390fd5b60405180606001604052803373ffffffffffffffffffffffffffffffffffffffff1681526020018373ffffffffffffffffffffffffffffffffffffffff168152602001828152506000808473ffffffffffffffffffffffffffffffffffffffff1673ffffffffffffffffffffffffffffffffffffffff16815260200190815260200160002060008201518160000160006101000a81548173ffffffffffffffffffffffffffffffffffffffff021916908373ffffffffffffffffffffffffffffffffffffffff16021790555060208201518160010160006101000a81548173ffffffffffffffffffffffffffffffffffffffff021916908373ffffffffffffffffffffffffffffffffffffffff16021790555060408201518160020155905050600160003373ffffffffffffffffffffffffffffffffffffffff1673ffffffffffffffffffffffffffffffffffffffff16815260200190815260200160002060020160008154809291906116c890612e00565b91905055508173ffffffffffffffffffffffffffffffffffffffff163373ffffffffffffffffffffffffffffffffffffffff167f2138b9314634f9fdd5e49bee3eaf17ca557b6637524d0db759711c3bfcd3d85060405160405180910390a35050565b6000600160003373ffffffffffffffffffffffffffffffffffffffff1673ffffffffffffffffffffffffffffffffffffffff168152602001908152602001600020600001805461177a90612548565b9050116117bc576040517f08c379a00000000000000000000000000000000000000000000000000000000081526004016117b3906129ab565b60405180910390fd5b662386f26fc10000600160003373ffffffffffffffffffffffffffffffffffffffff1673ffffffffffffffffffffffffffffffffffffffff1681526020019081526020016000206001015411611847576040517f08c379a000000000000000000000000000000000000000000000000000000000815260040161183e90612a17565b60405180910390fd5b3373ffffffffffffffffffffffffffffffffffffffff166000808473ffffffffffffffffffffffffffffffffffffffff1673ffffffffffffffffffffffffffffffffffffffff16815260200190815260200160002060000160009054906101000a900473ffffffffffffffffffffffffffffffffffffffff1673ffffffffffffffffffffffffffffffffffffffff1614611916576040517f08c379a000000000000000000000000000000000000000000000000000000000815260040161190d90612ba7565b60405180910390fd5b6000801b810361195b576040517f08c379a000000000000000000000000000000000000000000000000000000000815260040161195290612ce2565b60405180910390fd5b806000808473ffffffffffffffffffffffffffffffffffffffff1673ffffffffffffffffffffffffffffffffffffffff16815260200190815260200160002060020154146119de576040517f08c379a00000000000000000000000000000000000000000000000000000000081526004016119d590612e94565b60405180910390fd5b6119e78261078e565b15611b7a57600062015180426119fd9190612ee3565b9050600062015180600260008673ffffffffffffffffffffffffffffffffffffffff1673ffffffffffffffffffffffffffffffffffffffff16815260200190815260200160002060030154611a529190612ee3565b905080821115611b735760018183611a6a9190612f14565b03611ace576001600260008673ffffffffffffffffffffffffffffffffffffffff1673ffffffffffffffffffffffffffffffffffffffff1681526020019081526020016000206004016000828254611ac29190612c62565b92505081905550611b2b565b60028183611adc9190612f14565b10611b2a576001600260008673ffffffffffffffffffffffffffffffffffffffff1673ffffffffffffffffffffffffffffffffffffffff168152602001908152602001600020600401819055505b5b42600260008673ffffffffffffffffffffffffffffffffffffffff1673ffffffffffffffffffffffffffffffffffffffff168152602001908152602001600020600301819055505b5050611e3c565b60008060008473ffffffffffffffffffffffffffffffffffffffff1673ffffffffffffffffffffffffffffffffffffffff1681526020019081526020016000206040518060600160405290816000820160009054906101000a900473ffffffffffffffffffffffffffffffffffffffff1673ffffffffffffffffffffffffffffffffffffffff1673ffffffffffffffffffffffffffffffffffffffff1681526020016001820160009054906101000a900473ffffffffffffffffffffffffffffffffffffffff1673ffffffffffffffffffffffffffffffffffffffff1673ffffffffffffffffffffffffffffffffffffffff168152602001600282015481525050905060405180608001604052808281526020014281526020016001815260200160011515815250600260008573ffffffffffffffffffffffffffffffffffffffff1673ffffffffffffffffffffffffffffffffffffffff16815260200190815260200160002060008201518160000160008201518160000160006101000a81548173ffffffffffffffffffffffffffffffffffffffff021916908373ffffffffffffffffffffffffffffffffffffffff16021790555060208201518160010160006101000a81548173ffffffffffffffffffffffffffffffffffffffff021916908373ffffffffffffffffffffffffffffffffffffffff160217905550604082015181600201555050602082015181600301556040820151816004015560608201518160050160006101000a81548160ff0219169083151502179055509050506000808473ffffffffffffffffffffffffffffffffffffffff1673ffffffffffffffffffffffffffffffffffffffff168152602001908152602001600020604051611e069190613063565b60405180910390207fc3e258c2735e50ca59d445076e61f3e568466d65196515d5fa3cef1518fff1da60405160405180910390a2505b6007600260008473ffffffffffffffffffffffffffffffffffffffff1673ffffffffffffffffffffffffffffffffffffffff16815260200190815260200160002060040154036120c3576000600160003373ffffffffffffffffffffffffffffffffffffffff1673ffffffffffffffffffffffffffffffffffffffff16815260200190815260200160002060020154600160003373ffffffffffffffffffffffffffffffffffffffff1673ffffffffffffffffffffffffffffffffffffffff16815260200190815260200160002060010154611f189190612ee3565b9050600260008473ffffffffffffffffffffffffffffffffffffffff1673ffffffffffffffffffffffffffffffffffffffff16815260200190815260200160002060000160010160009054906101000a900473ffffffffffffffffffffffffffffffffffffffff1673ffffffffffffffffffffffffffffffffffffffff166108fc829081150290604051600060405180830381858888f19350505050158015611fc5573d6000803e3d6000fd5b50600260008473ffffffffffffffffffffffffffffffffffffffff1673ffffffffffffffffffffffffffffffffffffffff16815260200190815260200160002060000160010160009054906101000a900473ffffffffffffffffffffffffffffffffffffffff1673ffffffffffffffffffffffffffffffffffffffff167fe366ef68d2c0620e9e4c5074fd7ad0ce6739b65287f9c2d09b7d002da556879b8260405161207191906123ab565b60405180910390a26000600260008573ffffffffffffffffffffffffffffffffffffffff1673ffffffffffffffffffffffffffffffffffffffff16815260200190815260200160002060040181905550505b5050565b5080546120d390612548565b6000825580601f106120e55750612104565b601f0160209004906000526020600020908101906121039190612107565b5b50565b5b80821115612120576000816000905550600101612108565b5090565b6000604051905090565b600080fd5b600080fd5b600080fd5b600080fd5b6000601f19601f8301169050919050565b7f4e487b7100000000000000000000000000000000000000000000000000000000600052604160045260246000fd5b61218b82612142565b810181811067ffffffffffffffff821117156121aa576121a9612153565b5b80604052505050565b60006121bd612124565b90506121c98282612182565b919050565b600067ffffffffffffffff8211156121e9576121e8612153565b5b6121f282612142565b9050602081019050919050565b82818337600083830152505050565b600061222161221c846121ce565b6121b3565b90508281526020810184848401111561223d5761223c61213d565b5b6122488482856121ff565b509392505050565b600082601f83011261226557612264612138565b5b813561227584826020860161220e565b91505092915050565b6000602082840312156122945761229361212e565b5b600082013567ffffffffffffffff8111156122b2576122b1612133565b5b6122be84828501612250565b91505092915050565b600073ffffffffffffffffffffffffffffffffffffffff82169050919050565b60006122f2826122c7565b9050919050565b612302816122e7565b811461230d57600080fd5b50565b60008135905061231f816122f9565b92915050565b60006020828403121561233b5761233a61212e565b5b600061234984828501612310565b91505092915050565b600080604083850312156123695761236861212e565b5b600061237785828601612310565b925050602061238885828601612310565b9150509250929050565b6000819050919050565b6123a581612392565b82525050565b60006020820190506123c0600083018461239c565b92915050565b60008115159050919050565b6123db816123c6565b82525050565b60006020820190506123f660008301846123d2565b92915050565b612405816122e7565b82525050565b600060208201905061242060008301846123fc565b92915050565b6000819050919050565b61243981612426565b811461244457600080fd5b50565b60008135905061245681612430565b92915050565b600080604083850312156124735761247261212e565b5b600061248185828601612310565b925050602061249285828601612447565b9150509250929050565b600082825260208201905092915050565b7f436f6d70616e79206e616d652063616e6e6f7420626520656d70747900000000600082015250565b60006124e3601c8361249c565b91506124ee826124ad565b602082019050919050565b60006020820190508181036000830152612512816124d6565b9050919050565b7f4e487b7100000000000000000000000000000000000000000000000000000000600052602260045260246000fd5b6000600282049050600182168061256057607f821691505b60208210810361257357612572612519565b5b50919050565b7f436f6d70616e7920616c72656164792072656769737465726564000000000000600082015250565b60006125af601a8361249c565b91506125ba82612579565b602082019050919050565b600060208201905081810360008301526125de816125a2565b9050919050565b600081519050919050565b60008190508160005260206000209050919050565b60006020601f8301049050919050565b600082821b905092915050565b6000600883026126527fffffffffffffffffffffffffffffffffffffffffffffffffffffffffffffffff82612615565b61265c8683612615565b95508019841693508086168417925050509392505050565b6000819050919050565b600061269961269461268f84612392565b612674565b612392565b9050919050565b6000819050919050565b6126b38361267e565b6126c76126bf826126a0565b848454612622565b825550505050565b600090565b6126dc6126cf565b6126e78184846126aa565b505050565b5b8181101561270b576127006000826126d4565b6001810190506126ed565b5050565b601f82111561275057612721816125f0565b61272a84612605565b81016020851015612739578190505b61274d61274585612605565b8301826126ec565b50505b505050565b600082821c905092915050565b600061277360001984600802612755565b1980831691505092915050565b600061278c8383612762565b9150826002028217905092915050565b6127a5826125e5565b67ffffffffffffffff8111156127be576127bd612153565b5b6127c88254612548565b6127d382828561270f565b600060209050601f83116001811461280657600084156127f4578287015190505b6127fe8582612780565b865550612866565b601f198416612814866125f0565b60005b8281101561283c57848901518255600182019150602085019450602081019050612817565b868310156128595784890151612855601f891682612762565b8355505b6001600288020188555050505b505050505050565b60005b8381101561288c578082015181840152602081019050612871565b60008484015250505050565b60006128a3826125e5565b6128ad818561249c565b93506128bd81856020860161286e565b6128c681612142565b840191505092915050565b600060208201905081810360008301526128eb8184612898565b905092915050565b7f55736572206973206e6f742063757272656e746c79206c6f6767656420696e00600082015250565b6000612929601f8361249c565b9150612934826128f3565b602082019050919050565b600060208201905081810360008301526129588161291c565b9050919050565b7f436f6d70616e79206e6f74207265676973746572656400000000000000000000600082015250565b600061299560168361249c565b91506129a08261295f565b602082019050919050565b600060208201905081810360008301526129c481612988565b9050919050565b7f4465706f73697420736f6d652045544820666972737400000000000000000000600082015250565b6000612a0160168361249c565b9150612a0c826129cb565b602082019050919050565b60006020820190508181036000830152612a30816129f4565b9050919050565b7f5573657220646f65736e27742065786973747320696e207468697320636f6d7060008201527f616e790000000000000000000000000000000000000000000000000000000000602082015250565b6000612a9360238361249c565b9150612a9e82612a37565b604082019050919050565b60006020820190508181036000830152612ac281612a86565b9050919050565b7f4c6f67696e2064657461696c20646f6573206e6f742065786973747300000000600082015250565b6000612aff601c8361249c565b9150612b0a82612ac9565b602082019050919050565b60006020820190508181036000830152612b2e81612af2565b9050919050565b7f5573657220646f65736e27742062656c6f6e6720746f20796f757220636f6d7060008201527f616e790000000000000000000000000000000000000000000000000000000000602082015250565b6000612b9160238361249c565b9150612b9c82612b35565b604082019050919050565b60006020820190508181036000830152612bc081612b84565b9050919050565b7f56616c75652063616e6e6f74206265206c657373207468616e20300000000000600082015250565b6000612bfd601b8361249c565b9150612c0882612bc7565b602082019050919050565b60006020820190508181036000830152612c2c81612bf0565b9050919050565b7f4e487b7100000000000000000000000000000000000000000000000000000000600052601160045260246000fd5b6000612c6d82612392565b9150612c7883612392565b9250828201905080821115612c9057612c8f612c33565b5b92915050565b7f496e76616c69642070617373776f726420686173680000000000000000000000600082015250565b6000612ccc60158361249c565b9150612cd782612c96565b602082019050919050565b60006020820190508181036000830152612cfb81612cbf565b9050919050565b7f4f6e6c7920436f6d70616e6965732063616e207265676973746572207468656960008201527f7220757365727300000000000000000000000000000000000000000000000000602082015250565b6000612d5e60278361249c565b9150612d6982612d02565b604082019050919050565b60006020820190508181036000830152612d8d81612d51565b9050919050565b7f5573657220616c72656164792072656769737465726564000000000000000000600082015250565b6000612dca60178361249c565b9150612dd582612d94565b602082019050919050565b60006020820190508181036000830152612df981612dbd565b9050919050565b6000612e0b82612392565b91507fffffffffffffffffffffffffffffffffffffffffffffffffffffffffffffffff8203612e3d57612e3c612c33565b5b600182019050919050565b7f496e636f72726563742070617373776f72640000000000000000000000000000600082015250565b6000612e7e60128361249c565b9150612e8982612e48565b602082019050919050565b60006020820190508181036000830152612ead81612e71565b9050919050565b7f4e487b7100000000000000000000000000000000000000000000000000000000600052601260045260246000fd5b6000612eee82612392565b9150612ef983612392565b925082612f0957612f08612eb4565b5b828204905092915050565b6000612f1f82612392565b9150612f2a83612392565b9250828203905081811115612f4257612f41612c33565b5b92915050565b60008160001c9050919050565b600073ffffffffffffffffffffffffffffffffffffffff82169050919050565b6000612f88612f8383612f48565b612f55565b9050919050565b612f98816122e7565b82525050565b6000612faa8383612f8f565b60208301905092915050565b6000819050919050565b6000612fd3612fce83612f48565b612fb6565b9050919050565b612fe381612426565b82525050565b6000612ff58383612fda565b60208301905092915050565b60008201600080830154905061301681612f75565b6130208582612f9e565b9450506001830154905061303381612f75565b61303d8582612f9e565b9450506002830154905061305081612fc0565b61305a8582612fe9565b94505050505050565b600061306f8284613001565b6060820191508190509291505056fea264697066735822122024b6bdedd73d7dfb1eaaa846843dc16660d34703c9495ba38f1e855bc23dae8964736f6c63430008130033",
  "immutableReferences": {},
  "source": "// SPDX-License-Identifier: GPL-3.0\npragma solidity ^0.8.0;\n\nimport \"./CompanyRegistry.sol\";\n\ncontract AuthenticationServiceProvider is CompanyRegistry {\n    address public owner;\n\n    // CompanyRegistry public companyRegistry;\n\n    constructor() {\n        owner = msg.sender;\n        // companyRegistry = CompanyRegistry(_companyRegistryAddress);\n    }\n}\n",
  "sourcePath": "D:\\Final Year Project\\Blockchain-based-incentivized-auth-system\\blockchain\\contracts\\AuthServiceProvide.sol",
  "compiler": {
    "name": "solc",
    "version": "0.8.19+commit.7dd6d404.Emscripten.clang"
  },
  "schemaVersion": "3.4.13",
  "updatedAt": "2023-05-18T21:34:09.370Z",
  "networkType": "ethereum",
  "devdoc": {
    "kind": "dev",
    "methods": {},
    "version": 1
  },
  "userdoc": {
    "kind": "user",
    "methods": {},
    "version": 1
  }
}