{
  "contractName": "AuthenticationServiceProvider",
  "abi": [
    {
      "inputs": [],
      "stateMutability": "nonpayable",
      "type": "constructor"
    },
    {
      "anonymous": false,
      "inputs": [
        {
          "indexed": true,
          "internalType": "address",
          "name": "companyAddress",
          "type": "address"
        }
      ],
      "name": "CompanyDeleted",
      "type": "event"
    },
    {
      "anonymous": false,
      "inputs": [
        {
          "indexed": true,
          "internalType": "address",
          "name": "companyAddress",
          "type": "address"
        },
        {
          "indexed": false,
          "internalType": "string",
          "name": "name",
          "type": "string"
        }
      ],
      "name": "CompanyRegistered",
      "type": "event"
    },
    {
      "anonymous": false,
      "inputs": [
        {
          "indexed": true,
          "internalType": "address",
          "name": "companyAddress",
          "type": "address"
        },
        {
          "indexed": false,
          "internalType": "uint256",
          "name": "amount",
          "type": "uint256"
        }
      ],
      "name": "DepositAdded",
      "type": "event"
    },
    {
      "anonymous": false,
      "inputs": [
        {
          "components": [
            {
              "internalType": "address",
              "name": "company",
              "type": "address"
            },
            {
              "internalType": "address",
              "name": "walletAddress",
              "type": "address"
            },
            {
              "internalType": "bytes32",
              "name": "passwordHash",
              "type": "bytes32"
            }
          ],
          "indexed": true,
          "internalType": "struct CompanyRegistry.User",
          "name": "user",
          "type": "tuple"
        }
      ],
      "name": "UserLoggedIn",
      "type": "event"
    },
    {
      "anonymous": false,
      "inputs": [
        {
          "indexed": true,
          "internalType": "address",
          "name": "companyAddress",
          "type": "address"
        },
        {
          "indexed": true,
          "internalType": "address",
          "name": "userAddress",
          "type": "address"
        }
      ],
      "name": "UserRegistered",
      "type": "event"
    },
    {
      "anonymous": false,
      "inputs": [
        {
          "indexed": true,
          "internalType": "address",
          "name": "userAddress",
          "type": "address"
        },
        {
          "indexed": false,
          "internalType": "uint256",
          "name": "amount",
          "type": "uint256"
        }
      ],
      "name": "UserRewarded",
      "type": "event"
    },
    {
      "inputs": [],
      "name": "addDeposit",
      "outputs": [],
      "stateMutability": "payable",
      "type": "function",
      "payable": true
    },
    {
      "inputs": [],
      "name": "deleteCompany",
      "outputs": [],
      "stateMutability": "nonpayable",
      "type": "function"
    },
    {
      "inputs": [
        {
          "internalType": "address",
          "name": "walletAddress",
          "type": "address"
        }
      ],
      "name": "doesLoginExist",
      "outputs": [
        {
          "internalType": "bool",
          "name": "",
          "type": "bool"
        }
      ],
      "stateMutability": "view",
      "type": "function",
      "constant": true
    },
    {
      "inputs": [],
      "name": "getCompanyDeposit",
      "outputs": [
        {
          "internalType": "uint256",
          "name": "",
          "type": "uint256"
        }
      ],
      "stateMutability": "view",
      "type": "function",
      "constant": true
    },
    {
      "inputs": [
        {
          "internalType": "address",
          "name": "CompanyAddress",
          "type": "address"
        },
        {
          "internalType": "address",
          "name": "userAddress",
          "type": "address"
        }
      ],
      "name": "getIsLoggedInStatus",
      "outputs": [
        {
          "internalType": "bool",
          "name": "",
          "type": "bool"
        }
      ],
      "stateMutability": "view",
      "type": "function",
      "constant": true
    },
    {
      "inputs": [
        {
          "internalType": "address",
          "name": "CompanyAddress",
          "type": "address"
        },
        {
          "internalType": "address",
          "name": "userAddress",
          "type": "address"
        }
      ],
      "name": "gettotalLoggedInDays",
      "outputs": [
        {
          "internalType": "uint256",
          "name": "",
          "type": "uint256"
        }
      ],
      "stateMutability": "view",
      "type": "function",
      "constant": true
    },
    {
      "inputs": [
        {
          "internalType": "address",
          "name": "walletAddress",
          "type": "address"
        }
      ],
      "name": "lastLoginTime",
      "outputs": [
        {
          "internalType": "uint256",
          "name": "",
          "type": "uint256"
        }
      ],
      "stateMutability": "view",
      "type": "function",
      "constant": true
    },
    {
      "inputs": [
        {
          "internalType": "address",
          "name": "walletAddress",
          "type": "address"
        },
        {
          "internalType": "bytes32",
          "name": "passwordHash",
          "type": "bytes32"
        }
      ],
      "name": "loginUser",
      "outputs": [
        {
          "internalType": "bool",
          "name": "",
          "type": "bool"
        }
      ],
      "stateMutability": "nonpayable",
      "type": "function"
    },
    {
      "inputs": [
        {
          "internalType": "address",
          "name": "walletAddress",
          "type": "address"
        }
      ],
      "name": "logoutUser",
      "outputs": [],
      "stateMutability": "nonpayable",
      "type": "function"
    },
    {
      "inputs": [],
      "name": "owner",
      "outputs": [
        {
          "internalType": "address",
          "name": "",
          "type": "address"
        }
      ],
      "stateMutability": "view",
      "type": "function",
      "constant": true
    },
    {
      "inputs": [
        {
          "internalType": "string",
          "name": "name",
          "type": "string"
        }
      ],
      "name": "registerCompany",
      "outputs": [],
      "stateMutability": "nonpayable",
      "type": "function"
    },
    {
      "inputs": [
        {
          "internalType": "address",
          "name": "walletAddress",
          "type": "address"
        },
        {
          "internalType": "bytes32",
          "name": "passwordHash",
          "type": "bytes32"
        }
      ],
      "name": "registerUser",
      "outputs": [],
      "stateMutability": "nonpayable",
      "type": "function"
    },
    {
      "inputs": [
        {
          "internalType": "address",
          "name": "userAddress",
          "type": "address"
        }
      ],
      "name": "updateLoggedInStatus",
      "outputs": [
        {
          "internalType": "bool",
          "name": "",
          "type": "bool"
        },
        {
          "internalType": "uint256",
          "name": "",
          "type": "uint256"
        }
      ],
      "stateMutability": "nonpayable",
      "type": "function"
    }
  ],
  "bytecode": "0x608060405234801561001057600080fd5b5033600360006101000a81548173ffffffffffffffffffffffffffffffffffffffff021916908373ffffffffffffffffffffffffffffffffffffffff160217905550613210806100616000396000f3fe6080604052600436106100c15760003560e01c80638da5cb5b1161007f578063c89f883e11610059578063c89f883e14610259578063cc6911b614610296578063d7e0b6e3146102c1578063f7a04903146102ea576100c1565b80638da5cb5b146101b3578063a73779a6146101de578063b4bcca031461021c576100c1565b8062544194146100c657806309df5060146100ef57806319abc6a8146101185780633f3c2ad2146101555780634a58db19146101925780635045499c1461019c575b600080fd5b3480156100d257600080fd5b506100ed60048036038101906100e891906122d9565b610327565b005b3480156100fb57600080fd5b5061011660048036038101906101119190612380565b6104d6565b005b34801561012457600080fd5b5061013f600480360381019061013a91906123ad565b61057c565b60405161014c9190612406565b60405180910390f35b34801561016157600080fd5b5061017c60048036038101906101779190612380565b6107fb565b604051610189919061243c565b60405180910390f35b61019a610a82565b005b3480156101a857600080fd5b506101b1610bff565b005b3480156101bf57600080fd5b506101c8610dd0565b6040516101d59190612466565b60405180910390f35b3480156101ea57600080fd5b5061020560048036038101906102009190612380565b610df6565b604051610213929190612481565b60405180910390f35b34801561022857600080fd5b50610243600480360381019061023e9190612380565b61115d565b6040516102509190612406565b60405180910390f35b34801561026557600080fd5b50610280600480360381019061027b91906123ad565b611393565b60405161028d919061243c565b60405180910390f35b3480156102a257600080fd5b506102ab61161f565b6040516102b89190612406565b60405180910390f35b3480156102cd57600080fd5b506102e860048036038101906102e391906124e0565b6116f9565b005b3480156102f657600080fd5b50610311600480360381019061030c91906124e0565b611aff565b60405161031e919061243c565b60405180910390f35b600081511161036b576040517f08c379a00000000000000000000000000000000000000000000000000000000081526004016103629061257d565b60405180910390fd5b6000600160003373ffffffffffffffffffffffffffffffffffffffff1673ffffffffffffffffffffffffffffffffffffffff16815260200190815260200160002060000180546103ba906125cc565b9050146103fc576040517f08c379a00000000000000000000000000000000000000000000000000000000081526004016103f390612649565b60405180910390fd5b6040518060600160405280828152602001600081526020016000815250600160003373ffffffffffffffffffffffffffffffffffffffff1673ffffffffffffffffffffffffffffffffffffffff168152602001908152602001600020600082015181600001908161046d9190612820565b5060208201518160010155604082015181600201559050503373ffffffffffffffffffffffffffffffffffffffff167f76686aa361308f4a08557cca1a847299ce61e5602a3495cd359a599a1dca438c826040516104cb9190612955565b60405180910390a250565b6104df816107fb565b61051e576040517f08c379a0000000000000000000000000000000000000000000000000000000008152600401610515906129c3565b60405180910390fd5b6000600260008373ffffffffffffffffffffffffffffffffffffffff1673ffffffffffffffffffffffffffffffffffffffff16815260200190815260200160002060050160006101000a81548160ff02191690831515021790555050565b600080600160008573ffffffffffffffffffffffffffffffffffffffff1673ffffffffffffffffffffffffffffffffffffffff16815260200190815260200160002060000180546105cc906125cc565b90501161060e576040517f08c379a000000000000000000000000000000000000000000000000000000000815260040161060590612a2f565b60405180910390fd5b662386f26fc10000600160003373ffffffffffffffffffffffffffffffffffffffff1673ffffffffffffffffffffffffffffffffffffffff1681526020019081526020016000206001015411610699576040517f08c379a000000000000000000000000000000000000000000000000000000000815260040161069090612a9b565b60405180910390fd5b8273ffffffffffffffffffffffffffffffffffffffff166000808473ffffffffffffffffffffffffffffffffffffffff1673ffffffffffffffffffffffffffffffffffffffff16815260200190815260200160002060000160009054906101000a900473ffffffffffffffffffffffffffffffffffffffff1673ffffffffffffffffffffffffffffffffffffffff1614610768576040517f08c379a000000000000000000000000000000000000000000000000000000000815260040161075f90612b2d565b60405180910390fd5b610771826107fb565b6107b0576040517f08c379a00000000000000000000000000000000000000000000000000000000081526004016107a790612b99565b60405180910390fd5b600260008373ffffffffffffffffffffffffffffffffffffffff1673ffffffffffffffffffffffffffffffffffffffff16815260200190815260200160002060040154905092915050565b600080600160003373ffffffffffffffffffffffffffffffffffffffff1673ffffffffffffffffffffffffffffffffffffffff168152602001908152602001600020600001805461084b906125cc565b90501161088d576040517f08c379a000000000000000000000000000000000000000000000000000000000815260040161088490612a2f565b60405180910390fd5b662386f26fc10000600160003373ffffffffffffffffffffffffffffffffffffffff1673ffffffffffffffffffffffffffffffffffffffff1681526020019081526020016000206001015411610918576040517f08c379a000000000000000000000000000000000000000000000000000000000815260040161090f90612a9b565b60405180910390fd5b3373ffffffffffffffffffffffffffffffffffffffff166000808473ffffffffffffffffffffffffffffffffffffffff1673ffffffffffffffffffffffffffffffffffffffff16815260200190815260200160002060000160009054906101000a900473ffffffffffffffffffffffffffffffffffffffff1673ffffffffffffffffffffffffffffffffffffffff16146109e7576040517f08c379a00000000000000000000000000000000000000000000000000000000081526004016109de90612c2b565b60405180910390fd5b8173ffffffffffffffffffffffffffffffffffffffff16600260008473ffffffffffffffffffffffffffffffffffffffff1673ffffffffffffffffffffffffffffffffffffffff16815260200190815260200160002060000160010160009054906101000a900473ffffffffffffffffffffffffffffffffffffffff1673ffffffffffffffffffffffffffffffffffffffff16149050919050565b6000600160003373ffffffffffffffffffffffffffffffffffffffff1673ffffffffffffffffffffffffffffffffffffffff1681526020019081526020016000206000018054610ad1906125cc565b905011610b13576040517f08c379a0000000000000000000000000000000000000000000000000000000008152600401610b0a90612a2f565b60405180910390fd5b60003411610b56576040517f08c379a0000000000000000000000000000000000000000000000000000000008152600401610b4d90612c97565b60405180910390fd5b34600160003373ffffffffffffffffffffffffffffffffffffffff1673ffffffffffffffffffffffffffffffffffffffff1681526020019081526020016000206001016000828254610ba89190612ce6565b925050819055503373ffffffffffffffffffffffffffffffffffffffff167fa2a2db73af12c9f5bef6303364d44e78f97e992c353cd8659f3474c471427e9b34604051610bf59190612406565b60405180910390a2565b6000600160003373ffffffffffffffffffffffffffffffffffffffff1673ffffffffffffffffffffffffffffffffffffffff1681526020019081526020016000206000018054610c4e906125cc565b905011610c90576040517f08c379a0000000000000000000000000000000000000000000000000000000008152600401610c8790612a2f565b60405180910390fd5b6000600160003373ffffffffffffffffffffffffffffffffffffffff1673ffffffffffffffffffffffffffffffffffffffff168152602001908152602001600020600101549050600160003373ffffffffffffffffffffffffffffffffffffffff1673ffffffffffffffffffffffffffffffffffffffff16815260200190815260200160002060008082016000610d279190612122565b6001820160009055600282016000905550503373ffffffffffffffffffffffffffffffffffffffff167f2564dc12f5c7d4be57c9d0417c313a76d08624ac131a3772f9abeedff476161160405160405180910390a26000811115610dcd573373ffffffffffffffffffffffffffffffffffffffff166108fc829081150290604051600060405180830381858888f19350505050158015610dcb573d6000803e3d6000fd5b505b50565b600360009054906101000a900473ffffffffffffffffffffffffffffffffffffffff1681565b600080610e02836107fb565b610e41576040517f08c379a0000000000000000000000000000000000000000000000000000000008152600401610e3890612d66565b60405180910390fd5b60006201518042610e529190612db5565b9050600062015180600260008773ffffffffffffffffffffffffffffffffffffffff1673ffffffffffffffffffffffffffffffffffffffff16815260200190815260200160002060030154610ea79190612db5565b905080821115610fc85760018183610ebf9190612de6565b03610f23576001600260008773ffffffffffffffffffffffffffffffffffffffff1673ffffffffffffffffffffffffffffffffffffffff1681526020019081526020016000206004016000828254610f179190612ce6565b92505081905550610f80565b60028183610f319190612de6565b10610f7f576001600260008773ffffffffffffffffffffffffffffffffffffffff1673ffffffffffffffffffffffffffffffffffffffff168152602001908152602001600020600401819055505b5b42600260008773ffffffffffffffffffffffffffffffffffffffff1673ffffffffffffffffffffffffffffffffffffffff168152602001908152602001600020600301819055505b6001600260008773ffffffffffffffffffffffffffffffffffffffff1673ffffffffffffffffffffffffffffffffffffffff16815260200190815260200160002060050160006101000a81548160ff0219169083151502179055506007600260008773ffffffffffffffffffffffffffffffffffffffff1673ffffffffffffffffffffffffffffffffffffffff16815260200190815260200160002060040154036110bf5761107685611f2b565b6000600260008773ffffffffffffffffffffffffffffffffffffffff1673ffffffffffffffffffffffffffffffffffffffff168152602001908152602001600020600401819055505b600260008673ffffffffffffffffffffffffffffffffffffffff1673ffffffffffffffffffffffffffffffffffffffff16815260200190815260200160002060050160009054906101000a900460ff16600260008773ffffffffffffffffffffffffffffffffffffffff1673ffffffffffffffffffffffffffffffffffffffff16815260200190815260200160002060040154935093505050915091565b600080600160003373ffffffffffffffffffffffffffffffffffffffff1673ffffffffffffffffffffffffffffffffffffffff16815260200190815260200160002060000180546111ad906125cc565b9050116111ef576040517f08c379a00000000000000000000000000000000000000000000000000000000081526004016111e690612a2f565b60405180910390fd5b662386f26fc10000600160003373ffffffffffffffffffffffffffffffffffffffff1673ffffffffffffffffffffffffffffffffffffffff168152602001908152602001600020600101541161127a576040517f08c379a000000000000000000000000000000000000000000000000000000000815260040161127190612a9b565b60405180910390fd5b3373ffffffffffffffffffffffffffffffffffffffff166000808473ffffffffffffffffffffffffffffffffffffffff1673ffffffffffffffffffffffffffffffffffffffff16815260200190815260200160002060000160009054906101000a900473ffffffffffffffffffffffffffffffffffffffff1673ffffffffffffffffffffffffffffffffffffffff1614611349576040517f08c379a000000000000000000000000000000000000000000000000000000000815260040161134090612c2b565b60405180910390fd5b600260008373ffffffffffffffffffffffffffffffffffffffff1673ffffffffffffffffffffffffffffffffffffffff168152602001908152602001600020600301549050919050565b600080600160008573ffffffffffffffffffffffffffffffffffffffff1673ffffffffffffffffffffffffffffffffffffffff16815260200190815260200160002060000180546113e3906125cc565b905011611425576040517f08c379a000000000000000000000000000000000000000000000000000000000815260040161141c90612a2f565b60405180910390fd5b662386f26fc10000600160008573ffffffffffffffffffffffffffffffffffffffff1673ffffffffffffffffffffffffffffffffffffffff16815260200190815260200160002060010154116114b0576040517f08c379a00000000000000000000000000000000000000000000000000000000081526004016114a790612a9b565b60405180910390fd5b8273ffffffffffffffffffffffffffffffffffffffff166000808473ffffffffffffffffffffffffffffffffffffffff1673ffffffffffffffffffffffffffffffffffffffff16815260200190815260200160002060000160009054906101000a900473ffffffffffffffffffffffffffffffffffffffff1673ffffffffffffffffffffffffffffffffffffffff161461157f576040517f08c379a000000000000000000000000000000000000000000000000000000000815260040161157690612b2d565b60405180910390fd5b611588826107fb565b6115c7576040517f08c379a00000000000000000000000000000000000000000000000000000000081526004016115be90612b99565b60405180910390fd5b600260008373ffffffffffffffffffffffffffffffffffffffff1673ffffffffffffffffffffffffffffffffffffffff16815260200190815260200160002060050160009054906101000a900460ff16905092915050565b600080600160003373ffffffffffffffffffffffffffffffffffffffff1673ffffffffffffffffffffffffffffffffffffffff168152602001908152602001600020600001805461166f906125cc565b9050116116b1576040517f08c379a00000000000000000000000000000000000000000000000000000000081526004016116a890612a2f565b60405180910390fd5b600160003373ffffffffffffffffffffffffffffffffffffffff1673ffffffffffffffffffffffffffffffffffffffff16815260200190815260200160002060010154905090565b6000801b810361173e576040517f08c379a000000000000000000000000000000000000000000000000000000000815260040161173590612e66565b60405180910390fd5b6000600160003373ffffffffffffffffffffffffffffffffffffffff1673ffffffffffffffffffffffffffffffffffffffff168152602001908152602001600020600001805461178d906125cc565b9050116117cf576040517f08c379a00000000000000000000000000000000000000000000000000000000081526004016117c690612ef8565b60405180910390fd5b662386f26fc10000600160003373ffffffffffffffffffffffffffffffffffffffff1673ffffffffffffffffffffffffffffffffffffffff168152602001908152602001600020600101541161185a576040517f08c379a000000000000000000000000000000000000000000000000000000000815260040161185190612a9b565b60405180910390fd5b8173ffffffffffffffffffffffffffffffffffffffff166000808473ffffffffffffffffffffffffffffffffffffffff1673ffffffffffffffffffffffffffffffffffffffff16815260200190815260200160002060010160009054906101000a900473ffffffffffffffffffffffffffffffffffffffff1673ffffffffffffffffffffffffffffffffffffffff1603611929576040517f08c379a000000000000000000000000000000000000000000000000000000000815260040161192090612f64565b60405180910390fd5b60405180606001604052803373ffffffffffffffffffffffffffffffffffffffff1681526020018373ffffffffffffffffffffffffffffffffffffffff168152602001828152506000808473ffffffffffffffffffffffffffffffffffffffff1673ffffffffffffffffffffffffffffffffffffffff16815260200190815260200160002060008201518160000160006101000a81548173ffffffffffffffffffffffffffffffffffffffff021916908373ffffffffffffffffffffffffffffffffffffffff16021790555060208201518160010160006101000a81548173ffffffffffffffffffffffffffffffffffffffff021916908373ffffffffffffffffffffffffffffffffffffffff16021790555060408201518160020155905050600160003373ffffffffffffffffffffffffffffffffffffffff1673ffffffffffffffffffffffffffffffffffffffff1681526020019081526020016000206002016000815480929190611a9c90612f84565b91905055508173ffffffffffffffffffffffffffffffffffffffff163373ffffffffffffffffffffffffffffffffffffffff167f2138b9314634f9fdd5e49bee3eaf17ca557b6637524d0db759711c3bfcd3d85060405160405180910390a35050565b6000611b0a836107fb565b15611b4a576040517f08c379a0000000000000000000000000000000000000000000000000000000008152600401611b4190613018565b60405180910390fd5b6000801b8203611b8f576040517f08c379a0000000000000000000000000000000000000000000000000000000008152600401611b8690612e66565b60405180910390fd5b816000808573ffffffffffffffffffffffffffffffffffffffff1673ffffffffffffffffffffffffffffffffffffffff1681526020019081526020016000206002015414611c12576040517f08c379a0000000000000000000000000000000000000000000000000000000008152600401611c0990613084565b60405180910390fd5b60008060008573ffffffffffffffffffffffffffffffffffffffff1673ffffffffffffffffffffffffffffffffffffffff1681526020019081526020016000206040518060600160405290816000820160009054906101000a900473ffffffffffffffffffffffffffffffffffffffff1673ffffffffffffffffffffffffffffffffffffffff1673ffffffffffffffffffffffffffffffffffffffff1681526020016001820160009054906101000a900473ffffffffffffffffffffffffffffffffffffffff1673ffffffffffffffffffffffffffffffffffffffff1673ffffffffffffffffffffffffffffffffffffffff168152602001600282015481525050905060405180608001604052808281526020014281526020016001815260200160011515815250600260008673ffffffffffffffffffffffffffffffffffffffff1673ffffffffffffffffffffffffffffffffffffffff16815260200190815260200160002060008201518160000160008201518160000160006101000a81548173ffffffffffffffffffffffffffffffffffffffff021916908373ffffffffffffffffffffffffffffffffffffffff16021790555060208201518160010160006101000a81548173ffffffffffffffffffffffffffffffffffffffff021916908373ffffffffffffffffffffffffffffffffffffffff160217905550604082015181600201555050602082015181600301556040820151816004015560608201518160050160006101000a81548160ff0219169083151502179055509050506000808573ffffffffffffffffffffffffffffffffffffffff1673ffffffffffffffffffffffffffffffffffffffff168152602001908152602001600020604051611e9e91906131bf565b60405180910390207fc3e258c2735e50ca59d445076e61f3e568466d65196515d5fa3cef1518fff1da60405160405180910390a2600260008573ffffffffffffffffffffffffffffffffffffffff1673ffffffffffffffffffffffffffffffffffffffff16815260200190815260200160002060050160009054906101000a900460ff1691505092915050565b6000600160003373ffffffffffffffffffffffffffffffffffffffff1673ffffffffffffffffffffffffffffffffffffffff16815260200190815260200160002060020154600160003373ffffffffffffffffffffffffffffffffffffffff1673ffffffffffffffffffffffffffffffffffffffff16815260200190815260200160002060010154611fbd9190612db5565b9050600260008373ffffffffffffffffffffffffffffffffffffffff1673ffffffffffffffffffffffffffffffffffffffff16815260200190815260200160002060000160010160009054906101000a900473ffffffffffffffffffffffffffffffffffffffff1673ffffffffffffffffffffffffffffffffffffffff166108fc829081150290604051600060405180830381858888f1935050505015801561206a573d6000803e3d6000fd5b50600260008373ffffffffffffffffffffffffffffffffffffffff1673ffffffffffffffffffffffffffffffffffffffff16815260200190815260200160002060000160010160009054906101000a900473ffffffffffffffffffffffffffffffffffffffff1673ffffffffffffffffffffffffffffffffffffffff167fe366ef68d2c0620e9e4c5074fd7ad0ce6739b65287f9c2d09b7d002da556879b826040516121169190612406565b60405180910390a25050565b50805461212e906125cc565b6000825580601f10612140575061215f565b601f01602090049060005260206000209081019061215e9190612162565b5b50565b5b8082111561217b576000816000905550600101612163565b5090565b6000604051905090565b600080fd5b600080fd5b600080fd5b600080fd5b6000601f19601f8301169050919050565b7f4e487b7100000000000000000000000000000000000000000000000000000000600052604160045260246000fd5b6121e68261219d565b810181811067ffffffffffffffff82111715612205576122046121ae565b5b80604052505050565b600061221861217f565b905061222482826121dd565b919050565b600067ffffffffffffffff821115612244576122436121ae565b5b61224d8261219d565b9050602081019050919050565b82818337600083830152505050565b600061227c61227784612229565b61220e565b90508281526020810184848401111561229857612297612198565b5b6122a384828561225a565b509392505050565b600082601f8301126122c0576122bf612193565b5b81356122d0848260208601612269565b91505092915050565b6000602082840312156122ef576122ee612189565b5b600082013567ffffffffffffffff81111561230d5761230c61218e565b5b612319848285016122ab565b91505092915050565b600073ffffffffffffffffffffffffffffffffffffffff82169050919050565b600061234d82612322565b9050919050565b61235d81612342565b811461236857600080fd5b50565b60008135905061237a81612354565b92915050565b60006020828403121561239657612395612189565b5b60006123a48482850161236b565b91505092915050565b600080604083850312156123c4576123c3612189565b5b60006123d28582860161236b565b92505060206123e38582860161236b565b9150509250929050565b6000819050919050565b612400816123ed565b82525050565b600060208201905061241b60008301846123f7565b92915050565b60008115159050919050565b61243681612421565b82525050565b6000602082019050612451600083018461242d565b92915050565b61246081612342565b82525050565b600060208201905061247b6000830184612457565b92915050565b6000604082019050612496600083018561242d565b6124a360208301846123f7565b9392505050565b6000819050919050565b6124bd816124aa565b81146124c857600080fd5b50565b6000813590506124da816124b4565b92915050565b600080604083850312156124f7576124f6612189565b5b60006125058582860161236b565b9250506020612516858286016124cb565b9150509250929050565b600082825260208201905092915050565b7f436f6d70616e79206e616d652063616e6e6f7420626520656d70747900000000600082015250565b6000612567601c83612520565b915061257282612531565b602082019050919050565b600060208201905081810360008301526125968161255a565b9050919050565b7f4e487b7100000000000000000000000000000000000000000000000000000000600052602260045260246000fd5b600060028204905060018216806125e457607f821691505b6020821081036125f7576125f661259d565b5b50919050565b7f436f6d70616e7920616c72656164792072656769737465726564000000000000600082015250565b6000612633601a83612520565b915061263e826125fd565b602082019050919050565b6000602082019050818103600083015261266281612626565b9050919050565b600081519050919050565b60008190508160005260206000209050919050565b60006020601f8301049050919050565b600082821b905092915050565b6000600883026126d67fffffffffffffffffffffffffffffffffffffffffffffffffffffffffffffffff82612699565b6126e08683612699565b95508019841693508086168417925050509392505050565b6000819050919050565b600061271d612718612713846123ed565b6126f8565b6123ed565b9050919050565b6000819050919050565b61273783612702565b61274b61274382612724565b8484546126a6565b825550505050565b600090565b612760612753565b61276b81848461272e565b505050565b5b8181101561278f57612784600082612758565b600181019050612771565b5050565b601f8211156127d4576127a581612674565b6127ae84612689565b810160208510156127bd578190505b6127d16127c985612689565b830182612770565b50505b505050565b600082821c905092915050565b60006127f7600019846008026127d9565b1980831691505092915050565b600061281083836127e6565b9150826002028217905092915050565b61282982612669565b67ffffffffffffffff811115612842576128416121ae565b5b61284c82546125cc565b612857828285612793565b600060209050601f83116001811461288a5760008415612878578287015190505b6128828582612804565b8655506128ea565b601f19841661289886612674565b60005b828110156128c05784890151825560018201915060208501945060208101905061289b565b868310156128dd57848901516128d9601f8916826127e6565b8355505b6001600288020188555050505b505050505050565b60005b838110156129105780820151818401526020810190506128f5565b60008484015250505050565b600061292782612669565b6129318185612520565b93506129418185602086016128f2565b61294a8161219d565b840191505092915050565b6000602082019050818103600083015261296f818461291c565b905092915050565b7f55736572206973206e6f742063757272656e746c79206c6f6767656420696e00600082015250565b60006129ad601f83612520565b91506129b882612977565b602082019050919050565b600060208201905081810360008301526129dc816129a0565b9050919050565b7f436f6d70616e79206e6f74207265676973746572656400000000000000000000600082015250565b6000612a19601683612520565b9150612a24826129e3565b602082019050919050565b60006020820190508181036000830152612a4881612a0c565b9050919050565b7f4465706f73697420736f6d652045544820666972737400000000000000000000600082015250565b6000612a85601683612520565b9150612a9082612a4f565b602082019050919050565b60006020820190508181036000830152612ab481612a78565b9050919050565b7f5573657220646f65736e27742065786973747320696e207468697320636f6d7060008201527f616e790000000000000000000000000000000000000000000000000000000000602082015250565b6000612b17602383612520565b9150612b2282612abb565b604082019050919050565b60006020820190508181036000830152612b4681612b0a565b9050919050565b7f4c6f67696e2064657461696c20646f6573206e6f742065786973747300000000600082015250565b6000612b83601c83612520565b9150612b8e82612b4d565b602082019050919050565b60006020820190508181036000830152612bb281612b76565b9050919050565b7f5573657220646f65736e27742062656c6f6e6720746f20796f757220636f6d7060008201527f616e790000000000000000000000000000000000000000000000000000000000602082015250565b6000612c15602383612520565b9150612c2082612bb9565b604082019050919050565b60006020820190508181036000830152612c4481612c08565b9050919050565b7f56616c75652063616e6e6f74206265206c657373207468616e20300000000000600082015250565b6000612c81601b83612520565b9150612c8c82612c4b565b602082019050919050565b60006020820190508181036000830152612cb081612c74565b9050919050565b7f4e487b7100000000000000000000000000000000000000000000000000000000600052601160045260246000fd5b6000612cf1826123ed565b9150612cfc836123ed565b9250828201905080821115612d1457612d13612cb7565b5b92915050565b7f4c6f67696e2044657461696c7320646f65736e27742065786973747300000000600082015250565b6000612d50601c83612520565b9150612d5b82612d1a565b602082019050919050565b60006020820190508181036000830152612d7f81612d43565b9050919050565b7f4e487b7100000000000000000000000000000000000000000000000000000000600052601260045260246000fd5b6000612dc0826123ed565b9150612dcb836123ed565b925082612ddb57612dda612d86565b5b828204905092915050565b6000612df1826123ed565b9150612dfc836123ed565b9250828203905081811115612e1457612e13612cb7565b5b92915050565b7f496e76616c69642070617373776f726420686173680000000000000000000000600082015250565b6000612e50601583612520565b9150612e5b82612e1a565b602082019050919050565b60006020820190508181036000830152612e7f81612e43565b9050919050565b7f4f6e6c7920436f6d70616e6965732063616e207265676973746572207468656960008201527f7220757365727300000000000000000000000000000000000000000000000000602082015250565b6000612ee2602783612520565b9150612eed82612e86565b604082019050919050565b60006020820190508181036000830152612f1181612ed5565b9050919050565b7f5573657220616c72656164792072656769737465726564000000000000000000600082015250565b6000612f4e601783612520565b9150612f5982612f18565b602082019050919050565b60006020820190508181036000830152612f7d81612f41565b9050919050565b6000612f8f826123ed565b91507fffffffffffffffffffffffffffffffffffffffffffffffffffffffffffffffff8203612fc157612fc0612cb7565b5b600182019050919050565b7f4c6f67696e2044657461696c7320616c72656164792065786973747300000000600082015250565b6000613002601c83612520565b915061300d82612fcc565b602082019050919050565b6000602082019050818103600083015261303181612ff5565b9050919050565b7f496e636f72726563742070617373776f72640000000000000000000000000000600082015250565b600061306e601283612520565b915061307982613038565b602082019050919050565b6000602082019050818103600083015261309d81613061565b9050919050565b60008160001c9050919050565b600073ffffffffffffffffffffffffffffffffffffffff82169050919050565b60006130e46130df836130a4565b6130b1565b9050919050565b6130f481612342565b82525050565b600061310683836130eb565b60208301905092915050565b6000819050919050565b600061312f61312a836130a4565b613112565b9050919050565b61313f816124aa565b82525050565b60006131518383613136565b60208301905092915050565b600082016000808301549050613172816130d1565b61317c85826130fa565b9450506001830154905061318f816130d1565b61319985826130fa565b945050600283015490506131ac8161311c565b6131b68582613145565b94505050505050565b60006131cb828461315d565b6060820191508190509291505056fea2646970667358221220c53e360bc4f742d0f54c2caba7c894ed96b94a8bd10a6507fc3b6f7a102d430364736f6c63430008130033",
  "immutableReferences": {},
  "source": "// SPDX-License-Identifier: GPL-3.0\npragma solidity ^0.8.0;\n\nimport \"./CompanyRegistry.sol\";\n\ncontract AuthenticationServiceProvider is CompanyRegistry {\n    address public owner;\n\n    // CompanyRegistry public companyRegistry;\n\n    constructor() {\n        owner = msg.sender;\n        // companyRegistry = CompanyRegistry(_companyRegistryAddress);\n    }\n}\n",
  "sourcePath": "D:\\Final Year Project\\Blockchain-based-incentivized-auth-system\\blockchain\\contracts\\AuthServiceProvide.sol",
  "compiler": {
    "name": "solc",
    "version": "0.8.19+commit.7dd6d404.Emscripten.clang"
  },
  "schemaVersion": "3.4.13",
  "updatedAt": "2023-05-21T01:15:28.755Z",
  "networkType": "ethereum",
  "devdoc": {
    "kind": "dev",
    "methods": {},
    "version": 1
  },
  "userdoc": {
    "kind": "user",
    "methods": {},
    "version": 1
  }
}