{
  "contractName": "CompanyRegistry",
  "abi": [
    {
      "anonymous": false,
      "inputs": [
        {
          "indexed": true,
          "internalType": "address",
          "name": "companyAddress",
          "type": "address"
        }
      ],
      "name": "CompanyDeleted",
      "type": "event"
    },
    {
      "anonymous": false,
      "inputs": [
        {
          "indexed": true,
          "internalType": "address",
          "name": "companyAddress",
          "type": "address"
        },
        {
          "indexed": false,
          "internalType": "string",
          "name": "name",
          "type": "string"
        }
      ],
      "name": "CompanyRegistered",
      "type": "event"
    },
    {
      "anonymous": false,
      "inputs": [
        {
          "indexed": true,
          "internalType": "address",
          "name": "companyAddress",
          "type": "address"
        },
        {
          "indexed": false,
          "internalType": "uint256",
          "name": "amount",
          "type": "uint256"
        }
      ],
      "name": "DepositAdded",
      "type": "event"
    },
    {
      "anonymous": false,
      "inputs": [
        {
          "components": [
            {
              "internalType": "address",
              "name": "company",
              "type": "address"
            },
            {
              "internalType": "address",
              "name": "walletAddress",
              "type": "address"
            },
            {
              "internalType": "bytes32",
              "name": "passwordHash",
              "type": "bytes32"
            }
          ],
          "indexed": true,
          "internalType": "struct CompanyRegistry.User",
          "name": "user",
          "type": "tuple"
        }
      ],
      "name": "UserLoggedIn",
      "type": "event"
    },
    {
      "anonymous": false,
      "inputs": [
        {
          "indexed": true,
          "internalType": "address",
          "name": "companyAddress",
          "type": "address"
        },
        {
          "indexed": true,
          "internalType": "address",
          "name": "userAddress",
          "type": "address"
        }
      ],
      "name": "UserRegistered",
      "type": "event"
    },
    {
      "anonymous": false,
      "inputs": [
        {
          "indexed": true,
          "internalType": "address",
          "name": "userAddress",
          "type": "address"
        },
        {
          "indexed": false,
          "internalType": "uint256",
          "name": "amount",
          "type": "uint256"
        }
      ],
      "name": "UserRewarded",
      "type": "event"
    },
    {
      "inputs": [
        {
          "internalType": "address",
          "name": "walletAddress",
          "type": "address"
        }
      ],
      "name": "doesLoginExist",
      "outputs": [
        {
          "internalType": "bool",
          "name": "",
          "type": "bool"
        }
      ],
      "stateMutability": "view",
      "type": "function"
    },
    {
      "inputs": [
        {
          "internalType": "address",
          "name": "walletAddress",
          "type": "address"
        },
        {
          "internalType": "bytes32",
          "name": "passwordHash",
          "type": "bytes32"
        }
      ],
      "name": "loginUser",
      "outputs": [],
      "stateMutability": "nonpayable",
      "type": "function"
    },
    {
      "inputs": [
        {
          "internalType": "address",
          "name": "CompanyAddress",
          "type": "address"
        },
        {
          "internalType": "address",
          "name": "userAddress",
          "type": "address"
        }
      ],
      "name": "gettotalLoggedInDays",
      "outputs": [
        {
          "internalType": "uint256",
          "name": "",
          "type": "uint256"
        }
      ],
      "stateMutability": "view",
      "type": "function"
    },
    {
      "inputs": [
        {
          "internalType": "address",
          "name": "CompanyAddress",
          "type": "address"
        },
        {
          "internalType": "address",
          "name": "userAddress",
          "type": "address"
        }
      ],
      "name": "getIsLoggedInStatus",
      "outputs": [
        {
          "internalType": "bool",
          "name": "",
          "type": "bool"
        }
      ],
      "stateMutability": "view",
      "type": "function"
    },
    {
      "inputs": [
        {
          "internalType": "string",
          "name": "name",
          "type": "string"
        }
      ],
      "name": "registerCompany",
      "outputs": [],
      "stateMutability": "nonpayable",
      "type": "function"
    },
    {
      "inputs": [],
      "name": "addDeposit",
      "outputs": [],
      "stateMutability": "payable",
      "type": "function"
    },
    {
      "inputs": [],
      "name": "deleteCompany",
      "outputs": [],
      "stateMutability": "nonpayable",
      "type": "function"
    },
    {
      "inputs": [
        {
          "internalType": "address",
          "name": "walletAddress",
          "type": "address"
        },
        {
          "internalType": "bytes32",
          "name": "passwordHash",
          "type": "bytes32"
        }
      ],
      "name": "registerUser",
      "outputs": [],
      "stateMutability": "nonpayable",
      "type": "function"
    },
    {
      "inputs": [],
      "name": "getCompanyDeposit",
      "outputs": [
        {
          "internalType": "uint256",
          "name": "",
          "type": "uint256"
        }
      ],
      "stateMutability": "view",
      "type": "function"
    },
    {
      "inputs": [
        {
          "internalType": "address",
          "name": "walletAddress",
          "type": "address"
        }
      ],
      "name": "lastLoginTime",
      "outputs": [
        {
          "internalType": "uint256",
          "name": "",
          "type": "uint256"
        }
      ],
      "stateMutability": "view",
      "type": "function"
    },
    {
      "inputs": [
        {
          "internalType": "address",
          "name": "walletAddress",
          "type": "address"
        }
      ],
      "name": "logoutUser",
      "outputs": [],
      "stateMutability": "nonpayable",
      "type": "function"
    }
  ],
  "bytecode": "0x608060405234801561001057600080fd5b5061302e806100206000396000f3fe60806040526004361061009b5760003560e01c80635045499c116100645780635045499c14610176578063b4bcca031461018d578063c89f883e146101ca578063cc6911b614610207578063d7e0b6e314610232578063f7a049031461025b5761009b565b8062544194146100a057806309df5060146100c957806319abc6a8146100f25780633f3c2ad21461012f5780634a58db191461016c575b600080fd5b3480156100ac57600080fd5b506100c760048036038101906100c29190612222565b610284565b005b3480156100d557600080fd5b506100f060048036038101906100eb91906122c9565b610433565b005b3480156100fe57600080fd5b50610119600480360381019061011491906122f6565b6104d9565b604051610126919061234f565b60405180910390f35b34801561013b57600080fd5b50610156600480360381019061015191906122c9565b610758565b6040516101639190612385565b60405180910390f35b6101746109df565b005b34801561018257600080fd5b5061018b610b5c565b005b34801561019957600080fd5b506101b460048036038101906101af91906122c9565b610d2d565b6040516101c1919061234f565b60405180910390f35b3480156101d657600080fd5b506101f160048036038101906101ec91906122f6565b610f63565b6040516101fe9190612385565b60405180910390f35b34801561021357600080fd5b5061021c6111ef565b604051610229919061234f565b60405180910390f35b34801561023e57600080fd5b50610259600480360381019061025491906123d6565b6112c9565b005b34801561026757600080fd5b50610282600480360381019061027d91906123d6565b6116cf565b005b60008151116102c8576040517f08c379a00000000000000000000000000000000000000000000000000000000081526004016102bf90612473565b60405180910390fd5b6000600160003373ffffffffffffffffffffffffffffffffffffffff1673ffffffffffffffffffffffffffffffffffffffff1681526020019081526020016000206000018054610317906124c2565b905014610359576040517f08c379a00000000000000000000000000000000000000000000000000000000081526004016103509061253f565b60405180910390fd5b6040518060600160405280828152602001600081526020016000815250600160003373ffffffffffffffffffffffffffffffffffffffff1673ffffffffffffffffffffffffffffffffffffffff16815260200190815260200160002060008201518160000190816103ca9190612716565b5060208201518160010155604082015181600201559050503373ffffffffffffffffffffffffffffffffffffffff167f76686aa361308f4a08557cca1a847299ce61e5602a3495cd359a599a1dca438c82604051610428919061284b565b60405180910390a250565b61043c81610758565b61047b576040517f08c379a0000000000000000000000000000000000000000000000000000000008152600401610472906128b9565b60405180910390fd5b6000600260008373ffffffffffffffffffffffffffffffffffffffff1673ffffffffffffffffffffffffffffffffffffffff16815260200190815260200160002060050160006101000a81548160ff02191690831515021790555050565b600080600160008573ffffffffffffffffffffffffffffffffffffffff1673ffffffffffffffffffffffffffffffffffffffff1681526020019081526020016000206000018054610529906124c2565b90501161056b576040517f08c379a000000000000000000000000000000000000000000000000000000000815260040161056290612925565b60405180910390fd5b662386f26fc10000600160003373ffffffffffffffffffffffffffffffffffffffff1673ffffffffffffffffffffffffffffffffffffffff16815260200190815260200160002060010154116105f6576040517f08c379a00000000000000000000000000000000000000000000000000000000081526004016105ed90612991565b60405180910390fd5b8273ffffffffffffffffffffffffffffffffffffffff166000808473ffffffffffffffffffffffffffffffffffffffff1673ffffffffffffffffffffffffffffffffffffffff16815260200190815260200160002060000160009054906101000a900473ffffffffffffffffffffffffffffffffffffffff1673ffffffffffffffffffffffffffffffffffffffff16146106c5576040517f08c379a00000000000000000000000000000000000000000000000000000000081526004016106bc90612a23565b60405180910390fd5b6106ce82610758565b61070d576040517f08c379a000000000000000000000000000000000000000000000000000000000815260040161070490612a8f565b60405180910390fd5b600260008373ffffffffffffffffffffffffffffffffffffffff1673ffffffffffffffffffffffffffffffffffffffff16815260200190815260200160002060040154905092915050565b600080600160003373ffffffffffffffffffffffffffffffffffffffff1673ffffffffffffffffffffffffffffffffffffffff16815260200190815260200160002060000180546107a8906124c2565b9050116107ea576040517f08c379a00000000000000000000000000000000000000000000000000000000081526004016107e190612925565b60405180910390fd5b662386f26fc10000600160003373ffffffffffffffffffffffffffffffffffffffff1673ffffffffffffffffffffffffffffffffffffffff1681526020019081526020016000206001015411610875576040517f08c379a000000000000000000000000000000000000000000000000000000000815260040161086c90612991565b60405180910390fd5b3373ffffffffffffffffffffffffffffffffffffffff166000808473ffffffffffffffffffffffffffffffffffffffff1673ffffffffffffffffffffffffffffffffffffffff16815260200190815260200160002060000160009054906101000a900473ffffffffffffffffffffffffffffffffffffffff1673ffffffffffffffffffffffffffffffffffffffff1614610944576040517f08c379a000000000000000000000000000000000000000000000000000000000815260040161093b90612b21565b60405180910390fd5b8173ffffffffffffffffffffffffffffffffffffffff16600260008473ffffffffffffffffffffffffffffffffffffffff1673ffffffffffffffffffffffffffffffffffffffff16815260200190815260200160002060000160010160009054906101000a900473ffffffffffffffffffffffffffffffffffffffff1673ffffffffffffffffffffffffffffffffffffffff16149050919050565b6000600160003373ffffffffffffffffffffffffffffffffffffffff1673ffffffffffffffffffffffffffffffffffffffff1681526020019081526020016000206000018054610a2e906124c2565b905011610a70576040517f08c379a0000000000000000000000000000000000000000000000000000000008152600401610a6790612925565b60405180910390fd5b60003411610ab3576040517f08c379a0000000000000000000000000000000000000000000000000000000008152600401610aaa90612b8d565b60405180910390fd5b34600160003373ffffffffffffffffffffffffffffffffffffffff1673ffffffffffffffffffffffffffffffffffffffff1681526020019081526020016000206001016000828254610b059190612bdc565b925050819055503373ffffffffffffffffffffffffffffffffffffffff167fa2a2db73af12c9f5bef6303364d44e78f97e992c353cd8659f3474c471427e9b34604051610b52919061234f565b60405180910390a2565b6000600160003373ffffffffffffffffffffffffffffffffffffffff1673ffffffffffffffffffffffffffffffffffffffff1681526020019081526020016000206000018054610bab906124c2565b905011610bed576040517f08c379a0000000000000000000000000000000000000000000000000000000008152600401610be490612925565b60405180910390fd5b6000600160003373ffffffffffffffffffffffffffffffffffffffff1673ffffffffffffffffffffffffffffffffffffffff168152602001908152602001600020600101549050600160003373ffffffffffffffffffffffffffffffffffffffff1673ffffffffffffffffffffffffffffffffffffffff16815260200190815260200160002060008082016000610c84919061206b565b6001820160009055600282016000905550503373ffffffffffffffffffffffffffffffffffffffff167f2564dc12f5c7d4be57c9d0417c313a76d08624ac131a3772f9abeedff476161160405160405180910390a26000811115610d2a573373ffffffffffffffffffffffffffffffffffffffff166108fc829081150290604051600060405180830381858888f19350505050158015610d28573d6000803e3d6000fd5b505b50565b600080600160003373ffffffffffffffffffffffffffffffffffffffff1673ffffffffffffffffffffffffffffffffffffffff1681526020019081526020016000206000018054610d7d906124c2565b905011610dbf576040517f08c379a0000000000000000000000000000000000000000000000000000000008152600401610db690612925565b60405180910390fd5b662386f26fc10000600160003373ffffffffffffffffffffffffffffffffffffffff1673ffffffffffffffffffffffffffffffffffffffff1681526020019081526020016000206001015411610e4a576040517f08c379a0000000000000000000000000000000000000000000000000000000008152600401610e4190612991565b60405180910390fd5b3373ffffffffffffffffffffffffffffffffffffffff166000808473ffffffffffffffffffffffffffffffffffffffff1673ffffffffffffffffffffffffffffffffffffffff16815260200190815260200160002060000160009054906101000a900473ffffffffffffffffffffffffffffffffffffffff1673ffffffffffffffffffffffffffffffffffffffff1614610f19576040517f08c379a0000000000000000000000000000000000000000000000000000000008152600401610f1090612b21565b60405180910390fd5b600260008373ffffffffffffffffffffffffffffffffffffffff1673ffffffffffffffffffffffffffffffffffffffff168152602001908152602001600020600301549050919050565b600080600160008573ffffffffffffffffffffffffffffffffffffffff1673ffffffffffffffffffffffffffffffffffffffff1681526020019081526020016000206000018054610fb3906124c2565b905011610ff5576040517f08c379a0000000000000000000000000000000000000000000000000000000008152600401610fec90612925565b60405180910390fd5b662386f26fc10000600160008573ffffffffffffffffffffffffffffffffffffffff1673ffffffffffffffffffffffffffffffffffffffff1681526020019081526020016000206001015411611080576040517f08c379a000000000000000000000000000000000000000000000000000000000815260040161107790612991565b60405180910390fd5b8273ffffffffffffffffffffffffffffffffffffffff166000808473ffffffffffffffffffffffffffffffffffffffff1673ffffffffffffffffffffffffffffffffffffffff16815260200190815260200160002060000160009054906101000a900473ffffffffffffffffffffffffffffffffffffffff1673ffffffffffffffffffffffffffffffffffffffff161461114f576040517f08c379a000000000000000000000000000000000000000000000000000000000815260040161114690612a23565b60405180910390fd5b61115882610758565b611197576040517f08c379a000000000000000000000000000000000000000000000000000000000815260040161118e90612a8f565b60405180910390fd5b600260008373ffffffffffffffffffffffffffffffffffffffff1673ffffffffffffffffffffffffffffffffffffffff16815260200190815260200160002060050160009054906101000a900460ff16905092915050565b600080600160003373ffffffffffffffffffffffffffffffffffffffff1673ffffffffffffffffffffffffffffffffffffffff168152602001908152602001600020600001805461123f906124c2565b905011611281576040517f08c379a000000000000000000000000000000000000000000000000000000000815260040161127890612925565b60405180910390fd5b600160003373ffffffffffffffffffffffffffffffffffffffff1673ffffffffffffffffffffffffffffffffffffffff16815260200190815260200160002060010154905090565b6000801b810361130e576040517f08c379a000000000000000000000000000000000000000000000000000000000815260040161130590612c5c565b60405180910390fd5b6000600160003373ffffffffffffffffffffffffffffffffffffffff1673ffffffffffffffffffffffffffffffffffffffff168152602001908152602001600020600001805461135d906124c2565b90501161139f576040517f08c379a000000000000000000000000000000000000000000000000000000000815260040161139690612cee565b60405180910390fd5b662386f26fc10000600160003373ffffffffffffffffffffffffffffffffffffffff1673ffffffffffffffffffffffffffffffffffffffff168152602001908152602001600020600101541161142a576040517f08c379a000000000000000000000000000000000000000000000000000000000815260040161142190612991565b60405180910390fd5b8173ffffffffffffffffffffffffffffffffffffffff166000808473ffffffffffffffffffffffffffffffffffffffff1673ffffffffffffffffffffffffffffffffffffffff16815260200190815260200160002060010160009054906101000a900473ffffffffffffffffffffffffffffffffffffffff1673ffffffffffffffffffffffffffffffffffffffff16036114f9576040517f08c379a00000000000000000000000000000000000000000000000000000000081526004016114f090612d5a565b60405180910390fd5b60405180606001604052803373ffffffffffffffffffffffffffffffffffffffff1681526020018373ffffffffffffffffffffffffffffffffffffffff168152602001828152506000808473ffffffffffffffffffffffffffffffffffffffff1673ffffffffffffffffffffffffffffffffffffffff16815260200190815260200160002060008201518160000160006101000a81548173ffffffffffffffffffffffffffffffffffffffff021916908373ffffffffffffffffffffffffffffffffffffffff16021790555060208201518160010160006101000a81548173ffffffffffffffffffffffffffffffffffffffff021916908373ffffffffffffffffffffffffffffffffffffffff16021790555060408201518160020155905050600160003373ffffffffffffffffffffffffffffffffffffffff1673ffffffffffffffffffffffffffffffffffffffff168152602001908152602001600020600201600081548092919061166c90612d7a565b91905055508173ffffffffffffffffffffffffffffffffffffffff163373ffffffffffffffffffffffffffffffffffffffff167f2138b9314634f9fdd5e49bee3eaf17ca557b6637524d0db759711c3bfcd3d85060405160405180910390a35050565b6000600160003373ffffffffffffffffffffffffffffffffffffffff1673ffffffffffffffffffffffffffffffffffffffff168152602001908152602001600020600001805461171e906124c2565b905011611760576040517f08c379a000000000000000000000000000000000000000000000000000000000815260040161175790612925565b60405180910390fd5b662386f26fc10000600160003373ffffffffffffffffffffffffffffffffffffffff1673ffffffffffffffffffffffffffffffffffffffff16815260200190815260200160002060010154116117eb576040517f08c379a00000000000000000000000000000000000000000000000000000000081526004016117e290612991565b60405180910390fd5b3373ffffffffffffffffffffffffffffffffffffffff166000808473ffffffffffffffffffffffffffffffffffffffff1673ffffffffffffffffffffffffffffffffffffffff16815260200190815260200160002060000160009054906101000a900473ffffffffffffffffffffffffffffffffffffffff1673ffffffffffffffffffffffffffffffffffffffff16146118ba576040517f08c379a00000000000000000000000000000000000000000000000000000000081526004016118b190612b21565b60405180910390fd5b6000801b81036118ff576040517f08c379a00000000000000000000000000000000000000000000000000000000081526004016118f690612c5c565b60405180910390fd5b806000808473ffffffffffffffffffffffffffffffffffffffff1673ffffffffffffffffffffffffffffffffffffffff1681526020019081526020016000206002015414611982576040517f08c379a000000000000000000000000000000000000000000000000000000000815260040161197990612e0e565b60405180910390fd5b61198b82610758565b15611b1e57600062015180426119a19190612e5d565b9050600062015180600260008673ffffffffffffffffffffffffffffffffffffffff1673ffffffffffffffffffffffffffffffffffffffff168152602001908152602001600020600301546119f69190612e5d565b905080821115611b175760018183611a0e9190612e8e565b03611a72576001600260008673ffffffffffffffffffffffffffffffffffffffff1673ffffffffffffffffffffffffffffffffffffffff1681526020019081526020016000206004016000828254611a669190612bdc565b92505081905550611acf565b60028183611a809190612e8e565b10611ace576001600260008673ffffffffffffffffffffffffffffffffffffffff1673ffffffffffffffffffffffffffffffffffffffff168152602001908152602001600020600401819055505b5b42600260008673ffffffffffffffffffffffffffffffffffffffff1673ffffffffffffffffffffffffffffffffffffffff168152602001908152602001600020600301819055505b5050611de0565b60008060008473ffffffffffffffffffffffffffffffffffffffff1673ffffffffffffffffffffffffffffffffffffffff1681526020019081526020016000206040518060600160405290816000820160009054906101000a900473ffffffffffffffffffffffffffffffffffffffff1673ffffffffffffffffffffffffffffffffffffffff1673ffffffffffffffffffffffffffffffffffffffff1681526020016001820160009054906101000a900473ffffffffffffffffffffffffffffffffffffffff1673ffffffffffffffffffffffffffffffffffffffff1673ffffffffffffffffffffffffffffffffffffffff168152602001600282015481525050905060405180608001604052808281526020014281526020016001815260200160011515815250600260008573ffffffffffffffffffffffffffffffffffffffff1673ffffffffffffffffffffffffffffffffffffffff16815260200190815260200160002060008201518160000160008201518160000160006101000a81548173ffffffffffffffffffffffffffffffffffffffff021916908373ffffffffffffffffffffffffffffffffffffffff16021790555060208201518160010160006101000a81548173ffffffffffffffffffffffffffffffffffffffff021916908373ffffffffffffffffffffffffffffffffffffffff160217905550604082015181600201555050602082015181600301556040820151816004015560608201518160050160006101000a81548160ff0219169083151502179055509050506000808473ffffffffffffffffffffffffffffffffffffffff1673ffffffffffffffffffffffffffffffffffffffff168152602001908152602001600020604051611daa9190612fdd565b60405180910390207fc3e258c2735e50ca59d445076e61f3e568466d65196515d5fa3cef1518fff1da60405160405180910390a2505b6007600260008473ffffffffffffffffffffffffffffffffffffffff1673ffffffffffffffffffffffffffffffffffffffff1681526020019081526020016000206004015403612067576000600160003373ffffffffffffffffffffffffffffffffffffffff1673ffffffffffffffffffffffffffffffffffffffff16815260200190815260200160002060020154600160003373ffffffffffffffffffffffffffffffffffffffff1673ffffffffffffffffffffffffffffffffffffffff16815260200190815260200160002060010154611ebc9190612e5d565b9050600260008473ffffffffffffffffffffffffffffffffffffffff1673ffffffffffffffffffffffffffffffffffffffff16815260200190815260200160002060000160010160009054906101000a900473ffffffffffffffffffffffffffffffffffffffff1673ffffffffffffffffffffffffffffffffffffffff166108fc829081150290604051600060405180830381858888f19350505050158015611f69573d6000803e3d6000fd5b50600260008473ffffffffffffffffffffffffffffffffffffffff1673ffffffffffffffffffffffffffffffffffffffff16815260200190815260200160002060000160010160009054906101000a900473ffffffffffffffffffffffffffffffffffffffff1673ffffffffffffffffffffffffffffffffffffffff167fe366ef68d2c0620e9e4c5074fd7ad0ce6739b65287f9c2d09b7d002da556879b82604051612015919061234f565b60405180910390a26000600260008573ffffffffffffffffffffffffffffffffffffffff1673ffffffffffffffffffffffffffffffffffffffff16815260200190815260200160002060040181905550505b5050565b508054612077906124c2565b6000825580601f1061208957506120a8565b601f0160209004906000526020600020908101906120a791906120ab565b5b50565b5b808211156120c45760008160009055506001016120ac565b5090565b6000604051905090565b600080fd5b600080fd5b600080fd5b600080fd5b6000601f19601f8301169050919050565b7f4e487b7100000000000000000000000000000000000000000000000000000000600052604160045260246000fd5b61212f826120e6565b810181811067ffffffffffffffff8211171561214e5761214d6120f7565b5b80604052505050565b60006121616120c8565b905061216d8282612126565b919050565b600067ffffffffffffffff82111561218d5761218c6120f7565b5b612196826120e6565b9050602081019050919050565b82818337600083830152505050565b60006121c56121c084612172565b612157565b9050828152602081018484840111156121e1576121e06120e1565b5b6121ec8482856121a3565b509392505050565b600082601f830112612209576122086120dc565b5b81356122198482602086016121b2565b91505092915050565b600060208284031215612238576122376120d2565b5b600082013567ffffffffffffffff811115612256576122556120d7565b5b612262848285016121f4565b91505092915050565b600073ffffffffffffffffffffffffffffffffffffffff82169050919050565b60006122968261226b565b9050919050565b6122a68161228b565b81146122b157600080fd5b50565b6000813590506122c38161229d565b92915050565b6000602082840312156122df576122de6120d2565b5b60006122ed848285016122b4565b91505092915050565b6000806040838503121561230d5761230c6120d2565b5b600061231b858286016122b4565b925050602061232c858286016122b4565b9150509250929050565b6000819050919050565b61234981612336565b82525050565b60006020820190506123646000830184612340565b92915050565b60008115159050919050565b61237f8161236a565b82525050565b600060208201905061239a6000830184612376565b92915050565b6000819050919050565b6123b3816123a0565b81146123be57600080fd5b50565b6000813590506123d0816123aa565b92915050565b600080604083850312156123ed576123ec6120d2565b5b60006123fb858286016122b4565b925050602061240c858286016123c1565b9150509250929050565b600082825260208201905092915050565b7f436f6d70616e79206e616d652063616e6e6f7420626520656d70747900000000600082015250565b600061245d601c83612416565b915061246882612427565b602082019050919050565b6000602082019050818103600083015261248c81612450565b9050919050565b7f4e487b7100000000000000000000000000000000000000000000000000000000600052602260045260246000fd5b600060028204905060018216806124da57607f821691505b6020821081036124ed576124ec612493565b5b50919050565b7f436f6d70616e7920616c72656164792072656769737465726564000000000000600082015250565b6000612529601a83612416565b9150612534826124f3565b602082019050919050565b600060208201905081810360008301526125588161251c565b9050919050565b600081519050919050565b60008190508160005260206000209050919050565b60006020601f8301049050919050565b600082821b905092915050565b6000600883026125cc7fffffffffffffffffffffffffffffffffffffffffffffffffffffffffffffffff8261258f565b6125d6868361258f565b95508019841693508086168417925050509392505050565b6000819050919050565b600061261361260e61260984612336565b6125ee565b612336565b9050919050565b6000819050919050565b61262d836125f8565b6126416126398261261a565b84845461259c565b825550505050565b600090565b612656612649565b612661818484612624565b505050565b5b818110156126855761267a60008261264e565b600181019050612667565b5050565b601f8211156126ca5761269b8161256a565b6126a48461257f565b810160208510156126b3578190505b6126c76126bf8561257f565b830182612666565b50505b505050565b600082821c905092915050565b60006126ed600019846008026126cf565b1980831691505092915050565b600061270683836126dc565b9150826002028217905092915050565b61271f8261255f565b67ffffffffffffffff811115612738576127376120f7565b5b61274282546124c2565b61274d828285612689565b600060209050601f831160018114612780576000841561276e578287015190505b61277885826126fa565b8655506127e0565b601f19841661278e8661256a565b60005b828110156127b657848901518255600182019150602085019450602081019050612791565b868310156127d357848901516127cf601f8916826126dc565b8355505b6001600288020188555050505b505050505050565b60005b838110156128065780820151818401526020810190506127eb565b60008484015250505050565b600061281d8261255f565b6128278185612416565b93506128378185602086016127e8565b612840816120e6565b840191505092915050565b600060208201905081810360008301526128658184612812565b905092915050565b7f55736572206973206e6f742063757272656e746c79206c6f6767656420696e00600082015250565b60006128a3601f83612416565b91506128ae8261286d565b602082019050919050565b600060208201905081810360008301526128d281612896565b9050919050565b7f436f6d70616e79206e6f74207265676973746572656400000000000000000000600082015250565b600061290f601683612416565b915061291a826128d9565b602082019050919050565b6000602082019050818103600083015261293e81612902565b9050919050565b7f4465706f73697420736f6d652045544820666972737400000000000000000000600082015250565b600061297b601683612416565b915061298682612945565b602082019050919050565b600060208201905081810360008301526129aa8161296e565b9050919050565b7f5573657220646f65736e27742065786973747320696e207468697320636f6d7060008201527f616e790000000000000000000000000000000000000000000000000000000000602082015250565b6000612a0d602383612416565b9150612a18826129b1565b604082019050919050565b60006020820190508181036000830152612a3c81612a00565b9050919050565b7f4c6f67696e2064657461696c20646f6573206e6f742065786973747300000000600082015250565b6000612a79601c83612416565b9150612a8482612a43565b602082019050919050565b60006020820190508181036000830152612aa881612a6c565b9050919050565b7f5573657220646f65736e27742062656c6f6e6720746f20796f757220636f6d7060008201527f616e790000000000000000000000000000000000000000000000000000000000602082015250565b6000612b0b602383612416565b9150612b1682612aaf565b604082019050919050565b60006020820190508181036000830152612b3a81612afe565b9050919050565b7f56616c75652063616e6e6f74206265206c657373207468616e20300000000000600082015250565b6000612b77601b83612416565b9150612b8282612b41565b602082019050919050565b60006020820190508181036000830152612ba681612b6a565b9050919050565b7f4e487b7100000000000000000000000000000000000000000000000000000000600052601160045260246000fd5b6000612be782612336565b9150612bf283612336565b9250828201905080821115612c0a57612c09612bad565b5b92915050565b7f496e76616c69642070617373776f726420686173680000000000000000000000600082015250565b6000612c46601583612416565b9150612c5182612c10565b602082019050919050565b60006020820190508181036000830152612c7581612c39565b9050919050565b7f4f6e6c7920436f6d70616e6965732063616e207265676973746572207468656960008201527f7220757365727300000000000000000000000000000000000000000000000000602082015250565b6000612cd8602783612416565b9150612ce382612c7c565b604082019050919050565b60006020820190508181036000830152612d0781612ccb565b9050919050565b7f5573657220616c72656164792072656769737465726564000000000000000000600082015250565b6000612d44601783612416565b9150612d4f82612d0e565b602082019050919050565b60006020820190508181036000830152612d7381612d37565b9050919050565b6000612d8582612336565b91507fffffffffffffffffffffffffffffffffffffffffffffffffffffffffffffffff8203612db757612db6612bad565b5b600182019050919050565b7f496e636f72726563742070617373776f72640000000000000000000000000000600082015250565b6000612df8601283612416565b9150612e0382612dc2565b602082019050919050565b60006020820190508181036000830152612e2781612deb565b9050919050565b7f4e487b7100000000000000000000000000000000000000000000000000000000600052601260045260246000fd5b6000612e6882612336565b9150612e7383612336565b925082612e8357612e82612e2e565b5b828204905092915050565b6000612e9982612336565b9150612ea483612336565b9250828203905081811115612ebc57612ebb612bad565b5b92915050565b60008160001c9050919050565b600073ffffffffffffffffffffffffffffffffffffffff82169050919050565b6000612f02612efd83612ec2565b612ecf565b9050919050565b612f128161228b565b82525050565b6000612f248383612f09565b60208301905092915050565b6000819050919050565b6000612f4d612f4883612ec2565b612f30565b9050919050565b612f5d816123a0565b82525050565b6000612f6f8383612f54565b60208301905092915050565b600082016000808301549050612f9081612eef565b612f9a8582612f18565b94505060018301549050612fad81612eef565b612fb78582612f18565b94505060028301549050612fca81612f3a565b612fd48582612f63565b94505050505050565b6000612fe98284612f7b565b6060820191508190509291505056fea2646970667358221220e0021620f0e58e70757a8013708f4ec9e3471126f885d931ea2f6b5457a5091e64736f6c63430008130033",
  "immutableReferences": {},
  "source": "// SPDX-License-Identifier: MIT\npragma solidity ^0.8.0;\n\ncontract CompanyRegistry {\n    struct User {\n        address company;\n        address walletAddress;\n        bytes32 passwordHash;\n    }\n    struct Company {\n        string name;\n        uint256 deposit;\n        uint256 totalUsers;\n    }\n\n    struct Login {\n        User user;\n        uint256 lastLoginTime;\n        uint256 totalLoggedInDays;\n        bool isLoggedIn;\n    }\n    mapping(address => User) private userMap;\n    mapping(address => Company) private companies;\n    mapping(address => Login) private LoginDetails;\n\n    event CompanyRegistered(address indexed companyAddress, string name);\n    event DepositAdded(address indexed companyAddress, uint256 amount);\n    event CompanyDeleted(address indexed companyAddress);\n    event UserLoggedIn(User indexed user);\n    event UserRewarded(address indexed userAddress, uint256 amount);\n    event UserRegistered(\n        address indexed companyAddress,\n        address indexed userAddress\n    );\n\n    function doesLoginExist(address walletAddress) public view returns (bool) {\n        require(\n            bytes(companies[msg.sender].name).length > 0,\n            \"Company not registered\"\n        );\n        require(\n            companies[msg.sender].deposit > 10000000000000000 wei,\n            \"Deposit some ETH first\"\n        );\n        require(\n            userMap[walletAddress].company == msg.sender,\n            \"User doesn't belong to your company\"\n        );\n\n        return LoginDetails[walletAddress].user.walletAddress == walletAddress;\n    }\n\n    function loginUser(address walletAddress, bytes32 passwordHash) public {\n        require(\n            bytes(companies[msg.sender].name).length > 0,\n            \"Company not registered\"\n        );\n        require(\n            companies[msg.sender].deposit > 10000000000000000 wei,\n            \"Deposit some ETH first\"\n        );\n        require(\n            userMap[walletAddress].company == msg.sender,\n            \"User doesn't belong to your company\"\n        );\n        require(passwordHash != 0, \"Invalid password hash\");\n        require(\n            userMap[walletAddress].passwordHash == passwordHash,\n            \"Incorrect password\"\n        );\n        if (doesLoginExist(walletAddress)) {\n            uint256 currentDay = block.timestamp / 1 days;\n            uint256 lastLoginDay = LoginDetails[walletAddress].lastLoginTime /\n                1 days;\n            if (currentDay > lastLoginDay) {\n                if (currentDay - lastLoginDay == 1) {\n                    LoginDetails[walletAddress].totalLoggedInDays += 1;\n                } else if (currentDay - lastLoginDay >= 2) {\n                    LoginDetails[walletAddress].totalLoggedInDays = 1;\n                }\n              LoginDetails[walletAddress].lastLoginTime=block.timestamp;\n            }\n        } else {\n            User memory userInfo = userMap[walletAddress];\n            LoginDetails[walletAddress] = Login({\n                user: userInfo,\n                lastLoginTime: block.timestamp,\n                totalLoggedInDays: 1,\n                isLoggedIn: true\n            });\n            emit UserLoggedIn(userMap[walletAddress]);\n        }\n        if (LoginDetails[walletAddress].totalLoggedInDays == 7) {\n            // reward user with ETH\n            uint256 rewardAmount = companies[msg.sender].deposit /\n                companies[msg.sender].totalUsers;\n            payable(LoginDetails[walletAddress].user.walletAddress).transfer(\n                rewardAmount\n            );\n            emit UserRewarded(\n                LoginDetails[walletAddress].user.walletAddress,\n                rewardAmount\n            );\n            // reset totalLoggedInDays\n            LoginDetails[walletAddress].totalLoggedInDays = 0;\n        }\n    }\n\n    // function checkForRewards() public {}\n    function gettotalLoggedInDays(address CompanyAddress, address userAddress)\n        public\n        view\n        returns (uint256)\n    {\n        require(\n            bytes(companies[CompanyAddress].name).length > 0,\n            \"Company not registered\"\n        );\n        require(\n            companies[msg.sender].deposit > 10000000000000000 wei,\n            \"Deposit some ETH first\"\n        );\n        require(\n            userMap[userAddress].company == CompanyAddress,\n            \"User doesn't exists in this company\"\n        );\n        require(doesLoginExist(userAddress), \"Login detail does not exists\");\n        return LoginDetails[userAddress].totalLoggedInDays;\n    }\n\n    function getIsLoggedInStatus(address CompanyAddress, address userAddress)\n        public\n        view\n        returns (bool)\n    {\n        require(\n            bytes(companies[CompanyAddress].name).length > 0,\n            \"Company not registered\"\n        );\n        require(\n            companies[CompanyAddress].deposit > 10000000000000000 wei,\n            \"Deposit some ETH first\"\n        );\n\n        require(\n            userMap[userAddress].company == CompanyAddress,\n            \"User doesn't exists in this company\"\n        );\n        require(doesLoginExist(userAddress), \"Login detail does not exists\");\n        return LoginDetails[userAddress].isLoggedIn;\n    }\n\n    function registerCompany(string memory name) public {\n        require(bytes(name).length > 0, \"Company name cannot be empty\");\n        require(\n            bytes(companies[msg.sender].name).length == 0,\n            \"Company already registered\"\n        );\n        companies[msg.sender] = Company(name, 0, 0);\n        emit CompanyRegistered(msg.sender, name);\n    }\n\n    function addDeposit() public payable {\n        require(\n            bytes(companies[msg.sender].name).length > 0,\n            \"Company not registered\"\n        );\n        require(msg.value > 0, \"Value cannot be less than 0\");\n        companies[msg.sender].deposit += msg.value;\n        emit DepositAdded(msg.sender, msg.value);\n    }\n\n    function deleteCompany() public {\n        require(\n            bytes(companies[msg.sender].name).length > 0,\n            \"Company not registered\"\n        );\n        uint256 balance = companies[msg.sender].deposit;\n        delete companies[msg.sender];\n        emit CompanyDeleted(msg.sender);\n        if (balance > 0) {\n            payable(msg.sender).transfer(balance);\n        }\n    }\n\n    function registerUser(address walletAddress, bytes32 passwordHash) public {\n        require(passwordHash != 0, \"Invalid password hash\");\n        require(\n            bytes(companies[msg.sender].name).length > 0,\n            \"Only Companies can register their users\"\n        );\n        require(\n            companies[msg.sender].deposit > 10000000000000000 wei,\n            \"Deposit some ETH first\"\n        );\n        require(\n            userMap[walletAddress].walletAddress != walletAddress,\n            \"User already registered\"\n        );\n\n        userMap[walletAddress] = User(msg.sender, walletAddress, passwordHash);\n        companies[msg.sender].totalUsers++;\n        emit UserRegistered(msg.sender, walletAddress);\n    }\n\n    function getCompanyDeposit() public view returns (uint256) {\n        require(\n            bytes(companies[msg.sender].name).length > 0,\n            \"Company not registered\"\n        );\n        return companies[msg.sender].deposit;\n    }\n\n    function lastLoginTime(address walletAddress)\n        public\n        view\n        returns (uint256)\n    {\n        require(\n            bytes(companies[msg.sender].name).length > 0,\n            \"Company not registered\"\n        );\n        require(\n            companies[msg.sender].deposit > 10000000000000000 wei,\n            \"Deposit some ETH first\"\n        );\n        require(\n            userMap[walletAddress].company == msg.sender,\n            \"User doesn't belong to your company\"\n        );\n\n        return (LoginDetails[walletAddress].lastLoginTime);\n    }\n\n    function logoutUser(address walletAddress) public {\n        require(\n            doesLoginExist(walletAddress),\n            \"User is not currently logged in\"\n        );\n        LoginDetails[walletAddress].isLoggedIn = false;\n    }\n}\n",
  "sourcePath": "D:\\Final Year Project\\Blockchain-based-incentivized-auth-system\\blockchain\\contracts\\CompanyRegistry.sol",
  "compiler": {
    "name": "solc",
    "version": "0.8.19+commit.7dd6d404.Emscripten.clang"
  },
  "schemaVersion": "3.4.13",
  "updatedAt": "2023-05-19T08:47:23.389Z",
  "devdoc": {
    "kind": "dev",
    "methods": {},
    "version": 1
  },
  "userdoc": {
    "kind": "user",
    "methods": {},
    "version": 1
  }
}