{
  "contractName": "CompanyRegistry",
  "abi": [
    {
      "anonymous": false,
      "inputs": [
        {
          "indexed": true,
          "internalType": "address",
          "name": "companyAddress",
          "type": "address"
        }
      ],
      "name": "CompanyDeleted",
      "type": "event"
    },
    {
      "anonymous": false,
      "inputs": [
        {
          "indexed": true,
          "internalType": "address",
          "name": "companyAddress",
          "type": "address"
        },
        {
          "indexed": false,
          "internalType": "string",
          "name": "name",
          "type": "string"
        }
      ],
      "name": "CompanyRegistered",
      "type": "event"
    },
    {
      "anonymous": false,
      "inputs": [
        {
          "indexed": true,
          "internalType": "address",
          "name": "companyAddress",
          "type": "address"
        },
        {
          "indexed": false,
          "internalType": "uint256",
          "name": "amount",
          "type": "uint256"
        }
      ],
      "name": "DepositAdded",
      "type": "event"
    },
    {
      "anonymous": false,
      "inputs": [
        {
          "components": [
            {
              "internalType": "address",
              "name": "company",
              "type": "address"
            },
            {
              "internalType": "address",
              "name": "walletAddress",
              "type": "address"
            },
            {
              "internalType": "bytes32",
              "name": "passwordHash",
              "type": "bytes32"
            }
          ],
          "indexed": true,
          "internalType": "struct CompanyRegistry.User",
          "name": "user",
          "type": "tuple"
        }
      ],
      "name": "UserLoggedIn",
      "type": "event"
    },
    {
      "anonymous": false,
      "inputs": [
        {
          "indexed": true,
          "internalType": "address",
          "name": "companyAddress",
          "type": "address"
        },
        {
          "indexed": true,
          "internalType": "address",
          "name": "userAddress",
          "type": "address"
        }
      ],
      "name": "UserRegistered",
      "type": "event"
    },
    {
      "anonymous": false,
      "inputs": [
        {
          "indexed": true,
          "internalType": "address",
          "name": "userAddress",
          "type": "address"
        },
        {
          "indexed": false,
          "internalType": "uint256",
          "name": "amount",
          "type": "uint256"
        }
      ],
      "name": "UserRewarded",
      "type": "event"
    },
    {
      "inputs": [
        {
          "internalType": "address",
          "name": "walletAddress",
          "type": "address"
        }
      ],
      "name": "doesLoginExist",
      "outputs": [
        {
          "internalType": "bool",
          "name": "",
          "type": "bool"
        }
      ],
      "stateMutability": "view",
      "type": "function"
    },
    {
      "inputs": [
        {
          "internalType": "address",
          "name": "walletAddress",
          "type": "address"
        },
        {
          "internalType": "bytes32",
          "name": "passwordHash",
          "type": "bytes32"
        }
      ],
      "name": "loginUser",
      "outputs": [],
      "stateMutability": "nonpayable",
      "type": "function"
    },
    {
      "inputs": [
        {
          "internalType": "address",
          "name": "CompanyAddress",
          "type": "address"
        },
        {
          "internalType": "address",
          "name": "userAddress",
          "type": "address"
        }
      ],
      "name": "gettotalLoggedInDays",
      "outputs": [
        {
          "internalType": "uint256",
          "name": "",
          "type": "uint256"
        }
      ],
      "stateMutability": "view",
      "type": "function"
    },
    {
      "inputs": [
        {
          "internalType": "address",
          "name": "CompanyAddress",
          "type": "address"
        },
        {
          "internalType": "address",
          "name": "userAddress",
          "type": "address"
        }
      ],
      "name": "getIsLoggedInStatus",
      "outputs": [
        {
          "internalType": "bool",
          "name": "",
          "type": "bool"
        }
      ],
      "stateMutability": "view",
      "type": "function"
    },
    {
      "inputs": [
        {
          "internalType": "string",
          "name": "name",
          "type": "string"
        }
      ],
      "name": "registerCompany",
      "outputs": [],
      "stateMutability": "nonpayable",
      "type": "function"
    },
    {
      "inputs": [],
      "name": "addDeposit",
      "outputs": [],
      "stateMutability": "payable",
      "type": "function"
    },
    {
      "inputs": [],
      "name": "deleteCompany",
      "outputs": [],
      "stateMutability": "nonpayable",
      "type": "function"
    },
    {
      "inputs": [
        {
          "internalType": "address",
          "name": "walletAddress",
          "type": "address"
        },
        {
          "internalType": "bytes32",
          "name": "passwordHash",
          "type": "bytes32"
        }
      ],
      "name": "registerUser",
      "outputs": [],
      "stateMutability": "nonpayable",
      "type": "function"
    },
    {
      "inputs": [],
      "name": "getCompanyDeposit",
      "outputs": [
        {
          "internalType": "uint256",
          "name": "",
          "type": "uint256"
        }
      ],
      "stateMutability": "view",
      "type": "function"
    },
    {
      "inputs": [
        {
          "internalType": "address",
          "name": "walletAddress",
          "type": "address"
        }
      ],
      "name": "lastLoginTime",
      "outputs": [
        {
          "internalType": "uint256",
          "name": "",
          "type": "uint256"
        }
      ],
      "stateMutability": "view",
      "type": "function"
    },
    {
      "inputs": [
        {
          "internalType": "address",
          "name": "walletAddress",
          "type": "address"
        }
      ],
      "name": "logoutUser",
      "outputs": [],
      "stateMutability": "nonpayable",
      "type": "function"
    }
  ],
  "bytecode": "0x608060405234801561001057600080fd5b50613089806100206000396000f3fe60806040526004361061009b5760003560e01c80635045499c116100645780635045499c14610176578063b4bcca031461018d578063c89f883e146101ca578063cc6911b614610207578063d7e0b6e314610232578063f7a049031461025b5761009b565b8062544194146100a057806309df5060146100c957806319abc6a8146100f25780633f3c2ad21461012f5780634a58db191461016c575b600080fd5b3480156100ac57600080fd5b506100c760048036038101906100c2919061227d565b610284565b005b3480156100d557600080fd5b506100f060048036038101906100eb9190612324565b610433565b005b3480156100fe57600080fd5b5061011960048036038101906101149190612351565b6104d9565b60405161012691906123aa565b60405180910390f35b34801561013b57600080fd5b5061015660048036038101906101519190612324565b610758565b60405161016391906123e0565b60405180910390f35b6101746109df565b005b34801561018257600080fd5b5061018b610b5c565b005b34801561019957600080fd5b506101b460048036038101906101af9190612324565b610d2d565b6040516101c191906123aa565b60405180910390f35b3480156101d657600080fd5b506101f160048036038101906101ec9190612351565b610f63565b6040516101fe91906123e0565b60405180910390f35b34801561021357600080fd5b5061021c6111ef565b60405161022991906123aa565b60405180910390f35b34801561023e57600080fd5b5061025960048036038101906102549190612431565b6112c9565b005b34801561026757600080fd5b50610282600480360381019061027d9190612431565b6116cf565b005b60008151116102c8576040517f08c379a00000000000000000000000000000000000000000000000000000000081526004016102bf906124ce565b60405180910390fd5b6000600160003373ffffffffffffffffffffffffffffffffffffffff1673ffffffffffffffffffffffffffffffffffffffff16815260200190815260200160002060000180546103179061251d565b905014610359576040517f08c379a00000000000000000000000000000000000000000000000000000000081526004016103509061259a565b60405180910390fd5b6040518060600160405280828152602001600081526020016000815250600160003373ffffffffffffffffffffffffffffffffffffffff1673ffffffffffffffffffffffffffffffffffffffff16815260200190815260200160002060008201518160000190816103ca9190612771565b5060208201518160010155604082015181600201559050503373ffffffffffffffffffffffffffffffffffffffff167f76686aa361308f4a08557cca1a847299ce61e5602a3495cd359a599a1dca438c8260405161042891906128a6565b60405180910390a250565b61043c81610758565b61047b576040517f08c379a000000000000000000000000000000000000000000000000000000000815260040161047290612914565b60405180910390fd5b6000600260008373ffffffffffffffffffffffffffffffffffffffff1673ffffffffffffffffffffffffffffffffffffffff16815260200190815260200160002060050160006101000a81548160ff02191690831515021790555050565b600080600160008573ffffffffffffffffffffffffffffffffffffffff1673ffffffffffffffffffffffffffffffffffffffff16815260200190815260200160002060000180546105299061251d565b90501161056b576040517f08c379a000000000000000000000000000000000000000000000000000000000815260040161056290612980565b60405180910390fd5b662386f26fc10000600160003373ffffffffffffffffffffffffffffffffffffffff1673ffffffffffffffffffffffffffffffffffffffff16815260200190815260200160002060010154116105f6576040517f08c379a00000000000000000000000000000000000000000000000000000000081526004016105ed906129ec565b60405180910390fd5b8273ffffffffffffffffffffffffffffffffffffffff166000808473ffffffffffffffffffffffffffffffffffffffff1673ffffffffffffffffffffffffffffffffffffffff16815260200190815260200160002060000160009054906101000a900473ffffffffffffffffffffffffffffffffffffffff1673ffffffffffffffffffffffffffffffffffffffff16146106c5576040517f08c379a00000000000000000000000000000000000000000000000000000000081526004016106bc90612a7e565b60405180910390fd5b6106ce82610758565b61070d576040517f08c379a000000000000000000000000000000000000000000000000000000000815260040161070490612aea565b60405180910390fd5b600260008373ffffffffffffffffffffffffffffffffffffffff1673ffffffffffffffffffffffffffffffffffffffff16815260200190815260200160002060040154905092915050565b600080600160003373ffffffffffffffffffffffffffffffffffffffff1673ffffffffffffffffffffffffffffffffffffffff16815260200190815260200160002060000180546107a89061251d565b9050116107ea576040517f08c379a00000000000000000000000000000000000000000000000000000000081526004016107e190612980565b60405180910390fd5b662386f26fc10000600160003373ffffffffffffffffffffffffffffffffffffffff1673ffffffffffffffffffffffffffffffffffffffff1681526020019081526020016000206001015411610875576040517f08c379a000000000000000000000000000000000000000000000000000000000815260040161086c906129ec565b60405180910390fd5b3373ffffffffffffffffffffffffffffffffffffffff166000808473ffffffffffffffffffffffffffffffffffffffff1673ffffffffffffffffffffffffffffffffffffffff16815260200190815260200160002060000160009054906101000a900473ffffffffffffffffffffffffffffffffffffffff1673ffffffffffffffffffffffffffffffffffffffff1614610944576040517f08c379a000000000000000000000000000000000000000000000000000000000815260040161093b90612b7c565b60405180910390fd5b8173ffffffffffffffffffffffffffffffffffffffff16600260008473ffffffffffffffffffffffffffffffffffffffff1673ffffffffffffffffffffffffffffffffffffffff16815260200190815260200160002060000160010160009054906101000a900473ffffffffffffffffffffffffffffffffffffffff1673ffffffffffffffffffffffffffffffffffffffff16149050919050565b6000600160003373ffffffffffffffffffffffffffffffffffffffff1673ffffffffffffffffffffffffffffffffffffffff1681526020019081526020016000206000018054610a2e9061251d565b905011610a70576040517f08c379a0000000000000000000000000000000000000000000000000000000008152600401610a6790612980565b60405180910390fd5b60003411610ab3576040517f08c379a0000000000000000000000000000000000000000000000000000000008152600401610aaa90612be8565b60405180910390fd5b34600160003373ffffffffffffffffffffffffffffffffffffffff1673ffffffffffffffffffffffffffffffffffffffff1681526020019081526020016000206001016000828254610b059190612c37565b925050819055503373ffffffffffffffffffffffffffffffffffffffff167fa2a2db73af12c9f5bef6303364d44e78f97e992c353cd8659f3474c471427e9b34604051610b5291906123aa565b60405180910390a2565b6000600160003373ffffffffffffffffffffffffffffffffffffffff1673ffffffffffffffffffffffffffffffffffffffff1681526020019081526020016000206000018054610bab9061251d565b905011610bed576040517f08c379a0000000000000000000000000000000000000000000000000000000008152600401610be490612980565b60405180910390fd5b6000600160003373ffffffffffffffffffffffffffffffffffffffff1673ffffffffffffffffffffffffffffffffffffffff168152602001908152602001600020600101549050600160003373ffffffffffffffffffffffffffffffffffffffff1673ffffffffffffffffffffffffffffffffffffffff16815260200190815260200160002060008082016000610c8491906120c6565b6001820160009055600282016000905550503373ffffffffffffffffffffffffffffffffffffffff167f2564dc12f5c7d4be57c9d0417c313a76d08624ac131a3772f9abeedff476161160405160405180910390a26000811115610d2a573373ffffffffffffffffffffffffffffffffffffffff166108fc829081150290604051600060405180830381858888f19350505050158015610d28573d6000803e3d6000fd5b505b50565b600080600160003373ffffffffffffffffffffffffffffffffffffffff1673ffffffffffffffffffffffffffffffffffffffff1681526020019081526020016000206000018054610d7d9061251d565b905011610dbf576040517f08c379a0000000000000000000000000000000000000000000000000000000008152600401610db690612980565b60405180910390fd5b662386f26fc10000600160003373ffffffffffffffffffffffffffffffffffffffff1673ffffffffffffffffffffffffffffffffffffffff1681526020019081526020016000206001015411610e4a576040517f08c379a0000000000000000000000000000000000000000000000000000000008152600401610e41906129ec565b60405180910390fd5b3373ffffffffffffffffffffffffffffffffffffffff166000808473ffffffffffffffffffffffffffffffffffffffff1673ffffffffffffffffffffffffffffffffffffffff16815260200190815260200160002060000160009054906101000a900473ffffffffffffffffffffffffffffffffffffffff1673ffffffffffffffffffffffffffffffffffffffff1614610f19576040517f08c379a0000000000000000000000000000000000000000000000000000000008152600401610f1090612b7c565b60405180910390fd5b600260008373ffffffffffffffffffffffffffffffffffffffff1673ffffffffffffffffffffffffffffffffffffffff168152602001908152602001600020600301549050919050565b600080600160008573ffffffffffffffffffffffffffffffffffffffff1673ffffffffffffffffffffffffffffffffffffffff1681526020019081526020016000206000018054610fb39061251d565b905011610ff5576040517f08c379a0000000000000000000000000000000000000000000000000000000008152600401610fec90612980565b60405180910390fd5b662386f26fc10000600160008573ffffffffffffffffffffffffffffffffffffffff1673ffffffffffffffffffffffffffffffffffffffff1681526020019081526020016000206001015411611080576040517f08c379a0000000000000000000000000000000000000000000000000000000008152600401611077906129ec565b60405180910390fd5b8273ffffffffffffffffffffffffffffffffffffffff166000808473ffffffffffffffffffffffffffffffffffffffff1673ffffffffffffffffffffffffffffffffffffffff16815260200190815260200160002060000160009054906101000a900473ffffffffffffffffffffffffffffffffffffffff1673ffffffffffffffffffffffffffffffffffffffff161461114f576040517f08c379a000000000000000000000000000000000000000000000000000000000815260040161114690612a7e565b60405180910390fd5b61115882610758565b611197576040517f08c379a000000000000000000000000000000000000000000000000000000000815260040161118e90612aea565b60405180910390fd5b600260008373ffffffffffffffffffffffffffffffffffffffff1673ffffffffffffffffffffffffffffffffffffffff16815260200190815260200160002060050160009054906101000a900460ff16905092915050565b600080600160003373ffffffffffffffffffffffffffffffffffffffff1673ffffffffffffffffffffffffffffffffffffffff168152602001908152602001600020600001805461123f9061251d565b905011611281576040517f08c379a000000000000000000000000000000000000000000000000000000000815260040161127890612980565b60405180910390fd5b600160003373ffffffffffffffffffffffffffffffffffffffff1673ffffffffffffffffffffffffffffffffffffffff16815260200190815260200160002060010154905090565b6000801b810361130e576040517f08c379a000000000000000000000000000000000000000000000000000000000815260040161130590612cb7565b60405180910390fd5b6000600160003373ffffffffffffffffffffffffffffffffffffffff1673ffffffffffffffffffffffffffffffffffffffff168152602001908152602001600020600001805461135d9061251d565b90501161139f576040517f08c379a000000000000000000000000000000000000000000000000000000000815260040161139690612d49565b60405180910390fd5b662386f26fc10000600160003373ffffffffffffffffffffffffffffffffffffffff1673ffffffffffffffffffffffffffffffffffffffff168152602001908152602001600020600101541161142a576040517f08c379a0000000000000000000000000000000000000000000000000000000008152600401611421906129ec565b60405180910390fd5b8173ffffffffffffffffffffffffffffffffffffffff166000808473ffffffffffffffffffffffffffffffffffffffff1673ffffffffffffffffffffffffffffffffffffffff16815260200190815260200160002060010160009054906101000a900473ffffffffffffffffffffffffffffffffffffffff1673ffffffffffffffffffffffffffffffffffffffff16036114f9576040517f08c379a00000000000000000000000000000000000000000000000000000000081526004016114f090612db5565b60405180910390fd5b60405180606001604052803373ffffffffffffffffffffffffffffffffffffffff1681526020018373ffffffffffffffffffffffffffffffffffffffff168152602001828152506000808473ffffffffffffffffffffffffffffffffffffffff1673ffffffffffffffffffffffffffffffffffffffff16815260200190815260200160002060008201518160000160006101000a81548173ffffffffffffffffffffffffffffffffffffffff021916908373ffffffffffffffffffffffffffffffffffffffff16021790555060208201518160010160006101000a81548173ffffffffffffffffffffffffffffffffffffffff021916908373ffffffffffffffffffffffffffffffffffffffff16021790555060408201518160020155905050600160003373ffffffffffffffffffffffffffffffffffffffff1673ffffffffffffffffffffffffffffffffffffffff168152602001908152602001600020600201600081548092919061166c90612dd5565b91905055508173ffffffffffffffffffffffffffffffffffffffff163373ffffffffffffffffffffffffffffffffffffffff167f2138b9314634f9fdd5e49bee3eaf17ca557b6637524d0db759711c3bfcd3d85060405160405180910390a35050565b6000600160003373ffffffffffffffffffffffffffffffffffffffff1673ffffffffffffffffffffffffffffffffffffffff168152602001908152602001600020600001805461171e9061251d565b905011611760576040517f08c379a000000000000000000000000000000000000000000000000000000000815260040161175790612980565b60405180910390fd5b662386f26fc10000600160003373ffffffffffffffffffffffffffffffffffffffff1673ffffffffffffffffffffffffffffffffffffffff16815260200190815260200160002060010154116117eb576040517f08c379a00000000000000000000000000000000000000000000000000000000081526004016117e2906129ec565b60405180910390fd5b3373ffffffffffffffffffffffffffffffffffffffff166000808473ffffffffffffffffffffffffffffffffffffffff1673ffffffffffffffffffffffffffffffffffffffff16815260200190815260200160002060000160009054906101000a900473ffffffffffffffffffffffffffffffffffffffff1673ffffffffffffffffffffffffffffffffffffffff16146118ba576040517f08c379a00000000000000000000000000000000000000000000000000000000081526004016118b190612b7c565b60405180910390fd5b6000801b81036118ff576040517f08c379a00000000000000000000000000000000000000000000000000000000081526004016118f690612cb7565b60405180910390fd5b806000808473ffffffffffffffffffffffffffffffffffffffff1673ffffffffffffffffffffffffffffffffffffffff1681526020019081526020016000206002015414611982576040517f08c379a000000000000000000000000000000000000000000000000000000000815260040161197990612e69565b60405180910390fd5b61198b82610758565b15611b7957600062015180426119a19190612eb8565b9050600062015180600260008673ffffffffffffffffffffffffffffffffffffffff1673ffffffffffffffffffffffffffffffffffffffff168152602001908152602001600020600301546119f69190612eb8565b905080821115611b175760018183611a0e9190612ee9565b03611a72576001600260008673ffffffffffffffffffffffffffffffffffffffff1673ffffffffffffffffffffffffffffffffffffffff1681526020019081526020016000206004016000828254611a669190612c37565b92505081905550611acf565b60028183611a809190612ee9565b10611ace576001600260008673ffffffffffffffffffffffffffffffffffffffff1673ffffffffffffffffffffffffffffffffffffffff168152602001908152602001600020600401819055505b5b42600260008673ffffffffffffffffffffffffffffffffffffffff1673ffffffffffffffffffffffffffffffffffffffff168152602001908152602001600020600301819055505b6001600260008673ffffffffffffffffffffffffffffffffffffffff1673ffffffffffffffffffffffffffffffffffffffff16815260200190815260200160002060050160006101000a81548160ff0219169083151502179055505050611e3b565b60008060008473ffffffffffffffffffffffffffffffffffffffff1673ffffffffffffffffffffffffffffffffffffffff1681526020019081526020016000206040518060600160405290816000820160009054906101000a900473ffffffffffffffffffffffffffffffffffffffff1673ffffffffffffffffffffffffffffffffffffffff1673ffffffffffffffffffffffffffffffffffffffff1681526020016001820160009054906101000a900473ffffffffffffffffffffffffffffffffffffffff1673ffffffffffffffffffffffffffffffffffffffff1673ffffffffffffffffffffffffffffffffffffffff168152602001600282015481525050905060405180608001604052808281526020014281526020016001815260200160011515815250600260008573ffffffffffffffffffffffffffffffffffffffff1673ffffffffffffffffffffffffffffffffffffffff16815260200190815260200160002060008201518160000160008201518160000160006101000a81548173ffffffffffffffffffffffffffffffffffffffff021916908373ffffffffffffffffffffffffffffffffffffffff16021790555060208201518160010160006101000a81548173ffffffffffffffffffffffffffffffffffffffff021916908373ffffffffffffffffffffffffffffffffffffffff160217905550604082015181600201555050602082015181600301556040820151816004015560608201518160050160006101000a81548160ff0219169083151502179055509050506000808473ffffffffffffffffffffffffffffffffffffffff1673ffffffffffffffffffffffffffffffffffffffff168152602001908152602001600020604051611e059190613038565b60405180910390207fc3e258c2735e50ca59d445076e61f3e568466d65196515d5fa3cef1518fff1da60405160405180910390a2505b6007600260008473ffffffffffffffffffffffffffffffffffffffff1673ffffffffffffffffffffffffffffffffffffffff16815260200190815260200160002060040154036120c2576000600160003373ffffffffffffffffffffffffffffffffffffffff1673ffffffffffffffffffffffffffffffffffffffff16815260200190815260200160002060020154600160003373ffffffffffffffffffffffffffffffffffffffff1673ffffffffffffffffffffffffffffffffffffffff16815260200190815260200160002060010154611f179190612eb8565b9050600260008473ffffffffffffffffffffffffffffffffffffffff1673ffffffffffffffffffffffffffffffffffffffff16815260200190815260200160002060000160010160009054906101000a900473ffffffffffffffffffffffffffffffffffffffff1673ffffffffffffffffffffffffffffffffffffffff166108fc829081150290604051600060405180830381858888f19350505050158015611fc4573d6000803e3d6000fd5b50600260008473ffffffffffffffffffffffffffffffffffffffff1673ffffffffffffffffffffffffffffffffffffffff16815260200190815260200160002060000160010160009054906101000a900473ffffffffffffffffffffffffffffffffffffffff1673ffffffffffffffffffffffffffffffffffffffff167fe366ef68d2c0620e9e4c5074fd7ad0ce6739b65287f9c2d09b7d002da556879b8260405161207091906123aa565b60405180910390a26000600260008573ffffffffffffffffffffffffffffffffffffffff1673ffffffffffffffffffffffffffffffffffffffff16815260200190815260200160002060040181905550505b5050565b5080546120d29061251d565b6000825580601f106120e45750612103565b601f0160209004906000526020600020908101906121029190612106565b5b50565b5b8082111561211f576000816000905550600101612107565b5090565b6000604051905090565b600080fd5b600080fd5b600080fd5b600080fd5b6000601f19601f8301169050919050565b7f4e487b7100000000000000000000000000000000000000000000000000000000600052604160045260246000fd5b61218a82612141565b810181811067ffffffffffffffff821117156121a9576121a8612152565b5b80604052505050565b60006121bc612123565b90506121c88282612181565b919050565b600067ffffffffffffffff8211156121e8576121e7612152565b5b6121f182612141565b9050602081019050919050565b82818337600083830152505050565b600061222061221b846121cd565b6121b2565b90508281526020810184848401111561223c5761223b61213c565b5b6122478482856121fe565b509392505050565b600082601f83011261226457612263612137565b5b813561227484826020860161220d565b91505092915050565b6000602082840312156122935761229261212d565b5b600082013567ffffffffffffffff8111156122b1576122b0612132565b5b6122bd8482850161224f565b91505092915050565b600073ffffffffffffffffffffffffffffffffffffffff82169050919050565b60006122f1826122c6565b9050919050565b612301816122e6565b811461230c57600080fd5b50565b60008135905061231e816122f8565b92915050565b60006020828403121561233a5761233961212d565b5b60006123488482850161230f565b91505092915050565b600080604083850312156123685761236761212d565b5b60006123768582860161230f565b92505060206123878582860161230f565b9150509250929050565b6000819050919050565b6123a481612391565b82525050565b60006020820190506123bf600083018461239b565b92915050565b60008115159050919050565b6123da816123c5565b82525050565b60006020820190506123f560008301846123d1565b92915050565b6000819050919050565b61240e816123fb565b811461241957600080fd5b50565b60008135905061242b81612405565b92915050565b600080604083850312156124485761244761212d565b5b60006124568582860161230f565b92505060206124678582860161241c565b9150509250929050565b600082825260208201905092915050565b7f436f6d70616e79206e616d652063616e6e6f7420626520656d70747900000000600082015250565b60006124b8601c83612471565b91506124c382612482565b602082019050919050565b600060208201905081810360008301526124e7816124ab565b9050919050565b7f4e487b7100000000000000000000000000000000000000000000000000000000600052602260045260246000fd5b6000600282049050600182168061253557607f821691505b602082108103612548576125476124ee565b5b50919050565b7f436f6d70616e7920616c72656164792072656769737465726564000000000000600082015250565b6000612584601a83612471565b915061258f8261254e565b602082019050919050565b600060208201905081810360008301526125b381612577565b9050919050565b600081519050919050565b60008190508160005260206000209050919050565b60006020601f8301049050919050565b600082821b905092915050565b6000600883026126277fffffffffffffffffffffffffffffffffffffffffffffffffffffffffffffffff826125ea565b61263186836125ea565b95508019841693508086168417925050509392505050565b6000819050919050565b600061266e61266961266484612391565b612649565b612391565b9050919050565b6000819050919050565b61268883612653565b61269c61269482612675565b8484546125f7565b825550505050565b600090565b6126b16126a4565b6126bc81848461267f565b505050565b5b818110156126e0576126d56000826126a9565b6001810190506126c2565b5050565b601f821115612725576126f6816125c5565b6126ff846125da565b8101602085101561270e578190505b61272261271a856125da565b8301826126c1565b50505b505050565b600082821c905092915050565b60006127486000198460080261272a565b1980831691505092915050565b60006127618383612737565b9150826002028217905092915050565b61277a826125ba565b67ffffffffffffffff81111561279357612792612152565b5b61279d825461251d565b6127a88282856126e4565b600060209050601f8311600181146127db57600084156127c9578287015190505b6127d38582612755565b86555061283b565b601f1984166127e9866125c5565b60005b82811015612811578489015182556001820191506020850194506020810190506127ec565b8683101561282e578489015161282a601f891682612737565b8355505b6001600288020188555050505b505050505050565b60005b83811015612861578082015181840152602081019050612846565b60008484015250505050565b6000612878826125ba565b6128828185612471565b9350612892818560208601612843565b61289b81612141565b840191505092915050565b600060208201905081810360008301526128c0818461286d565b905092915050565b7f55736572206973206e6f742063757272656e746c79206c6f6767656420696e00600082015250565b60006128fe601f83612471565b9150612909826128c8565b602082019050919050565b6000602082019050818103600083015261292d816128f1565b9050919050565b7f436f6d70616e79206e6f74207265676973746572656400000000000000000000600082015250565b600061296a601683612471565b915061297582612934565b602082019050919050565b600060208201905081810360008301526129998161295d565b9050919050565b7f4465706f73697420736f6d652045544820666972737400000000000000000000600082015250565b60006129d6601683612471565b91506129e1826129a0565b602082019050919050565b60006020820190508181036000830152612a05816129c9565b9050919050565b7f5573657220646f65736e27742065786973747320696e207468697320636f6d7060008201527f616e790000000000000000000000000000000000000000000000000000000000602082015250565b6000612a68602383612471565b9150612a7382612a0c565b604082019050919050565b60006020820190508181036000830152612a9781612a5b565b9050919050565b7f4c6f67696e2064657461696c20646f6573206e6f742065786973747300000000600082015250565b6000612ad4601c83612471565b9150612adf82612a9e565b602082019050919050565b60006020820190508181036000830152612b0381612ac7565b9050919050565b7f5573657220646f65736e27742062656c6f6e6720746f20796f757220636f6d7060008201527f616e790000000000000000000000000000000000000000000000000000000000602082015250565b6000612b66602383612471565b9150612b7182612b0a565b604082019050919050565b60006020820190508181036000830152612b9581612b59565b9050919050565b7f56616c75652063616e6e6f74206265206c657373207468616e20300000000000600082015250565b6000612bd2601b83612471565b9150612bdd82612b9c565b602082019050919050565b60006020820190508181036000830152612c0181612bc5565b9050919050565b7f4e487b7100000000000000000000000000000000000000000000000000000000600052601160045260246000fd5b6000612c4282612391565b9150612c4d83612391565b9250828201905080821115612c6557612c64612c08565b5b92915050565b7f496e76616c69642070617373776f726420686173680000000000000000000000600082015250565b6000612ca1601583612471565b9150612cac82612c6b565b602082019050919050565b60006020820190508181036000830152612cd081612c94565b9050919050565b7f4f6e6c7920436f6d70616e6965732063616e207265676973746572207468656960008201527f7220757365727300000000000000000000000000000000000000000000000000602082015250565b6000612d33602783612471565b9150612d3e82612cd7565b604082019050919050565b60006020820190508181036000830152612d6281612d26565b9050919050565b7f5573657220616c72656164792072656769737465726564000000000000000000600082015250565b6000612d9f601783612471565b9150612daa82612d69565b602082019050919050565b60006020820190508181036000830152612dce81612d92565b9050919050565b6000612de082612391565b91507fffffffffffffffffffffffffffffffffffffffffffffffffffffffffffffffff8203612e1257612e11612c08565b5b600182019050919050565b7f496e636f72726563742070617373776f72640000000000000000000000000000600082015250565b6000612e53601283612471565b9150612e5e82612e1d565b602082019050919050565b60006020820190508181036000830152612e8281612e46565b9050919050565b7f4e487b7100000000000000000000000000000000000000000000000000000000600052601260045260246000fd5b6000612ec382612391565b9150612ece83612391565b925082612ede57612edd612e89565b5b828204905092915050565b6000612ef482612391565b9150612eff83612391565b9250828203905081811115612f1757612f16612c08565b5b92915050565b60008160001c9050919050565b600073ffffffffffffffffffffffffffffffffffffffff82169050919050565b6000612f5d612f5883612f1d565b612f2a565b9050919050565b612f6d816122e6565b82525050565b6000612f7f8383612f64565b60208301905092915050565b6000819050919050565b6000612fa8612fa383612f1d565b612f8b565b9050919050565b612fb8816123fb565b82525050565b6000612fca8383612faf565b60208301905092915050565b600082016000808301549050612feb81612f4a565b612ff58582612f73565b9450506001830154905061300881612f4a565b6130128582612f73565b9450506002830154905061302581612f95565b61302f8582612fbe565b94505050505050565b60006130448284612fd6565b6060820191508190509291505056fea2646970667358221220d0d563e50c69eba609ac2674e2fb77c16a83078ecf47372eacd895799e71264964736f6c63430008130033",
  "immutableReferences": {},
  "source": "// SPDX-License-Identifier: MIT\npragma solidity ^0.8.0;\n\ncontract CompanyRegistry {\n    struct User {\n        address company;\n        address walletAddress;\n        bytes32 passwordHash;\n    }\n    struct Company {\n        string name;\n        uint256 deposit;\n        uint256 totalUsers;\n    }\n\n    struct Login {\n        User user;\n        uint256 lastLoginTime;\n        uint256 totalLoggedInDays;\n        bool isLoggedIn;\n    }\n    mapping(address => User) private userMap;\n    mapping(address => Company) private companies;\n    mapping(address => Login) private LoginDetails;\n\n    event CompanyRegistered(address indexed companyAddress, string name);\n    event DepositAdded(address indexed companyAddress, uint256 amount);\n    event CompanyDeleted(address indexed companyAddress);\n    event UserLoggedIn(User indexed user);\n    event UserRewarded(address indexed userAddress, uint256 amount);\n    event UserRegistered(\n        address indexed companyAddress,\n        address indexed userAddress\n    );\n\n    function doesLoginExist(address walletAddress) public view returns (bool) {\n        require(\n            bytes(companies[msg.sender].name).length > 0,\n            \"Company not registered\"\n        );\n        require(\n            companies[msg.sender].deposit > 10000000000000000 wei,\n            \"Deposit some ETH first\"\n        );\n        require(\n            userMap[walletAddress].company == msg.sender,\n            \"User doesn't belong to your company\"\n        );\n\n        return LoginDetails[walletAddress].user.walletAddress == walletAddress;\n    }\n\n    function loginUser(address walletAddress, bytes32 passwordHash) public {\n        require(\n            bytes(companies[msg.sender].name).length > 0,\n            \"Company not registered\"\n        );\n        require(\n            companies[msg.sender].deposit > 10000000000000000 wei,\n            \"Deposit some ETH first\"\n        );\n        require(\n            userMap[walletAddress].company == msg.sender,\n            \"User doesn't belong to your company\"\n        );\n        require(passwordHash != 0, \"Invalid password hash\");\n        require(\n            userMap[walletAddress].passwordHash == passwordHash,\n            \"Incorrect password\"\n        );\n        if (doesLoginExist(walletAddress)) {\n            uint256 currentDay = block.timestamp / 1 days;\n            uint256 lastLoginDay = LoginDetails[walletAddress].lastLoginTime /\n                1 days;\n            if (currentDay > lastLoginDay) {\n                if (currentDay - lastLoginDay == 1) {\n                    LoginDetails[walletAddress].totalLoggedInDays += 1;\n                } else if (currentDay - lastLoginDay >= 2) {\n                    LoginDetails[walletAddress].totalLoggedInDays = 1;\n                }\n            LoginDetails[walletAddress].lastLoginTime=block.timestamp;\n            }\n            LoginDetails[walletAddress].isLoggedIn=true;\n\n        } else {\n            User memory userInfo = userMap[walletAddress];\n            LoginDetails[walletAddress] = Login({\n                user: userInfo,\n                lastLoginTime: block.timestamp,\n                totalLoggedInDays: 1,\n                isLoggedIn: true\n            });\n            emit UserLoggedIn(userMap[walletAddress]);\n        }\n        if (LoginDetails[walletAddress].totalLoggedInDays == 7) {\n            // reward user with ETH\n            uint256 rewardAmount = companies[msg.sender].deposit /\n                companies[msg.sender].totalUsers;\n            payable(LoginDetails[walletAddress].user.walletAddress).transfer(\n                rewardAmount\n            );\n            emit UserRewarded(\n                LoginDetails[walletAddress].user.walletAddress,\n                rewardAmount\n            );\n            // reset totalLoggedInDays\n            LoginDetails[walletAddress].totalLoggedInDays = 0;\n        }\n    }\n\n    // function checkForRewards() public {}\n    function gettotalLoggedInDays(address CompanyAddress, address userAddress)\n        public\n        view\n        returns (uint256)\n    {\n        require(\n            bytes(companies[CompanyAddress].name).length > 0,\n            \"Company not registered\"\n        );\n        require(\n            companies[msg.sender].deposit > 10000000000000000 wei,\n            \"Deposit some ETH first\"\n        );\n        require(\n            userMap[userAddress].company == CompanyAddress,\n            \"User doesn't exists in this company\"\n        );\n        require(doesLoginExist(userAddress), \"Login detail does not exists\");\n        return LoginDetails[userAddress].totalLoggedInDays;\n    }\n\n    function getIsLoggedInStatus(address CompanyAddress, address userAddress)\n        public\n        view\n        returns (bool)\n    {\n        require(\n            bytes(companies[CompanyAddress].name).length > 0,\n            \"Company not registered\"\n        );\n        require(\n            companies[CompanyAddress].deposit > 10000000000000000 wei,\n            \"Deposit some ETH first\"\n        );\n\n        require(\n            userMap[userAddress].company == CompanyAddress,\n            \"User doesn't exists in this company\"\n        );\n        require(doesLoginExist(userAddress), \"Login detail does not exists\");\n        return LoginDetails[userAddress].isLoggedIn;\n    }\n\n    function registerCompany(string memory name) public {\n        require(bytes(name).length > 0, \"Company name cannot be empty\");\n        require(\n            bytes(companies[msg.sender].name).length == 0,\n            \"Company already registered\"\n        );\n        companies[msg.sender] = Company(name, 0, 0);\n        emit CompanyRegistered(msg.sender, name);\n    }\n\n    function addDeposit() public payable {\n        require(\n            bytes(companies[msg.sender].name).length > 0,\n            \"Company not registered\"\n        );\n        require(msg.value > 0, \"Value cannot be less than 0\");\n        companies[msg.sender].deposit += msg.value;\n        emit DepositAdded(msg.sender, msg.value);\n    }\n\n    function deleteCompany() public {\n        require(\n            bytes(companies[msg.sender].name).length > 0,\n            \"Company not registered\"\n        );\n        uint256 balance = companies[msg.sender].deposit;\n        delete companies[msg.sender];\n        emit CompanyDeleted(msg.sender);\n        if (balance > 0) {\n            payable(msg.sender).transfer(balance);\n        }\n    }\n\n    function registerUser(address walletAddress, bytes32 passwordHash) public {\n        require(passwordHash != 0, \"Invalid password hash\");\n        require(\n            bytes(companies[msg.sender].name).length > 0,\n            \"Only Companies can register their users\"\n        );\n        require(\n            companies[msg.sender].deposit > 10000000000000000 wei,\n            \"Deposit some ETH first\"\n        );\n        require(\n            userMap[walletAddress].walletAddress != walletAddress,\n            \"User already registered\"\n        );\n\n        userMap[walletAddress] = User(msg.sender, walletAddress, passwordHash);\n        companies[msg.sender].totalUsers++;\n        emit UserRegistered(msg.sender, walletAddress);\n    }\n\n    function getCompanyDeposit() public view returns (uint256) {\n        require(\n            bytes(companies[msg.sender].name).length > 0,\n            \"Company not registered\"\n        );\n        return companies[msg.sender].deposit;\n    }\n\n    function lastLoginTime(address walletAddress)\n        public\n        view\n        returns (uint256)\n    {\n        require(\n            bytes(companies[msg.sender].name).length > 0,\n            \"Company not registered\"\n        );\n        require(\n            companies[msg.sender].deposit > 10000000000000000 wei,\n            \"Deposit some ETH first\"\n        );\n        require(\n            userMap[walletAddress].company == msg.sender,\n            \"User doesn't belong to your company\"\n        );\n\n        return (LoginDetails[walletAddress].lastLoginTime);\n    }\n\n    function logoutUser(address walletAddress) public {\n        require(\n            doesLoginExist(walletAddress),\n            \"User is not currently logged in\"\n        );\n        LoginDetails[walletAddress].isLoggedIn = false;\n    }\n}\n",
  "sourcePath": "D:\\Final Year Project\\Blockchain-based-incentivized-auth-system\\blockchain\\contracts\\CompanyRegistry.sol",
  "compiler": {
    "name": "solc",
    "version": "0.8.19+commit.7dd6d404.Emscripten.clang"
  },
  "schemaVersion": "3.4.13",
  "updatedAt": "2023-05-19T17:31:12.056Z",
  "devdoc": {
    "kind": "dev",
    "methods": {},
    "version": 1
  },
  "userdoc": {
    "kind": "user",
    "methods": {},
    "version": 1
  }
}