{
  "contractName": "CompanyRegistry",
  "abi": [
    {
      "anonymous": false,
      "inputs": [
        {
          "indexed": true,
          "internalType": "address",
          "name": "companyAddress",
          "type": "address"
        }
      ],
      "name": "CompanyDeleted",
      "type": "event"
    },
    {
      "anonymous": false,
      "inputs": [
        {
          "indexed": true,
          "internalType": "address",
          "name": "companyAddress",
          "type": "address"
        },
        {
          "indexed": false,
          "internalType": "string",
          "name": "name",
          "type": "string"
        }
      ],
      "name": "CompanyRegistered",
      "type": "event"
    },
    {
      "anonymous": false,
      "inputs": [
        {
          "indexed": true,
          "internalType": "address",
          "name": "companyAddress",
          "type": "address"
        },
        {
          "indexed": false,
          "internalType": "uint256",
          "name": "amount",
          "type": "uint256"
        }
      ],
      "name": "DepositAdded",
      "type": "event"
    },
    {
      "anonymous": false,
      "inputs": [
        {
          "components": [
            {
              "internalType": "address",
              "name": "company",
              "type": "address"
            },
            {
              "internalType": "address",
              "name": "walletAddress",
              "type": "address"
            },
            {
              "internalType": "bytes32",
              "name": "passwordHash",
              "type": "bytes32"
            }
          ],
          "indexed": true,
          "internalType": "struct CompanyRegistry.User",
          "name": "user",
          "type": "tuple"
        }
      ],
      "name": "UserLoggedIn",
      "type": "event"
    },
    {
      "anonymous": false,
      "inputs": [
        {
          "indexed": true,
          "internalType": "address",
          "name": "companyAddress",
          "type": "address"
        },
        {
          "indexed": true,
          "internalType": "address",
          "name": "userAddress",
          "type": "address"
        }
      ],
      "name": "UserRegistered",
      "type": "event"
    },
    {
      "anonymous": false,
      "inputs": [
        {
          "indexed": true,
          "internalType": "address",
          "name": "userAddress",
          "type": "address"
        },
        {
          "indexed": false,
          "internalType": "uint256",
          "name": "amount",
          "type": "uint256"
        }
      ],
      "name": "UserRewarded",
      "type": "event"
    },
    {
      "inputs": [
        {
          "internalType": "address",
          "name": "walletAddress",
          "type": "address"
        }
      ],
      "name": "doesLoginExist",
      "outputs": [
        {
          "internalType": "bool",
          "name": "",
          "type": "bool"
        }
      ],
      "stateMutability": "view",
      "type": "function"
    },
    {
      "inputs": [
        {
          "internalType": "address",
          "name": "walletAddress",
          "type": "address"
        },
        {
          "internalType": "bytes32",
          "name": "passwordHash",
          "type": "bytes32"
        }
      ],
      "name": "loginUser",
      "outputs": [
        {
          "internalType": "bool",
          "name": "",
          "type": "bool"
        }
      ],
      "stateMutability": "nonpayable",
      "type": "function"
    },
    {
      "inputs": [
        {
          "internalType": "address",
          "name": "CompanyAddress",
          "type": "address"
        },
        {
          "internalType": "address",
          "name": "userAddress",
          "type": "address"
        }
      ],
      "name": "gettotalLoggedInDays",
      "outputs": [
        {
          "internalType": "uint256",
          "name": "",
          "type": "uint256"
        }
      ],
      "stateMutability": "view",
      "type": "function"
    },
    {
      "inputs": [
        {
          "internalType": "address",
          "name": "CompanyAddress",
          "type": "address"
        },
        {
          "internalType": "address",
          "name": "userAddress",
          "type": "address"
        }
      ],
      "name": "getIsLoggedInStatus",
      "outputs": [
        {
          "internalType": "bool",
          "name": "",
          "type": "bool"
        }
      ],
      "stateMutability": "view",
      "type": "function"
    },
    {
      "inputs": [
        {
          "internalType": "string",
          "name": "name",
          "type": "string"
        }
      ],
      "name": "registerCompany",
      "outputs": [],
      "stateMutability": "nonpayable",
      "type": "function"
    },
    {
      "inputs": [],
      "name": "addDeposit",
      "outputs": [],
      "stateMutability": "payable",
      "type": "function"
    },
    {
      "inputs": [],
      "name": "deleteCompany",
      "outputs": [],
      "stateMutability": "nonpayable",
      "type": "function"
    },
    {
      "inputs": [
        {
          "internalType": "address",
          "name": "walletAddress",
          "type": "address"
        },
        {
          "internalType": "bytes32",
          "name": "passwordHash",
          "type": "bytes32"
        }
      ],
      "name": "registerUser",
      "outputs": [],
      "stateMutability": "nonpayable",
      "type": "function"
    },
    {
      "inputs": [],
      "name": "getCompanyDeposit",
      "outputs": [
        {
          "internalType": "uint256",
          "name": "",
          "type": "uint256"
        }
      ],
      "stateMutability": "view",
      "type": "function"
    },
    {
      "inputs": [
        {
          "internalType": "address",
          "name": "walletAddress",
          "type": "address"
        }
      ],
      "name": "lastLoginTime",
      "outputs": [
        {
          "internalType": "uint256",
          "name": "",
          "type": "uint256"
        }
      ],
      "stateMutability": "view",
      "type": "function"
    },
    {
      "inputs": [
        {
          "internalType": "address",
          "name": "userAddress",
          "type": "address"
        }
      ],
      "name": "updateLoggedInStatus",
      "outputs": [
        {
          "internalType": "bool",
          "name": "",
          "type": "bool"
        },
        {
          "internalType": "uint256",
          "name": "",
          "type": "uint256"
        }
      ],
      "stateMutability": "nonpayable",
      "type": "function"
    },
    {
      "inputs": [
        {
          "internalType": "address",
          "name": "walletAddress",
          "type": "address"
        }
      ],
      "name": "logoutUser",
      "outputs": [],
      "stateMutability": "nonpayable",
      "type": "function"
    }
  ],
  "bytecode": "0x608060405234801561001057600080fd5b5061316e806100206000396000f3fe6080604052600436106100a65760003560e01c8063a73779a611610064578063a73779a614610198578063b4bcca03146101d6578063c89f883e14610213578063cc6911b614610250578063d7e0b6e31461027b578063f7a04903146102a4576100a6565b8062544194146100ab57806309df5060146100d457806319abc6a8146100fd5780633f3c2ad21461013a5780634a58db19146101775780635045499c14610181575b600080fd5b3480156100b757600080fd5b506100d260048036038101906100cd9190612261565b6102e1565b005b3480156100e057600080fd5b506100fb60048036038101906100f69190612308565b610490565b005b34801561010957600080fd5b50610124600480360381019061011f9190612335565b610536565b604051610131919061238e565b60405180910390f35b34801561014657600080fd5b50610161600480360381019061015c9190612308565b6107b5565b60405161016e91906123c4565b60405180910390f35b61017f610a3c565b005b34801561018d57600080fd5b50610196610bb9565b005b3480156101a457600080fd5b506101bf60048036038101906101ba9190612308565b610d8a565b6040516101cd9291906123df565b60405180910390f35b3480156101e257600080fd5b506101fd60048036038101906101f89190612308565b6112dc565b60405161020a919061238e565b60405180910390f35b34801561021f57600080fd5b5061023a60048036038101906102359190612335565b611512565b60405161024791906123c4565b60405180910390f35b34801561025c57600080fd5b5061026561179e565b604051610272919061238e565b60405180910390f35b34801561028757600080fd5b506102a2600480360381019061029d919061243e565b611878565b005b3480156102b057600080fd5b506102cb60048036038101906102c6919061243e565b611c7e565b6040516102d891906123c4565b60405180910390f35b6000815111610325576040517f08c379a000000000000000000000000000000000000000000000000000000000815260040161031c906124db565b60405180910390fd5b6000600160003373ffffffffffffffffffffffffffffffffffffffff1673ffffffffffffffffffffffffffffffffffffffff16815260200190815260200160002060000180546103749061252a565b9050146103b6576040517f08c379a00000000000000000000000000000000000000000000000000000000081526004016103ad906125a7565b60405180910390fd5b6040518060600160405280828152602001600081526020016000815250600160003373ffffffffffffffffffffffffffffffffffffffff1673ffffffffffffffffffffffffffffffffffffffff1681526020019081526020016000206000820151816000019081610427919061277e565b5060208201518160010155604082015181600201559050503373ffffffffffffffffffffffffffffffffffffffff167f76686aa361308f4a08557cca1a847299ce61e5602a3495cd359a599a1dca438c8260405161048591906128b3565b60405180910390a250565b610499816107b5565b6104d8576040517f08c379a00000000000000000000000000000000000000000000000000000000081526004016104cf90612921565b60405180910390fd5b6000600260008373ffffffffffffffffffffffffffffffffffffffff1673ffffffffffffffffffffffffffffffffffffffff16815260200190815260200160002060050160006101000a81548160ff02191690831515021790555050565b600080600160008573ffffffffffffffffffffffffffffffffffffffff1673ffffffffffffffffffffffffffffffffffffffff16815260200190815260200160002060000180546105869061252a565b9050116105c8576040517f08c379a00000000000000000000000000000000000000000000000000000000081526004016105bf9061298d565b60405180910390fd5b662386f26fc10000600160003373ffffffffffffffffffffffffffffffffffffffff1673ffffffffffffffffffffffffffffffffffffffff1681526020019081526020016000206001015411610653576040517f08c379a000000000000000000000000000000000000000000000000000000000815260040161064a906129f9565b60405180910390fd5b8273ffffffffffffffffffffffffffffffffffffffff166000808473ffffffffffffffffffffffffffffffffffffffff1673ffffffffffffffffffffffffffffffffffffffff16815260200190815260200160002060000160009054906101000a900473ffffffffffffffffffffffffffffffffffffffff1673ffffffffffffffffffffffffffffffffffffffff1614610722576040517f08c379a000000000000000000000000000000000000000000000000000000000815260040161071990612a8b565b60405180910390fd5b61072b826107b5565b61076a576040517f08c379a000000000000000000000000000000000000000000000000000000000815260040161076190612af7565b60405180910390fd5b600260008373ffffffffffffffffffffffffffffffffffffffff1673ffffffffffffffffffffffffffffffffffffffff16815260200190815260200160002060040154905092915050565b600080600160003373ffffffffffffffffffffffffffffffffffffffff1673ffffffffffffffffffffffffffffffffffffffff16815260200190815260200160002060000180546108059061252a565b905011610847576040517f08c379a000000000000000000000000000000000000000000000000000000000815260040161083e9061298d565b60405180910390fd5b662386f26fc10000600160003373ffffffffffffffffffffffffffffffffffffffff1673ffffffffffffffffffffffffffffffffffffffff16815260200190815260200160002060010154116108d2576040517f08c379a00000000000000000000000000000000000000000000000000000000081526004016108c9906129f9565b60405180910390fd5b3373ffffffffffffffffffffffffffffffffffffffff166000808473ffffffffffffffffffffffffffffffffffffffff1673ffffffffffffffffffffffffffffffffffffffff16815260200190815260200160002060000160009054906101000a900473ffffffffffffffffffffffffffffffffffffffff1673ffffffffffffffffffffffffffffffffffffffff16146109a1576040517f08c379a000000000000000000000000000000000000000000000000000000000815260040161099890612b89565b60405180910390fd5b8173ffffffffffffffffffffffffffffffffffffffff16600260008473ffffffffffffffffffffffffffffffffffffffff1673ffffffffffffffffffffffffffffffffffffffff16815260200190815260200160002060000160010160009054906101000a900473ffffffffffffffffffffffffffffffffffffffff1673ffffffffffffffffffffffffffffffffffffffff16149050919050565b6000600160003373ffffffffffffffffffffffffffffffffffffffff1673ffffffffffffffffffffffffffffffffffffffff1681526020019081526020016000206000018054610a8b9061252a565b905011610acd576040517f08c379a0000000000000000000000000000000000000000000000000000000008152600401610ac49061298d565b60405180910390fd5b60003411610b10576040517f08c379a0000000000000000000000000000000000000000000000000000000008152600401610b0790612bf5565b60405180910390fd5b34600160003373ffffffffffffffffffffffffffffffffffffffff1673ffffffffffffffffffffffffffffffffffffffff1681526020019081526020016000206001016000828254610b629190612c44565b925050819055503373ffffffffffffffffffffffffffffffffffffffff167fa2a2db73af12c9f5bef6303364d44e78f97e992c353cd8659f3474c471427e9b34604051610baf919061238e565b60405180910390a2565b6000600160003373ffffffffffffffffffffffffffffffffffffffff1673ffffffffffffffffffffffffffffffffffffffff1681526020019081526020016000206000018054610c089061252a565b905011610c4a576040517f08c379a0000000000000000000000000000000000000000000000000000000008152600401610c419061298d565b60405180910390fd5b6000600160003373ffffffffffffffffffffffffffffffffffffffff1673ffffffffffffffffffffffffffffffffffffffff168152602001908152602001600020600101549050600160003373ffffffffffffffffffffffffffffffffffffffff1673ffffffffffffffffffffffffffffffffffffffff16815260200190815260200160002060008082016000610ce191906120aa565b6001820160009055600282016000905550503373ffffffffffffffffffffffffffffffffffffffff167f2564dc12f5c7d4be57c9d0417c313a76d08624ac131a3772f9abeedff476161160405160405180910390a26000811115610d87573373ffffffffffffffffffffffffffffffffffffffff166108fc829081150290604051600060405180830381858888f19350505050158015610d85573d6000803e3d6000fd5b505b50565b600080610d96836107b5565b610dd5576040517f08c379a0000000000000000000000000000000000000000000000000000000008152600401610dcc90612cc4565b60405180910390fd5b60006201518042610de69190612d13565b9050600062015180600260008773ffffffffffffffffffffffffffffffffffffffff1673ffffffffffffffffffffffffffffffffffffffff16815260200190815260200160002060030154610e3b9190612d13565b905080821115610f5c5760018183610e539190612d44565b03610eb7576001600260008773ffffffffffffffffffffffffffffffffffffffff1673ffffffffffffffffffffffffffffffffffffffff1681526020019081526020016000206004016000828254610eab9190612c44565b92505081905550610f14565b60028183610ec59190612d44565b10610f13576001600260008773ffffffffffffffffffffffffffffffffffffffff1673ffffffffffffffffffffffffffffffffffffffff168152602001908152602001600020600401819055505b5b42600260008773ffffffffffffffffffffffffffffffffffffffff1673ffffffffffffffffffffffffffffffffffffffff168152602001908152602001600020600301819055505b6001600260008773ffffffffffffffffffffffffffffffffffffffff1673ffffffffffffffffffffffffffffffffffffffff16815260200190815260200160002060050160006101000a81548160ff0219169083151502179055506007600260008773ffffffffffffffffffffffffffffffffffffffff1673ffffffffffffffffffffffffffffffffffffffff168152602001908152602001600020600401540361123e576000600160003373ffffffffffffffffffffffffffffffffffffffff1673ffffffffffffffffffffffffffffffffffffffff16815260200190815260200160002060020154600160003373ffffffffffffffffffffffffffffffffffffffff1673ffffffffffffffffffffffffffffffffffffffff168152602001908152602001600020600101546110939190612d13565b9050600260008773ffffffffffffffffffffffffffffffffffffffff1673ffffffffffffffffffffffffffffffffffffffff16815260200190815260200160002060000160010160009054906101000a900473ffffffffffffffffffffffffffffffffffffffff1673ffffffffffffffffffffffffffffffffffffffff166108fc829081150290604051600060405180830381858888f19350505050158015611140573d6000803e3d6000fd5b50600260008773ffffffffffffffffffffffffffffffffffffffff1673ffffffffffffffffffffffffffffffffffffffff16815260200190815260200160002060000160010160009054906101000a900473ffffffffffffffffffffffffffffffffffffffff1673ffffffffffffffffffffffffffffffffffffffff167fe366ef68d2c0620e9e4c5074fd7ad0ce6739b65287f9c2d09b7d002da556879b826040516111ec919061238e565b60405180910390a26000600260008873ffffffffffffffffffffffffffffffffffffffff1673ffffffffffffffffffffffffffffffffffffffff16815260200190815260200160002060040181905550505b600260008673ffffffffffffffffffffffffffffffffffffffff1673ffffffffffffffffffffffffffffffffffffffff16815260200190815260200160002060050160009054906101000a900460ff16600260008773ffffffffffffffffffffffffffffffffffffffff1673ffffffffffffffffffffffffffffffffffffffff16815260200190815260200160002060040154935093505050915091565b600080600160003373ffffffffffffffffffffffffffffffffffffffff1673ffffffffffffffffffffffffffffffffffffffff168152602001908152602001600020600001805461132c9061252a565b90501161136e576040517f08c379a00000000000000000000000000000000000000000000000000000000081526004016113659061298d565b60405180910390fd5b662386f26fc10000600160003373ffffffffffffffffffffffffffffffffffffffff1673ffffffffffffffffffffffffffffffffffffffff16815260200190815260200160002060010154116113f9576040517f08c379a00000000000000000000000000000000000000000000000000000000081526004016113f0906129f9565b60405180910390fd5b3373ffffffffffffffffffffffffffffffffffffffff166000808473ffffffffffffffffffffffffffffffffffffffff1673ffffffffffffffffffffffffffffffffffffffff16815260200190815260200160002060000160009054906101000a900473ffffffffffffffffffffffffffffffffffffffff1673ffffffffffffffffffffffffffffffffffffffff16146114c8576040517f08c379a00000000000000000000000000000000000000000000000000000000081526004016114bf90612b89565b60405180910390fd5b600260008373ffffffffffffffffffffffffffffffffffffffff1673ffffffffffffffffffffffffffffffffffffffff168152602001908152602001600020600301549050919050565b600080600160008573ffffffffffffffffffffffffffffffffffffffff1673ffffffffffffffffffffffffffffffffffffffff16815260200190815260200160002060000180546115629061252a565b9050116115a4576040517f08c379a000000000000000000000000000000000000000000000000000000000815260040161159b9061298d565b60405180910390fd5b662386f26fc10000600160008573ffffffffffffffffffffffffffffffffffffffff1673ffffffffffffffffffffffffffffffffffffffff168152602001908152602001600020600101541161162f576040517f08c379a0000000000000000000000000000000000000000000000000000000008152600401611626906129f9565b60405180910390fd5b8273ffffffffffffffffffffffffffffffffffffffff166000808473ffffffffffffffffffffffffffffffffffffffff1673ffffffffffffffffffffffffffffffffffffffff16815260200190815260200160002060000160009054906101000a900473ffffffffffffffffffffffffffffffffffffffff1673ffffffffffffffffffffffffffffffffffffffff16146116fe576040517f08c379a00000000000000000000000000000000000000000000000000000000081526004016116f590612a8b565b60405180910390fd5b611707826107b5565b611746576040517f08c379a000000000000000000000000000000000000000000000000000000000815260040161173d90612af7565b60405180910390fd5b600260008373ffffffffffffffffffffffffffffffffffffffff1673ffffffffffffffffffffffffffffffffffffffff16815260200190815260200160002060050160009054906101000a900460ff16905092915050565b600080600160003373ffffffffffffffffffffffffffffffffffffffff1673ffffffffffffffffffffffffffffffffffffffff16815260200190815260200160002060000180546117ee9061252a565b905011611830576040517f08c379a00000000000000000000000000000000000000000000000000000000081526004016118279061298d565b60405180910390fd5b600160003373ffffffffffffffffffffffffffffffffffffffff1673ffffffffffffffffffffffffffffffffffffffff16815260200190815260200160002060010154905090565b6000801b81036118bd576040517f08c379a00000000000000000000000000000000000000000000000000000000081526004016118b490612dc4565b60405180910390fd5b6000600160003373ffffffffffffffffffffffffffffffffffffffff1673ffffffffffffffffffffffffffffffffffffffff168152602001908152602001600020600001805461190c9061252a565b90501161194e576040517f08c379a000000000000000000000000000000000000000000000000000000000815260040161194590612e56565b60405180910390fd5b662386f26fc10000600160003373ffffffffffffffffffffffffffffffffffffffff1673ffffffffffffffffffffffffffffffffffffffff16815260200190815260200160002060010154116119d9576040517f08c379a00000000000000000000000000000000000000000000000000000000081526004016119d0906129f9565b60405180910390fd5b8173ffffffffffffffffffffffffffffffffffffffff166000808473ffffffffffffffffffffffffffffffffffffffff1673ffffffffffffffffffffffffffffffffffffffff16815260200190815260200160002060010160009054906101000a900473ffffffffffffffffffffffffffffffffffffffff1673ffffffffffffffffffffffffffffffffffffffff1603611aa8576040517f08c379a0000000000000000000000000000000000000000000000000000000008152600401611a9f90612ec2565b60405180910390fd5b60405180606001604052803373ffffffffffffffffffffffffffffffffffffffff1681526020018373ffffffffffffffffffffffffffffffffffffffff168152602001828152506000808473ffffffffffffffffffffffffffffffffffffffff1673ffffffffffffffffffffffffffffffffffffffff16815260200190815260200160002060008201518160000160006101000a81548173ffffffffffffffffffffffffffffffffffffffff021916908373ffffffffffffffffffffffffffffffffffffffff16021790555060208201518160010160006101000a81548173ffffffffffffffffffffffffffffffffffffffff021916908373ffffffffffffffffffffffffffffffffffffffff16021790555060408201518160020155905050600160003373ffffffffffffffffffffffffffffffffffffffff1673ffffffffffffffffffffffffffffffffffffffff1681526020019081526020016000206002016000815480929190611c1b90612ee2565b91905055508173ffffffffffffffffffffffffffffffffffffffff163373ffffffffffffffffffffffffffffffffffffffff167f2138b9314634f9fdd5e49bee3eaf17ca557b6637524d0db759711c3bfcd3d85060405160405180910390a35050565b6000611c89836107b5565b15611cc9576040517f08c379a0000000000000000000000000000000000000000000000000000000008152600401611cc090612f76565b60405180910390fd5b6000801b8203611d0e576040517f08c379a0000000000000000000000000000000000000000000000000000000008152600401611d0590612dc4565b60405180910390fd5b816000808573ffffffffffffffffffffffffffffffffffffffff1673ffffffffffffffffffffffffffffffffffffffff1681526020019081526020016000206002015414611d91576040517f08c379a0000000000000000000000000000000000000000000000000000000008152600401611d8890612fe2565b60405180910390fd5b60008060008573ffffffffffffffffffffffffffffffffffffffff1673ffffffffffffffffffffffffffffffffffffffff1681526020019081526020016000206040518060600160405290816000820160009054906101000a900473ffffffffffffffffffffffffffffffffffffffff1673ffffffffffffffffffffffffffffffffffffffff1673ffffffffffffffffffffffffffffffffffffffff1681526020016001820160009054906101000a900473ffffffffffffffffffffffffffffffffffffffff1673ffffffffffffffffffffffffffffffffffffffff1673ffffffffffffffffffffffffffffffffffffffff168152602001600282015481525050905060405180608001604052808281526020014281526020016001815260200160011515815250600260008673ffffffffffffffffffffffffffffffffffffffff1673ffffffffffffffffffffffffffffffffffffffff16815260200190815260200160002060008201518160000160008201518160000160006101000a81548173ffffffffffffffffffffffffffffffffffffffff021916908373ffffffffffffffffffffffffffffffffffffffff16021790555060208201518160010160006101000a81548173ffffffffffffffffffffffffffffffffffffffff021916908373ffffffffffffffffffffffffffffffffffffffff160217905550604082015181600201555050602082015181600301556040820151816004015560608201518160050160006101000a81548160ff0219169083151502179055509050506000808573ffffffffffffffffffffffffffffffffffffffff1673ffffffffffffffffffffffffffffffffffffffff16815260200190815260200160002060405161201d919061311d565b60405180910390207fc3e258c2735e50ca59d445076e61f3e568466d65196515d5fa3cef1518fff1da60405160405180910390a2600260008573ffffffffffffffffffffffffffffffffffffffff1673ffffffffffffffffffffffffffffffffffffffff16815260200190815260200160002060050160009054906101000a900460ff1691505092915050565b5080546120b69061252a565b6000825580601f106120c857506120e7565b601f0160209004906000526020600020908101906120e691906120ea565b5b50565b5b808211156121035760008160009055506001016120eb565b5090565b6000604051905090565b600080fd5b600080fd5b600080fd5b600080fd5b6000601f19601f8301169050919050565b7f4e487b7100000000000000000000000000000000000000000000000000000000600052604160045260246000fd5b61216e82612125565b810181811067ffffffffffffffff8211171561218d5761218c612136565b5b80604052505050565b60006121a0612107565b90506121ac8282612165565b919050565b600067ffffffffffffffff8211156121cc576121cb612136565b5b6121d582612125565b9050602081019050919050565b82818337600083830152505050565b60006122046121ff846121b1565b612196565b9050828152602081018484840111156122205761221f612120565b5b61222b8482856121e2565b509392505050565b600082601f8301126122485761224761211b565b5b81356122588482602086016121f1565b91505092915050565b60006020828403121561227757612276612111565b5b600082013567ffffffffffffffff81111561229557612294612116565b5b6122a184828501612233565b91505092915050565b600073ffffffffffffffffffffffffffffffffffffffff82169050919050565b60006122d5826122aa565b9050919050565b6122e5816122ca565b81146122f057600080fd5b50565b600081359050612302816122dc565b92915050565b60006020828403121561231e5761231d612111565b5b600061232c848285016122f3565b91505092915050565b6000806040838503121561234c5761234b612111565b5b600061235a858286016122f3565b925050602061236b858286016122f3565b9150509250929050565b6000819050919050565b61238881612375565b82525050565b60006020820190506123a3600083018461237f565b92915050565b60008115159050919050565b6123be816123a9565b82525050565b60006020820190506123d960008301846123b5565b92915050565b60006040820190506123f460008301856123b5565b612401602083018461237f565b9392505050565b6000819050919050565b61241b81612408565b811461242657600080fd5b50565b60008135905061243881612412565b92915050565b6000806040838503121561245557612454612111565b5b6000612463858286016122f3565b925050602061247485828601612429565b9150509250929050565b600082825260208201905092915050565b7f436f6d70616e79206e616d652063616e6e6f7420626520656d70747900000000600082015250565b60006124c5601c8361247e565b91506124d08261248f565b602082019050919050565b600060208201905081810360008301526124f4816124b8565b9050919050565b7f4e487b7100000000000000000000000000000000000000000000000000000000600052602260045260246000fd5b6000600282049050600182168061254257607f821691505b602082108103612555576125546124fb565b5b50919050565b7f436f6d70616e7920616c72656164792072656769737465726564000000000000600082015250565b6000612591601a8361247e565b915061259c8261255b565b602082019050919050565b600060208201905081810360008301526125c081612584565b9050919050565b600081519050919050565b60008190508160005260206000209050919050565b60006020601f8301049050919050565b600082821b905092915050565b6000600883026126347fffffffffffffffffffffffffffffffffffffffffffffffffffffffffffffffff826125f7565b61263e86836125f7565b95508019841693508086168417925050509392505050565b6000819050919050565b600061267b61267661267184612375565b612656565b612375565b9050919050565b6000819050919050565b61269583612660565b6126a96126a182612682565b848454612604565b825550505050565b600090565b6126be6126b1565b6126c981848461268c565b505050565b5b818110156126ed576126e26000826126b6565b6001810190506126cf565b5050565b601f82111561273257612703816125d2565b61270c846125e7565b8101602085101561271b578190505b61272f612727856125e7565b8301826126ce565b50505b505050565b600082821c905092915050565b600061275560001984600802612737565b1980831691505092915050565b600061276e8383612744565b9150826002028217905092915050565b612787826125c7565b67ffffffffffffffff8111156127a05761279f612136565b5b6127aa825461252a565b6127b58282856126f1565b600060209050601f8311600181146127e857600084156127d6578287015190505b6127e08582612762565b865550612848565b601f1984166127f6866125d2565b60005b8281101561281e578489015182556001820191506020850194506020810190506127f9565b8683101561283b5784890151612837601f891682612744565b8355505b6001600288020188555050505b505050505050565b60005b8381101561286e578082015181840152602081019050612853565b60008484015250505050565b6000612885826125c7565b61288f818561247e565b935061289f818560208601612850565b6128a881612125565b840191505092915050565b600060208201905081810360008301526128cd818461287a565b905092915050565b7f55736572206973206e6f742063757272656e746c79206c6f6767656420696e00600082015250565b600061290b601f8361247e565b9150612916826128d5565b602082019050919050565b6000602082019050818103600083015261293a816128fe565b9050919050565b7f436f6d70616e79206e6f74207265676973746572656400000000000000000000600082015250565b600061297760168361247e565b915061298282612941565b602082019050919050565b600060208201905081810360008301526129a68161296a565b9050919050565b7f4465706f73697420736f6d652045544820666972737400000000000000000000600082015250565b60006129e360168361247e565b91506129ee826129ad565b602082019050919050565b60006020820190508181036000830152612a12816129d6565b9050919050565b7f5573657220646f65736e27742065786973747320696e207468697320636f6d7060008201527f616e790000000000000000000000000000000000000000000000000000000000602082015250565b6000612a7560238361247e565b9150612a8082612a19565b604082019050919050565b60006020820190508181036000830152612aa481612a68565b9050919050565b7f4c6f67696e2064657461696c20646f6573206e6f742065786973747300000000600082015250565b6000612ae1601c8361247e565b9150612aec82612aab565b602082019050919050565b60006020820190508181036000830152612b1081612ad4565b9050919050565b7f5573657220646f65736e27742062656c6f6e6720746f20796f757220636f6d7060008201527f616e790000000000000000000000000000000000000000000000000000000000602082015250565b6000612b7360238361247e565b9150612b7e82612b17565b604082019050919050565b60006020820190508181036000830152612ba281612b66565b9050919050565b7f56616c75652063616e6e6f74206265206c657373207468616e20300000000000600082015250565b6000612bdf601b8361247e565b9150612bea82612ba9565b602082019050919050565b60006020820190508181036000830152612c0e81612bd2565b9050919050565b7f4e487b7100000000000000000000000000000000000000000000000000000000600052601160045260246000fd5b6000612c4f82612375565b9150612c5a83612375565b9250828201905080821115612c7257612c71612c15565b5b92915050565b7f4c6f67696e2044657461696c7320646f65736e27742065786973747300000000600082015250565b6000612cae601c8361247e565b9150612cb982612c78565b602082019050919050565b60006020820190508181036000830152612cdd81612ca1565b9050919050565b7f4e487b7100000000000000000000000000000000000000000000000000000000600052601260045260246000fd5b6000612d1e82612375565b9150612d2983612375565b925082612d3957612d38612ce4565b5b828204905092915050565b6000612d4f82612375565b9150612d5a83612375565b9250828203905081811115612d7257612d71612c15565b5b92915050565b7f496e76616c69642070617373776f726420686173680000000000000000000000600082015250565b6000612dae60158361247e565b9150612db982612d78565b602082019050919050565b60006020820190508181036000830152612ddd81612da1565b9050919050565b7f4f6e6c7920436f6d70616e6965732063616e207265676973746572207468656960008201527f7220757365727300000000000000000000000000000000000000000000000000602082015250565b6000612e4060278361247e565b9150612e4b82612de4565b604082019050919050565b60006020820190508181036000830152612e6f81612e33565b9050919050565b7f5573657220616c72656164792072656769737465726564000000000000000000600082015250565b6000612eac60178361247e565b9150612eb782612e76565b602082019050919050565b60006020820190508181036000830152612edb81612e9f565b9050919050565b6000612eed82612375565b91507fffffffffffffffffffffffffffffffffffffffffffffffffffffffffffffffff8203612f1f57612f1e612c15565b5b600182019050919050565b7f4c6f67696e2044657461696c7320616c72656164792065786973747300000000600082015250565b6000612f60601c8361247e565b9150612f6b82612f2a565b602082019050919050565b60006020820190508181036000830152612f8f81612f53565b9050919050565b7f496e636f72726563742070617373776f72640000000000000000000000000000600082015250565b6000612fcc60128361247e565b9150612fd782612f96565b602082019050919050565b60006020820190508181036000830152612ffb81612fbf565b9050919050565b60008160001c9050919050565b600073ffffffffffffffffffffffffffffffffffffffff82169050919050565b600061304261303d83613002565b61300f565b9050919050565b613052816122ca565b82525050565b60006130648383613049565b60208301905092915050565b6000819050919050565b600061308d61308883613002565b613070565b9050919050565b61309d81612408565b82525050565b60006130af8383613094565b60208301905092915050565b6000820160008083015490506130d08161302f565b6130da8582613058565b945050600183015490506130ed8161302f565b6130f78582613058565b9450506002830154905061310a8161307a565b61311485826130a3565b94505050505050565b600061312982846130bb565b6060820191508190509291505056fea2646970667358221220980ee1d77863a5b63c36785dfa903874c948788c9d05b89e59cb327f297bf34764736f6c63430008130033",
  "immutableReferences": {},
  "source": "// SPDX-License-Identifier: MIT\npragma solidity ^0.8.0;\n\ncontract CompanyRegistry {\n    struct User {\n        address company;\n        address walletAddress;\n        bytes32 passwordHash;\n    }\n    struct Company {\n        string name;\n        uint256 deposit;\n        uint256 totalUsers;\n    }\n\n    struct Login {\n        User user;\n        uint256 lastLoginTime;\n        uint256 totalLoggedInDays;\n        bool isLoggedIn;\n    }\n    mapping(address => User) private userMap;\n    mapping(address => Company) private companies;\n    mapping(address => Login) private LoginDetails;\n\n    event CompanyRegistered(address indexed companyAddress, string name);\n    event DepositAdded(address indexed companyAddress, uint256 amount);\n    event CompanyDeleted(address indexed companyAddress);\n    event UserLoggedIn(User indexed user);\n    event UserRewarded(address indexed userAddress, uint256 amount);\n    event UserRegistered(\n        address indexed companyAddress,\n        address indexed userAddress\n    );\n\n    function doesLoginExist(address walletAddress) public view returns (bool) {\n        require(\n            bytes(companies[msg.sender].name).length > 0,\n            \"Company not registered\"\n        );\n        require(\n            companies[msg.sender].deposit > 10000000000000000 wei,\n            \"Deposit some ETH first\"\n        );\n        require(\n            userMap[walletAddress].company == msg.sender,\n            \"User doesn't belong to your company\"\n        );\n\n        return LoginDetails[walletAddress].user.walletAddress == walletAddress;\n    }\n\n    function loginUser(address walletAddress, bytes32 passwordHash)\n        public\n        returns (bool)\n    {\n        require(!doesLoginExist(walletAddress), \"Login Details already exists\");\n        require(passwordHash != 0, \"Invalid password hash\");\n        require(\n            userMap[walletAddress].passwordHash == passwordHash,\n            \"Incorrect password\"\n        );\n        User memory userInfo = userMap[walletAddress];\n        LoginDetails[walletAddress] = Login({\n            user: userInfo,\n            lastLoginTime: block.timestamp,\n            totalLoggedInDays: 1,\n            isLoggedIn: true\n        });\n        emit UserLoggedIn(userMap[walletAddress]);\n        return LoginDetails[walletAddress].isLoggedIn;\n    }\n\n    // function checkForRewards() public {}\n    function gettotalLoggedInDays(address CompanyAddress, address userAddress)\n        public\n        view\n        returns (uint256)\n    {\n        require(\n            bytes(companies[CompanyAddress].name).length > 0,\n            \"Company not registered\"\n        );\n        require(\n            companies[msg.sender].deposit > 10000000000000000 wei,\n            \"Deposit some ETH first\"\n        );\n        require(\n            userMap[userAddress].company == CompanyAddress,\n            \"User doesn't exists in this company\"\n        );\n        require(doesLoginExist(userAddress), \"Login detail does not exists\");\n        return LoginDetails[userAddress].totalLoggedInDays;\n    }\n\n    function getIsLoggedInStatus(address CompanyAddress, address userAddress)\n        public\n        view\n        returns (bool)\n    {\n        require(\n            bytes(companies[CompanyAddress].name).length > 0,\n            \"Company not registered\"\n        );\n        require(\n            companies[CompanyAddress].deposit > 10000000000000000 wei,\n            \"Deposit some ETH first\"\n        );\n\n        require(\n            userMap[userAddress].company == CompanyAddress,\n            \"User doesn't exists in this company\"\n        );\n        require(doesLoginExist(userAddress), \"Login detail does not exists\");\n        return LoginDetails[userAddress].isLoggedIn;\n    }\n\n    function registerCompany(string memory name) public {\n        require(bytes(name).length > 0, \"Company name cannot be empty\");\n        require(\n            bytes(companies[msg.sender].name).length == 0,\n            \"Company already registered\"\n        );\n        companies[msg.sender] = Company(name, 0, 0);\n        emit CompanyRegistered(msg.sender, name);\n    }\n\n    function addDeposit() public payable {\n        require(\n            bytes(companies[msg.sender].name).length > 0,\n            \"Company not registered\"\n        );\n        require(msg.value > 0, \"Value cannot be less than 0\");\n        companies[msg.sender].deposit += msg.value;\n        emit DepositAdded(msg.sender, msg.value);\n    }\n\n    function deleteCompany() public {\n        require(\n            bytes(companies[msg.sender].name).length > 0,\n            \"Company not registered\"\n        );\n        uint256 balance = companies[msg.sender].deposit;\n        delete companies[msg.sender];\n        emit CompanyDeleted(msg.sender);\n        if (balance > 0) {\n            payable(msg.sender).transfer(balance);\n        }\n    }\n\n    function registerUser(address walletAddress, bytes32 passwordHash) public {\n        require(passwordHash != 0, \"Invalid password hash\");\n        require(\n            bytes(companies[msg.sender].name).length > 0,\n            \"Only Companies can register their users\"\n        );\n        require(\n            companies[msg.sender].deposit > 10000000000000000 wei,\n            \"Deposit some ETH first\"\n        );\n        require(\n            userMap[walletAddress].walletAddress != walletAddress,\n            \"User already registered\"\n        );\n\n        userMap[walletAddress] = User(msg.sender, walletAddress, passwordHash);\n        companies[msg.sender].totalUsers++;\n        emit UserRegistered(msg.sender, walletAddress);\n    }\n\n    function getCompanyDeposit() public view returns (uint256) {\n        require(\n            bytes(companies[msg.sender].name).length > 0,\n            \"Company not registered\"\n        );\n        return companies[msg.sender].deposit;\n    }\n\n    function lastLoginTime(address walletAddress)\n        public\n        view\n        returns (uint256)\n    {\n        require(\n            bytes(companies[msg.sender].name).length > 0,\n            \"Company not registered\"\n        );\n        require(\n            companies[msg.sender].deposit > 10000000000000000 wei,\n            \"Deposit some ETH first\"\n        );\n        require(\n            userMap[walletAddress].company == msg.sender,\n            \"User doesn't belong to your company\"\n        );\n\n        return (LoginDetails[walletAddress].lastLoginTime);\n    }\n\n    // function giveReward(address userAddress) private {\n    //     uint256 rewardAmount = companies[msg.sender].deposit /\n    //         companies[msg.sender].totalUsers;\n    //     payable(LoginDetails[userAddress].user.walletAddress).transfer(\n    //         rewardAmount\n    //     );\n    //     emit UserRewarded(\n    //         LoginDetails[userAddress].user.walletAddress,\n    //         rewardAmount\n    //     );\n    // }\n\n    //Update login status\n    function updateLoggedInStatus(address userAddress)\n        public\n        returns (bool, uint256)\n    {\n        require(doesLoginExist(userAddress), \"Login Details doesn't exists\");\n        uint256 currentDay = block.timestamp / 1 days;\n        uint256 lastLoginDay = LoginDetails[userAddress].lastLoginTime / 1 days;\n        if (currentDay > lastLoginDay) {\n            if (currentDay - lastLoginDay == 1) {\n                LoginDetails[userAddress].totalLoggedInDays += 1;\n            } else if (currentDay - lastLoginDay >= 2) {\n                LoginDetails[userAddress].totalLoggedInDays = 1;\n            }\n            LoginDetails[userAddress].lastLoginTime = block.timestamp;\n        }\n        LoginDetails[userAddress].isLoggedIn = true;\n        if (LoginDetails[userAddress].totalLoggedInDays == 7) {\n            // reward user with ETH\n            uint256 rewardAmount = companies[msg.sender].deposit /\n                companies[msg.sender].totalUsers;\n            payable(LoginDetails[userAddress].user.walletAddress).transfer(\n                rewardAmount\n            );\n            emit UserRewarded(\n                LoginDetails[userAddress].user.walletAddress,\n                rewardAmount\n            );\n            // reset totalLoggedInDays\n            LoginDetails[userAddress].totalLoggedInDays = 0;\n        }\n        return (\n            LoginDetails[userAddress].isLoggedIn,\n            LoginDetails[userAddress].totalLoggedInDays\n        );\n    }\n\n    function logoutUser(address walletAddress) public {\n        require(\n            doesLoginExist(walletAddress),\n            \"User is not currently logged in\"\n        );\n        LoginDetails[walletAddress].isLoggedIn = false;\n    }\n}\n",
  "sourcePath": "/home/munshi/Documents/Programs/BlockAuth/Improved Version/Blockchain-Based-Incentivized-Authentication-System/blockchain/contracts/CompanyRegistry copy.sol",
  "compiler": {
    "name": "solc",
    "version": "0.8.19+commit.7dd6d404.Emscripten.clang"
  },
  "schemaVersion": "3.4.16",
  "updatedAt": "2024-02-20T09:29:01.332Z",
  "devdoc": {
    "kind": "dev",
    "methods": {},
    "version": 1
  },
  "userdoc": {
    "kind": "user",
    "methods": {},
    "version": 1
  }
}