{
  "contractName": "AuthenticationServiceProvider",
  "abi": [
    {
      "inputs": [],
      "stateMutability": "nonpayable",
      "type": "constructor"
    },
    {
      "anonymous": false,
      "inputs": [
        {
          "indexed": true,
          "internalType": "address",
          "name": "companyAddress",
          "type": "address"
        }
      ],
      "name": "CompanyDeleted",
      "type": "event"
    },
    {
      "anonymous": false,
      "inputs": [
        {
          "indexed": true,
          "internalType": "address",
          "name": "companyAddress",
          "type": "address"
        },
        {
          "indexed": false,
          "internalType": "string",
          "name": "name",
          "type": "string"
        }
      ],
      "name": "CompanyRegistered",
      "type": "event"
    },
    {
      "anonymous": false,
      "inputs": [
        {
          "indexed": true,
          "internalType": "address",
          "name": "companyAddress",
          "type": "address"
        },
        {
          "indexed": false,
          "internalType": "uint256",
          "name": "amount",
          "type": "uint256"
        }
      ],
      "name": "DepositAdded",
      "type": "event"
    },
    {
      "anonymous": false,
      "inputs": [
        {
          "components": [
            {
              "internalType": "address",
              "name": "company",
              "type": "address"
            },
            {
              "internalType": "address",
              "name": "walletAddress",
              "type": "address"
            },
            {
              "internalType": "bytes32",
              "name": "passwordHash",
              "type": "bytes32"
            }
          ],
          "indexed": true,
          "internalType": "struct CompanyRegistry.User",
          "name": "user",
          "type": "tuple"
        }
      ],
      "name": "UserLoggedIn",
      "type": "event"
    },
    {
      "anonymous": false,
      "inputs": [
        {
          "indexed": true,
          "internalType": "address",
          "name": "companyAddress",
          "type": "address"
        },
        {
          "indexed": true,
          "internalType": "address",
          "name": "userAddress",
          "type": "address"
        }
      ],
      "name": "UserRegistered",
      "type": "event"
    },
    {
      "anonymous": false,
      "inputs": [
        {
          "indexed": true,
          "internalType": "address",
          "name": "userAddress",
          "type": "address"
        },
        {
          "indexed": false,
          "internalType": "uint256",
          "name": "amount",
          "type": "uint256"
        }
      ],
      "name": "UserRewarded",
      "type": "event"
    },
    {
      "inputs": [],
      "name": "addDeposit",
      "outputs": [],
      "stateMutability": "payable",
      "type": "function",
      "payable": true
    },
    {
      "inputs": [],
      "name": "deleteCompany",
      "outputs": [],
      "stateMutability": "nonpayable",
      "type": "function"
    },
    {
      "inputs": [
        {
          "internalType": "address",
          "name": "walletAddress",
          "type": "address"
        }
      ],
      "name": "doesLoginExist",
      "outputs": [
        {
          "internalType": "bool",
          "name": "",
          "type": "bool"
        }
      ],
      "stateMutability": "view",
      "type": "function",
      "constant": true
    },
    {
      "inputs": [],
      "name": "getCompanyDeposit",
      "outputs": [
        {
          "internalType": "uint256",
          "name": "",
          "type": "uint256"
        }
      ],
      "stateMutability": "view",
      "type": "function",
      "constant": true
    },
    {
      "inputs": [
        {
          "internalType": "address",
          "name": "CompanyAddress",
          "type": "address"
        },
        {
          "internalType": "address",
          "name": "userAddress",
          "type": "address"
        }
      ],
      "name": "getIsLoggedInStatus",
      "outputs": [
        {
          "internalType": "bool",
          "name": "",
          "type": "bool"
        }
      ],
      "stateMutability": "view",
      "type": "function",
      "constant": true
    },
    {
      "inputs": [],
      "name": "getRegisteredCompanyName",
      "outputs": [
        {
          "internalType": "string",
          "name": "",
          "type": "string"
        }
      ],
      "stateMutability": "view",
      "type": "function",
      "constant": true
    },
    {
      "inputs": [
        {
          "internalType": "address",
          "name": "CompanyAddress",
          "type": "address"
        },
        {
          "internalType": "address",
          "name": "userAddress",
          "type": "address"
        }
      ],
      "name": "gettotalLoggedInDays",
      "outputs": [
        {
          "internalType": "uint256",
          "name": "",
          "type": "uint256"
        }
      ],
      "stateMutability": "view",
      "type": "function",
      "constant": true
    },
    {
      "inputs": [
        {
          "internalType": "address",
          "name": "walletAddress",
          "type": "address"
        }
      ],
      "name": "lastLoginTime",
      "outputs": [
        {
          "internalType": "uint256",
          "name": "",
          "type": "uint256"
        }
      ],
      "stateMutability": "view",
      "type": "function",
      "constant": true
    },
    {
      "inputs": [
        {
          "internalType": "address",
          "name": "walletAddress",
          "type": "address"
        },
        {
          "internalType": "bytes32",
          "name": "passwordHash",
          "type": "bytes32"
        }
      ],
      "name": "loginUser",
      "outputs": [
        {
          "internalType": "bool",
          "name": "",
          "type": "bool"
        }
      ],
      "stateMutability": "nonpayable",
      "type": "function"
    },
    {
      "inputs": [
        {
          "internalType": "address",
          "name": "walletAddress",
          "type": "address"
        }
      ],
      "name": "logoutUser",
      "outputs": [],
      "stateMutability": "nonpayable",
      "type": "function"
    },
    {
      "inputs": [],
      "name": "owner",
      "outputs": [
        {
          "internalType": "address",
          "name": "",
          "type": "address"
        }
      ],
      "stateMutability": "view",
      "type": "function",
      "constant": true
    },
    {
      "inputs": [
        {
          "internalType": "string",
          "name": "name",
          "type": "string"
        }
      ],
      "name": "registerCompany",
      "outputs": [],
      "stateMutability": "nonpayable",
      "type": "function"
    },
    {
      "inputs": [
        {
          "internalType": "address",
          "name": "walletAddress",
          "type": "address"
        },
        {
          "internalType": "bytes32",
          "name": "passwordHash",
          "type": "bytes32"
        }
      ],
      "name": "registerUser",
      "outputs": [],
      "stateMutability": "nonpayable",
      "type": "function"
    },
    {
      "inputs": [
        {
          "internalType": "address",
          "name": "userAddress",
          "type": "address"
        }
      ],
      "name": "updateLoggedInStatus",
      "outputs": [
        {
          "internalType": "bool",
          "name": "",
          "type": "bool"
        },
        {
          "internalType": "uint256",
          "name": "",
          "type": "uint256"
        }
      ],
      "stateMutability": "nonpayable",
      "type": "function"
    }
  ],
  "bytecode": "0x608060405234801561000f575f80fd5b503360035f6101000a81548173ffffffffffffffffffffffffffffffffffffffff021916908373ffffffffffffffffffffffffffffffffffffffff1602179055506131c88061005d5f395ff3fe6080604052600436106100db575f3560e01c80638da5cb5b1161007e578063c89f883e11610058578063c89f883e14610294578063cc6911b6146102d0578063d7e0b6e3146102fa578063f7a0490314610322576100db565b80638da5cb5b146101f1578063a73779a61461021b578063b4bcca0314610258576100db565b80633f3c2ad2116100ba5780633f3c2ad21461016b5780634a58db19146101a75780635045499c146101b15780637f191b8d146101c7576100db565b8062544194146100df57806309df50601461010757806319abc6a81461012f575b5f80fd5b3480156100ea575f80fd5b5061010560048036038101906101009190612315565b61035e565b005b348015610112575f80fd5b5061012d600480360381019061012891906123b6565b610502565b005b34801561013a575f80fd5b50610155600480360381019061015091906123e1565b6105a4565b6040516101629190612437565b60405180910390f35b348015610176575f80fd5b50610191600480360381019061018c91906123b6565b610817565b60405161019e919061246a565b60405180910390f35b6101af610a90565b005b3480156101bc575f80fd5b506101c5610c05565b005b3480156101d2575f80fd5b506101db610dc5565b6040516101e891906124fd565b60405180910390f35b3480156101fc575f80fd5b50610205610e92565b604051610212919061252c565b60405180910390f35b348015610226575f80fd5b50610241600480360381019061023c91906123b6565b610eb7565b60405161024f929190612545565b60405180910390f35b348015610263575f80fd5b5061027e600480360381019061027991906123b6565b611205565b60405161028b9190612437565b60405180910390f35b34801561029f575f80fd5b506102ba60048036038101906102b591906123e1565b61142f565b6040516102c7919061246a565b60405180910390f35b3480156102db575f80fd5b506102e46116ae565b6040516102f19190612437565b60405180910390f35b348015610305575f80fd5b50610320600480360381019061031b919061259f565b611782565b005b34801561032d575f80fd5b506103486004803603810190610343919061259f565b611b75565b604051610355919061246a565b60405180910390f35b5f8151116103a1576040517f08c379a000000000000000000000000000000000000000000000000000000000815260040161039890612627565b60405180910390fd5b5f60015f3373ffffffffffffffffffffffffffffffffffffffff1673ffffffffffffffffffffffffffffffffffffffff1681526020019081526020015f205f0180546103ec90612672565b90501461042e576040517f08c379a0000000000000000000000000000000000000000000000000000000008152600401610425906126ec565b60405180910390fd5b60405180606001604052808281526020015f81526020015f81525060015f3373ffffffffffffffffffffffffffffffffffffffff1673ffffffffffffffffffffffffffffffffffffffff1681526020019081526020015f205f820151815f01908161049991906128a7565b5060208201518160010155604082015181600201559050503373ffffffffffffffffffffffffffffffffffffffff167f76686aa361308f4a08557cca1a847299ce61e5602a3495cd359a599a1dca438c826040516104f791906124fd565b60405180910390a250565b61050b81610817565b61054a576040517f08c379a0000000000000000000000000000000000000000000000000000000008152600401610541906129c0565b60405180910390fd5b5f60025f8373ffffffffffffffffffffffffffffffffffffffff1673ffffffffffffffffffffffffffffffffffffffff1681526020019081526020015f206005015f6101000a81548160ff02191690831515021790555050565b5f8060015f8573ffffffffffffffffffffffffffffffffffffffff1673ffffffffffffffffffffffffffffffffffffffff1681526020019081526020015f205f0180546105f090612672565b905011610632576040517f08c379a000000000000000000000000000000000000000000000000000000000815260040161062990612a28565b60405180910390fd5b662386f26fc1000060015f3373ffffffffffffffffffffffffffffffffffffffff1673ffffffffffffffffffffffffffffffffffffffff1681526020019081526020015f2060010154116106bb576040517f08c379a00000000000000000000000000000000000000000000000000000000081526004016106b290612a90565b60405180910390fd5b8273ffffffffffffffffffffffffffffffffffffffff165f808473ffffffffffffffffffffffffffffffffffffffff1673ffffffffffffffffffffffffffffffffffffffff1681526020019081526020015f205f015f9054906101000a900473ffffffffffffffffffffffffffffffffffffffff1673ffffffffffffffffffffffffffffffffffffffff1614610786576040517f08c379a000000000000000000000000000000000000000000000000000000000815260040161077d90612b1e565b60405180910390fd5b61078f82610817565b6107ce576040517f08c379a00000000000000000000000000000000000000000000000000000000081526004016107c590612b86565b60405180910390fd5b60025f8373ffffffffffffffffffffffffffffffffffffffff1673ffffffffffffffffffffffffffffffffffffffff1681526020019081526020015f2060040154905092915050565b5f8060015f3373ffffffffffffffffffffffffffffffffffffffff1673ffffffffffffffffffffffffffffffffffffffff1681526020019081526020015f205f01805461086390612672565b9050116108a5576040517f08c379a000000000000000000000000000000000000000000000000000000000815260040161089c90612a28565b60405180910390fd5b662386f26fc1000060015f3373ffffffffffffffffffffffffffffffffffffffff1673ffffffffffffffffffffffffffffffffffffffff1681526020019081526020015f20600101541161092e576040517f08c379a000000000000000000000000000000000000000000000000000000000815260040161092590612a90565b60405180910390fd5b3373ffffffffffffffffffffffffffffffffffffffff165f808473ffffffffffffffffffffffffffffffffffffffff1673ffffffffffffffffffffffffffffffffffffffff1681526020019081526020015f205f015f9054906101000a900473ffffffffffffffffffffffffffffffffffffffff1673ffffffffffffffffffffffffffffffffffffffff16146109f9576040517f08c379a00000000000000000000000000000000000000000000000000000000081526004016109f090612c14565b60405180910390fd5b8173ffffffffffffffffffffffffffffffffffffffff1660025f8473ffffffffffffffffffffffffffffffffffffffff1673ffffffffffffffffffffffffffffffffffffffff1681526020019081526020015f205f016001015f9054906101000a900473ffffffffffffffffffffffffffffffffffffffff1673ffffffffffffffffffffffffffffffffffffffff16149050919050565b5f60015f3373ffffffffffffffffffffffffffffffffffffffff1673ffffffffffffffffffffffffffffffffffffffff1681526020019081526020015f205f018054610adb90612672565b905011610b1d576040517f08c379a0000000000000000000000000000000000000000000000000000000008152600401610b1490612a28565b60405180910390fd5b5f3411610b5f576040517f08c379a0000000000000000000000000000000000000000000000000000000008152600401610b5690612c7c565b60405180910390fd5b3460015f3373ffffffffffffffffffffffffffffffffffffffff1673ffffffffffffffffffffffffffffffffffffffff1681526020019081526020015f206001015f828254610bae9190612cc7565b925050819055503373ffffffffffffffffffffffffffffffffffffffff167fa2a2db73af12c9f5bef6303364d44e78f97e992c353cd8659f3474c471427e9b34604051610bfb9190612437565b60405180910390a2565b5f60015f3373ffffffffffffffffffffffffffffffffffffffff1673ffffffffffffffffffffffffffffffffffffffff1681526020019081526020015f205f018054610c5090612672565b905011610c92576040517f08c379a0000000000000000000000000000000000000000000000000000000008152600401610c8990612a28565b60405180910390fd5b5f60015f3373ffffffffffffffffffffffffffffffffffffffff1673ffffffffffffffffffffffffffffffffffffffff1681526020019081526020015f2060010154905060015f3373ffffffffffffffffffffffffffffffffffffffff1673ffffffffffffffffffffffffffffffffffffffff1681526020019081526020015f205f8082015f610d229190612170565b600182015f9055600282015f905550503373ffffffffffffffffffffffffffffffffffffffff167f2564dc12f5c7d4be57c9d0417c313a76d08624ac131a3772f9abeedff476161160405160405180910390a25f811115610dc2573373ffffffffffffffffffffffffffffffffffffffff166108fc8290811502906040515f60405180830381858888f19350505050158015610dc0573d5f803e3d5ffd5b505b50565b606060015f3373ffffffffffffffffffffffffffffffffffffffff1673ffffffffffffffffffffffffffffffffffffffff1681526020019081526020015f205f018054610e1190612672565b80601f0160208091040260200160405190810160405280929190818152602001828054610e3d90612672565b8015610e885780601f10610e5f57610100808354040283529160200191610e88565b820191905f5260205f20905b815481529060010190602001808311610e6b57829003601f168201915b5050505050905090565b60035f9054906101000a900473ffffffffffffffffffffffffffffffffffffffff1681565b5f80610ec283610817565b610f01576040517f08c379a0000000000000000000000000000000000000000000000000000000008152600401610ef890612d44565b60405180910390fd5b5f6201518042610f119190612d8f565b90505f6201518060025f8773ffffffffffffffffffffffffffffffffffffffff1673ffffffffffffffffffffffffffffffffffffffff1681526020019081526020015f2060030154610f639190612d8f565b90508082111561107d5760018183610f7b9190612dbf565b03610fdc57600160025f8773ffffffffffffffffffffffffffffffffffffffff1673ffffffffffffffffffffffffffffffffffffffff1681526020019081526020015f206004015f828254610fd09190612cc7565b92505081905550611037565b60028183610fea9190612dbf565b1061103657600160025f8773ffffffffffffffffffffffffffffffffffffffff1673ffffffffffffffffffffffffffffffffffffffff1681526020019081526020015f20600401819055505b5b4260025f8773ffffffffffffffffffffffffffffffffffffffff1673ffffffffffffffffffffffffffffffffffffffff1681526020019081526020015f20600301819055505b600160025f8773ffffffffffffffffffffffffffffffffffffffff1673ffffffffffffffffffffffffffffffffffffffff1681526020019081526020015f206005015f6101000a81548160ff021916908315150217905550600760025f8773ffffffffffffffffffffffffffffffffffffffff1673ffffffffffffffffffffffffffffffffffffffff1681526020019081526020015f20600401540361116c5761112685611f89565b5f60025f8773ffffffffffffffffffffffffffffffffffffffff1673ffffffffffffffffffffffffffffffffffffffff1681526020019081526020015f20600401819055505b60025f8673ffffffffffffffffffffffffffffffffffffffff1673ffffffffffffffffffffffffffffffffffffffff1681526020019081526020015f206005015f9054906101000a900460ff1660025f8773ffffffffffffffffffffffffffffffffffffffff1673ffffffffffffffffffffffffffffffffffffffff1681526020019081526020015f2060040154935093505050915091565b5f8060015f3373ffffffffffffffffffffffffffffffffffffffff1673ffffffffffffffffffffffffffffffffffffffff1681526020019081526020015f205f01805461125190612672565b905011611293576040517f08c379a000000000000000000000000000000000000000000000000000000000815260040161128a90612a28565b60405180910390fd5b662386f26fc1000060015f3373ffffffffffffffffffffffffffffffffffffffff1673ffffffffffffffffffffffffffffffffffffffff1681526020019081526020015f20600101541161131c576040517f08c379a000000000000000000000000000000000000000000000000000000000815260040161131390612a90565b60405180910390fd5b3373ffffffffffffffffffffffffffffffffffffffff165f808473ffffffffffffffffffffffffffffffffffffffff1673ffffffffffffffffffffffffffffffffffffffff1681526020019081526020015f205f015f9054906101000a900473ffffffffffffffffffffffffffffffffffffffff1673ffffffffffffffffffffffffffffffffffffffff16146113e7576040517f08c379a00000000000000000000000000000000000000000000000000000000081526004016113de90612c14565b60405180910390fd5b60025f8373ffffffffffffffffffffffffffffffffffffffff1673ffffffffffffffffffffffffffffffffffffffff1681526020019081526020015f20600301549050919050565b5f8060015f8573ffffffffffffffffffffffffffffffffffffffff1673ffffffffffffffffffffffffffffffffffffffff1681526020019081526020015f205f01805461147b90612672565b9050116114bd576040517f08c379a00000000000000000000000000000000000000000000000000000000081526004016114b490612a28565b60405180910390fd5b662386f26fc1000060015f8573ffffffffffffffffffffffffffffffffffffffff1673ffffffffffffffffffffffffffffffffffffffff1681526020019081526020015f206001015411611546576040517f08c379a000000000000000000000000000000000000000000000000000000000815260040161153d90612a90565b60405180910390fd5b8273ffffffffffffffffffffffffffffffffffffffff165f808473ffffffffffffffffffffffffffffffffffffffff1673ffffffffffffffffffffffffffffffffffffffff1681526020019081526020015f205f015f9054906101000a900473ffffffffffffffffffffffffffffffffffffffff1673ffffffffffffffffffffffffffffffffffffffff1614611611576040517f08c379a000000000000000000000000000000000000000000000000000000000815260040161160890612b1e565b60405180910390fd5b61161a82610817565b611659576040517f08c379a000000000000000000000000000000000000000000000000000000000815260040161165090612b86565b60405180910390fd5b60025f8373ffffffffffffffffffffffffffffffffffffffff1673ffffffffffffffffffffffffffffffffffffffff1681526020019081526020015f206005015f9054906101000a900460ff16905092915050565b5f8060015f3373ffffffffffffffffffffffffffffffffffffffff1673ffffffffffffffffffffffffffffffffffffffff1681526020019081526020015f205f0180546116fa90612672565b90501161173c576040517f08c379a000000000000000000000000000000000000000000000000000000000815260040161173390612a28565b60405180910390fd5b60015f3373ffffffffffffffffffffffffffffffffffffffff1673ffffffffffffffffffffffffffffffffffffffff1681526020019081526020015f2060010154905090565b5f801b81036117c6576040517f08c379a00000000000000000000000000000000000000000000000000000000081526004016117bd90612e3c565b60405180910390fd5b5f60015f3373ffffffffffffffffffffffffffffffffffffffff1673ffffffffffffffffffffffffffffffffffffffff1681526020019081526020015f205f01805461181190612672565b905011611853576040517f08c379a000000000000000000000000000000000000000000000000000000000815260040161184a90612eca565b60405180910390fd5b662386f26fc1000060015f3373ffffffffffffffffffffffffffffffffffffffff1673ffffffffffffffffffffffffffffffffffffffff1681526020019081526020015f2060010154116118dc576040517f08c379a00000000000000000000000000000000000000000000000000000000081526004016118d390612a90565b60405180910390fd5b8173ffffffffffffffffffffffffffffffffffffffff165f808473ffffffffffffffffffffffffffffffffffffffff1673ffffffffffffffffffffffffffffffffffffffff1681526020019081526020015f206001015f9054906101000a900473ffffffffffffffffffffffffffffffffffffffff1673ffffffffffffffffffffffffffffffffffffffff16036119a8576040517f08c379a000000000000000000000000000000000000000000000000000000000815260040161199f90612f32565b60405180910390fd5b60405180606001604052803373ffffffffffffffffffffffffffffffffffffffff1681526020018373ffffffffffffffffffffffffffffffffffffffff168152602001828152505f808473ffffffffffffffffffffffffffffffffffffffff1673ffffffffffffffffffffffffffffffffffffffff1681526020019081526020015f205f820151815f015f6101000a81548173ffffffffffffffffffffffffffffffffffffffff021916908373ffffffffffffffffffffffffffffffffffffffff1602179055506020820151816001015f6101000a81548173ffffffffffffffffffffffffffffffffffffffff021916908373ffffffffffffffffffffffffffffffffffffffff1602179055506040820151816002015590505060015f3373ffffffffffffffffffffffffffffffffffffffff1673ffffffffffffffffffffffffffffffffffffffff1681526020019081526020015f206002015f815480929190611b1290612f50565b91905055508173ffffffffffffffffffffffffffffffffffffffff163373ffffffffffffffffffffffffffffffffffffffff167f2138b9314634f9fdd5e49bee3eaf17ca557b6637524d0db759711c3bfcd3d85060405160405180910390a35050565b5f611b7f83610817565b15611bbf576040517f08c379a0000000000000000000000000000000000000000000000000000000008152600401611bb690612fe1565b60405180910390fd5b5f801b8203611c03576040517f08c379a0000000000000000000000000000000000000000000000000000000008152600401611bfa90612e3c565b60405180910390fd5b815f808573ffffffffffffffffffffffffffffffffffffffff1673ffffffffffffffffffffffffffffffffffffffff1681526020019081526020015f206002015414611c84576040517f08c379a0000000000000000000000000000000000000000000000000000000008152600401611c7b90613049565b60405180910390fd5b5f805f8573ffffffffffffffffffffffffffffffffffffffff1673ffffffffffffffffffffffffffffffffffffffff1681526020019081526020015f206040518060600160405290815f82015f9054906101000a900473ffffffffffffffffffffffffffffffffffffffff1673ffffffffffffffffffffffffffffffffffffffff1673ffffffffffffffffffffffffffffffffffffffff168152602001600182015f9054906101000a900473ffffffffffffffffffffffffffffffffffffffff1673ffffffffffffffffffffffffffffffffffffffff1673ffffffffffffffffffffffffffffffffffffffff16815260200160028201548152505090506040518060800160405280828152602001428152602001600181526020016001151581525060025f8673ffffffffffffffffffffffffffffffffffffffff1673ffffffffffffffffffffffffffffffffffffffff1681526020019081526020015f205f820151815f015f820151815f015f6101000a81548173ffffffffffffffffffffffffffffffffffffffff021916908373ffffffffffffffffffffffffffffffffffffffff1602179055506020820151816001015f6101000a81548173ffffffffffffffffffffffffffffffffffffffff021916908373ffffffffffffffffffffffffffffffffffffffff16021790555060408201518160020155505060208201518160030155604082015181600401556060820151816005015f6101000a81548160ff0219169083151502179055509050505f808573ffffffffffffffffffffffffffffffffffffffff1673ffffffffffffffffffffffffffffffffffffffff1681526020019081526020015f20604051611eff9190613178565b60405180910390207fc3e258c2735e50ca59d445076e61f3e568466d65196515d5fa3cef1518fff1da60405160405180910390a260025f8573ffffffffffffffffffffffffffffffffffffffff1673ffffffffffffffffffffffffffffffffffffffff1681526020019081526020015f206005015f9054906101000a900460ff1691505092915050565b5f60015f3373ffffffffffffffffffffffffffffffffffffffff1673ffffffffffffffffffffffffffffffffffffffff1681526020019081526020015f206002015460015f3373ffffffffffffffffffffffffffffffffffffffff1673ffffffffffffffffffffffffffffffffffffffff1681526020019081526020015f20600101546120169190612d8f565b905060025f8373ffffffffffffffffffffffffffffffffffffffff1673ffffffffffffffffffffffffffffffffffffffff1681526020019081526020015f205f016001015f9054906101000a900473ffffffffffffffffffffffffffffffffffffffff1673ffffffffffffffffffffffffffffffffffffffff166108fc8290811502906040515f60405180830381858888f193505050501580156120bc573d5f803e3d5ffd5b5060025f8373ffffffffffffffffffffffffffffffffffffffff1673ffffffffffffffffffffffffffffffffffffffff1681526020019081526020015f205f016001015f9054906101000a900473ffffffffffffffffffffffffffffffffffffffff1673ffffffffffffffffffffffffffffffffffffffff167fe366ef68d2c0620e9e4c5074fd7ad0ce6739b65287f9c2d09b7d002da556879b826040516121649190612437565b60405180910390a25050565b50805461217c90612672565b5f825580601f1061218d57506121aa565b601f0160209004905f5260205f20908101906121a991906121ad565b5b50565b5b808211156121c4575f815f9055506001016121ae565b5090565b5f604051905090565b5f80fd5b5f80fd5b5f80fd5b5f80fd5b5f601f19601f8301169050919050565b7f4e487b71000000000000000000000000000000000000000000000000000000005f52604160045260245ffd5b612227826121e1565b810181811067ffffffffffffffff82111715612246576122456121f1565b5b80604052505050565b5f6122586121c8565b9050612264828261221e565b919050565b5f67ffffffffffffffff821115612283576122826121f1565b5b61228c826121e1565b9050602081019050919050565b828183375f83830152505050565b5f6122b96122b484612269565b61224f565b9050828152602081018484840111156122d5576122d46121dd565b5b6122e0848285612299565b509392505050565b5f82601f8301126122fc576122fb6121d9565b5b813561230c8482602086016122a7565b91505092915050565b5f6020828403121561232a576123296121d1565b5b5f82013567ffffffffffffffff811115612347576123466121d5565b5b612353848285016122e8565b91505092915050565b5f73ffffffffffffffffffffffffffffffffffffffff82169050919050565b5f6123858261235c565b9050919050565b6123958161237b565b811461239f575f80fd5b50565b5f813590506123b08161238c565b92915050565b5f602082840312156123cb576123ca6121d1565b5b5f6123d8848285016123a2565b91505092915050565b5f80604083850312156123f7576123f66121d1565b5b5f612404858286016123a2565b9250506020612415858286016123a2565b9150509250929050565b5f819050919050565b6124318161241f565b82525050565b5f60208201905061244a5f830184612428565b92915050565b5f8115159050919050565b61246481612450565b82525050565b5f60208201905061247d5f83018461245b565b92915050565b5f81519050919050565b5f82825260208201905092915050565b5f5b838110156124ba57808201518184015260208101905061249f565b5f8484015250505050565b5f6124cf82612483565b6124d9818561248d565b93506124e981856020860161249d565b6124f2816121e1565b840191505092915050565b5f6020820190508181035f83015261251581846124c5565b905092915050565b6125268161237b565b82525050565b5f60208201905061253f5f83018461251d565b92915050565b5f6040820190506125585f83018561245b565b6125656020830184612428565b9392505050565b5f819050919050565b61257e8161256c565b8114612588575f80fd5b50565b5f8135905061259981612575565b92915050565b5f80604083850312156125b5576125b46121d1565b5b5f6125c2858286016123a2565b92505060206125d38582860161258b565b9150509250929050565b7f436f6d70616e79206e616d652063616e6e6f7420626520656d707479000000005f82015250565b5f612611601c8361248d565b915061261c826125dd565b602082019050919050565b5f6020820190508181035f83015261263e81612605565b9050919050565b7f4e487b71000000000000000000000000000000000000000000000000000000005f52602260045260245ffd5b5f600282049050600182168061268957607f821691505b60208210810361269c5761269b612645565b5b50919050565b7f436f6d70616e7920616c726561647920726567697374657265640000000000005f82015250565b5f6126d6601a8361248d565b91506126e1826126a2565b602082019050919050565b5f6020820190508181035f830152612703816126ca565b9050919050565b5f819050815f5260205f209050919050565b5f6020601f8301049050919050565b5f82821b905092915050565b5f600883026127667fffffffffffffffffffffffffffffffffffffffffffffffffffffffffffffffff8261272b565b612770868361272b565b95508019841693508086168417925050509392505050565b5f819050919050565b5f6127ab6127a66127a18461241f565b612788565b61241f565b9050919050565b5f819050919050565b6127c483612791565b6127d86127d0826127b2565b848454612737565b825550505050565b5f90565b6127ec6127e0565b6127f78184846127bb565b505050565b5b8181101561281a5761280f5f826127e4565b6001810190506127fd565b5050565b601f82111561285f576128308161270a565b6128398461271c565b81016020851015612848578190505b61285c6128548561271c565b8301826127fc565b50505b505050565b5f82821c905092915050565b5f61287f5f1984600802612864565b1980831691505092915050565b5f6128978383612870565b9150826002028217905092915050565b6128b082612483565b67ffffffffffffffff8111156128c9576128c86121f1565b5b6128d38254612672565b6128de82828561281e565b5f60209050601f83116001811461290f575f84156128fd578287015190505b612907858261288c565b86555061296e565b601f19841661291d8661270a565b5f5b828110156129445784890151825560018201915060208501945060208101905061291f565b86831015612961578489015161295d601f891682612870565b8355505b6001600288020188555050505b505050505050565b7f55736572206973206e6f742063757272656e746c79206c6f6767656420696e005f82015250565b5f6129aa601f8361248d565b91506129b582612976565b602082019050919050565b5f6020820190508181035f8301526129d78161299e565b9050919050565b7f436f6d70616e79206e6f742072656769737465726564000000000000000000005f82015250565b5f612a1260168361248d565b9150612a1d826129de565b602082019050919050565b5f6020820190508181035f830152612a3f81612a06565b9050919050565b7f4465706f73697420736f6d6520455448206669727374000000000000000000005f82015250565b5f612a7a60168361248d565b9150612a8582612a46565b602082019050919050565b5f6020820190508181035f830152612aa781612a6e565b9050919050565b7f5573657220646f65736e27742065786973747320696e207468697320636f6d705f8201527f616e790000000000000000000000000000000000000000000000000000000000602082015250565b5f612b0860238361248d565b9150612b1382612aae565b604082019050919050565b5f6020820190508181035f830152612b3581612afc565b9050919050565b7f4c6f67696e2064657461696c20646f6573206e6f7420657869737473000000005f82015250565b5f612b70601c8361248d565b9150612b7b82612b3c565b602082019050919050565b5f6020820190508181035f830152612b9d81612b64565b9050919050565b7f5573657220646f65736e27742062656c6f6e6720746f20796f757220636f6d705f8201527f616e790000000000000000000000000000000000000000000000000000000000602082015250565b5f612bfe60238361248d565b9150612c0982612ba4565b604082019050919050565b5f6020820190508181035f830152612c2b81612bf2565b9050919050565b7f56616c75652063616e6e6f74206265206c657373207468616e203000000000005f82015250565b5f612c66601b8361248d565b9150612c7182612c32565b602082019050919050565b5f6020820190508181035f830152612c9381612c5a565b9050919050565b7f4e487b71000000000000000000000000000000000000000000000000000000005f52601160045260245ffd5b5f612cd18261241f565b9150612cdc8361241f565b9250828201905080821115612cf457612cf3612c9a565b5b92915050565b7f4c6f67696e2044657461696c7320646f65736e277420657869737473000000005f82015250565b5f612d2e601c8361248d565b9150612d3982612cfa565b602082019050919050565b5f6020820190508181035f830152612d5b81612d22565b9050919050565b7f4e487b71000000000000000000000000000000000000000000000000000000005f52601260045260245ffd5b5f612d998261241f565b9150612da48361241f565b925082612db457612db3612d62565b5b828204905092915050565b5f612dc98261241f565b9150612dd48361241f565b9250828203905081811115612dec57612deb612c9a565b5b92915050565b7f496e76616c69642070617373776f7264206861736800000000000000000000005f82015250565b5f612e2660158361248d565b9150612e3182612df2565b602082019050919050565b5f6020820190508181035f830152612e5381612e1a565b9050919050565b7f4f6e6c7920436f6d70616e6965732063616e20726567697374657220746865695f8201527f7220757365727300000000000000000000000000000000000000000000000000602082015250565b5f612eb460278361248d565b9150612ebf82612e5a565b604082019050919050565b5f6020820190508181035f830152612ee181612ea8565b9050919050565b7f5573657220616c726561647920726567697374657265640000000000000000005f82015250565b5f612f1c60178361248d565b9150612f2782612ee8565b602082019050919050565b5f6020820190508181035f830152612f4981612f10565b9050919050565b5f612f5a8261241f565b91507fffffffffffffffffffffffffffffffffffffffffffffffffffffffffffffffff8203612f8c57612f8b612c9a565b5b600182019050919050565b7f4c6f67696e2044657461696c7320616c726561647920657869737473000000005f82015250565b5f612fcb601c8361248d565b9150612fd682612f97565b602082019050919050565b5f6020820190508181035f830152612ff881612fbf565b9050919050565b7f496e636f72726563742070617373776f726400000000000000000000000000005f82015250565b5f61303360128361248d565b915061303e82612fff565b602082019050919050565b5f6020820190508181035f83015261306081613027565b9050919050565b5f815f1c9050919050565b5f73ffffffffffffffffffffffffffffffffffffffff82169050919050565b5f6130a361309e83613067565b613072565b9050919050565b6130b38161237b565b82525050565b5f6130c483836130aa565b60208301905092915050565b5f819050919050565b5f6130eb6130e683613067565b6130d0565b9050919050565b6130fb8161256c565b82525050565b5f61310c83836130f2565b60208301905092915050565b5f82015f80830154905061312b81613091565b61313585826130b9565b9450506001830154905061314881613091565b61315285826130b9565b94505060028301549050613165816130d9565b61316f8582613101565b94505050505050565b5f6131838284613118565b6060820191508190509291505056fea2646970667358221220ce7c56c57f1fa1ef980bcc7a5b146bf0b28d268dda8efad92ba06f854f86584c64736f6c63430008180033",
  "immutableReferences": {},
  "source": "// SPDX-License-Identifier: GPL-3.0\npragma solidity ^0.8.0;\n\nimport \"./CompanyRegistry.sol\";\n\ncontract AuthenticationServiceProvider is CompanyRegistry {\n    address public owner;\n\n    // CompanyRegistry public companyRegistry;\n\n    constructor() {\n        owner = msg.sender;\n        // companyRegistry = CompanyRegistry(_companyRegistryAddress);\n    }\n}\n",
  "sourcePath": "/home/munshi/Documents/Programs/BlockAuth/Improved Version/Blockchain-Based-Incentivized-Authentication-System/blockchain/contracts/AuthServiceProvide.sol",
  "compiler": {
    "name": "solc",
    "version": "0.8.24+commit.e11b9ed9.Emscripten.clang"
  },
  "schemaVersion": "3.4.16",
  "updatedAt": "2024-02-22T18:52:29.340Z",
  "networkType": "ethereum",
  "devdoc": {
    "kind": "dev",
    "methods": {},
    "version": 1
  },
  "userdoc": {
    "kind": "user",
    "methods": {},
    "version": 1
  }
}