{
  "_format": "hh-sol-artifact-1",
  "contractName": "AuthenticationServiceProvider",
  "sourceName": "contracts/AuthServiceProvide.sol",
  "abi": [
    {
      "inputs": [],
      "stateMutability": "nonpayable",
      "type": "constructor"
    },
    {
      "anonymous": false,
      "inputs": [
        {
          "indexed": true,
          "internalType": "address",
          "name": "companyAddress",
          "type": "address"
        }
      ],
      "name": "CompanyDeleted",
      "type": "event"
    },
    {
      "anonymous": false,
      "inputs": [
        {
          "indexed": true,
          "internalType": "address",
          "name": "companyAddress",
          "type": "address"
        },
        {
          "indexed": false,
          "internalType": "string",
          "name": "name",
          "type": "string"
        }
      ],
      "name": "CompanyRegistered",
      "type": "event"
    },
    {
      "anonymous": false,
      "inputs": [
        {
          "indexed": true,
          "internalType": "address",
          "name": "companyAddress",
          "type": "address"
        },
        {
          "indexed": false,
          "internalType": "uint256",
          "name": "amount",
          "type": "uint256"
        }
      ],
      "name": "DepositAdded",
      "type": "event"
    },
    {
      "anonymous": false,
      "inputs": [
        {
          "components": [
            {
              "internalType": "address",
              "name": "company",
              "type": "address"
            },
            {
              "internalType": "address",
              "name": "walletAddress",
              "type": "address"
            },
            {
              "internalType": "bytes32",
              "name": "passwordHash",
              "type": "bytes32"
            }
          ],
          "indexed": true,
          "internalType": "struct CompanyRegistry.User",
          "name": "user",
          "type": "tuple"
        }
      ],
      "name": "UserLoggedIn",
      "type": "event"
    },
    {
      "anonymous": false,
      "inputs": [
        {
          "indexed": true,
          "internalType": "address",
          "name": "companyAddress",
          "type": "address"
        },
        {
          "indexed": true,
          "internalType": "address",
          "name": "userAddress",
          "type": "address"
        }
      ],
      "name": "UserRegistered",
      "type": "event"
    },
    {
      "anonymous": false,
      "inputs": [
        {
          "indexed": true,
          "internalType": "address",
          "name": "userAddress",
          "type": "address"
        },
        {
          "indexed": false,
          "internalType": "uint256",
          "name": "amount",
          "type": "uint256"
        }
      ],
      "name": "UserRewarded",
      "type": "event"
    },
    {
      "inputs": [],
      "name": "addDeposit",
      "outputs": [],
      "stateMutability": "payable",
      "type": "function"
    },
    {
      "inputs": [],
      "name": "deleteCompany",
      "outputs": [],
      "stateMutability": "nonpayable",
      "type": "function"
    },
    {
      "inputs": [
        {
          "internalType": "address",
          "name": "walletAddress",
          "type": "address"
        }
      ],
      "name": "doesLoginExist",
      "outputs": [
        {
          "internalType": "bool",
          "name": "",
          "type": "bool"
        }
      ],
      "stateMutability": "view",
      "type": "function"
    },
    {
      "inputs": [],
      "name": "getCompanyDeposit",
      "outputs": [
        {
          "internalType": "uint256",
          "name": "",
          "type": "uint256"
        }
      ],
      "stateMutability": "view",
      "type": "function"
    },
    {
      "inputs": [
        {
          "internalType": "address",
          "name": "CompanyAddress",
          "type": "address"
        },
        {
          "internalType": "address",
          "name": "userAddress",
          "type": "address"
        }
      ],
      "name": "getIsLoggedInStatus",
      "outputs": [
        {
          "internalType": "bool",
          "name": "",
          "type": "bool"
        }
      ],
      "stateMutability": "view",
      "type": "function"
    },
    {
      "inputs": [],
      "name": "getRegisteredCompanyName",
      "outputs": [
        {
          "internalType": "string",
          "name": "",
          "type": "string"
        }
      ],
      "stateMutability": "view",
      "type": "function"
    },
    {
      "inputs": [
        {
          "internalType": "address",
          "name": "CompanyAddress",
          "type": "address"
        },
        {
          "internalType": "address",
          "name": "userAddress",
          "type": "address"
        }
      ],
      "name": "gettotalLoggedInDays",
      "outputs": [
        {
          "internalType": "uint256",
          "name": "",
          "type": "uint256"
        }
      ],
      "stateMutability": "view",
      "type": "function"
    },
    {
      "inputs": [
        {
          "internalType": "address",
          "name": "walletAddress",
          "type": "address"
        }
      ],
      "name": "lastLoginTime",
      "outputs": [
        {
          "internalType": "uint256",
          "name": "",
          "type": "uint256"
        }
      ],
      "stateMutability": "view",
      "type": "function"
    },
    {
      "inputs": [
        {
          "internalType": "address",
          "name": "walletAddress",
          "type": "address"
        },
        {
          "internalType": "bytes32",
          "name": "passwordHash",
          "type": "bytes32"
        }
      ],
      "name": "loginUser",
      "outputs": [
        {
          "internalType": "bool",
          "name": "",
          "type": "bool"
        }
      ],
      "stateMutability": "nonpayable",
      "type": "function"
    },
    {
      "inputs": [
        {
          "internalType": "address",
          "name": "walletAddress",
          "type": "address"
        }
      ],
      "name": "logoutUser",
      "outputs": [],
      "stateMutability": "nonpayable",
      "type": "function"
    },
    {
      "inputs": [],
      "name": "owner",
      "outputs": [
        {
          "internalType": "address",
          "name": "",
          "type": "address"
        }
      ],
      "stateMutability": "view",
      "type": "function"
    },
    {
      "inputs": [
        {
          "internalType": "string",
          "name": "name",
          "type": "string"
        }
      ],
      "name": "registerCompany",
      "outputs": [],
      "stateMutability": "nonpayable",
      "type": "function"
    },
    {
      "inputs": [
        {
          "internalType": "address",
          "name": "walletAddress",
          "type": "address"
        },
        {
          "internalType": "bytes32",
          "name": "passwordHash",
          "type": "bytes32"
        }
      ],
      "name": "registerUser",
      "outputs": [],
      "stateMutability": "nonpayable",
      "type": "function"
    },
    {
      "inputs": [
        {
          "internalType": "address",
          "name": "userAddress",
          "type": "address"
        }
      ],
      "name": "updateLoggedInStatus",
      "outputs": [
        {
          "internalType": "bool",
          "name": "",
          "type": "bool"
        },
        {
          "internalType": "uint256",
          "name": "",
          "type": "uint256"
        }
      ],
      "stateMutability": "nonpayable",
      "type": "function"
    }
  ],
  "bytecode": "0x608060405234801561001057600080fd5b5033600360006101000a81548173ffffffffffffffffffffffffffffffffffffffff021916908373ffffffffffffffffffffffffffffffffffffffff160217905550613328806100616000396000f3fe6080604052600436106100dc5760003560e01c80638da5cb5b1161007f578063c89f883e11610059578063c89f883e1461029f578063cc6911b6146102dc578063d7e0b6e314610307578063f7a0490314610330576100dc565b80638da5cb5b146101f9578063a73779a614610224578063b4bcca0314610262576100dc565b80633f3c2ad2116100bb5780633f3c2ad2146101705780634a58db19146101ad5780635045499c146101b75780637f191b8d146101ce576100dc565b8062544194146100e157806309df50601461010a57806319abc6a814610133575b600080fd5b3480156100ed57600080fd5b50610108600480360381019061010391906123f1565b61036d565b005b34801561011657600080fd5b50610131600480360381019061012c9190612498565b61051c565b005b34801561013f57600080fd5b5061015a600480360381019061015591906124c5565b6105c2565b604051610167919061251e565b60405180910390f35b34801561017c57600080fd5b5061019760048036038101906101929190612498565b610841565b6040516101a49190612554565b60405180910390f35b6101b5610ac8565b005b3480156101c357600080fd5b506101cc610c45565b005b3480156101da57600080fd5b506101e3610e16565b6040516101f091906125ee565b60405180910390f35b34801561020557600080fd5b5061020e610ee8565b60405161021b919061261f565b60405180910390f35b34801561023057600080fd5b5061024b60048036038101906102469190612498565b610f0e565b60405161025992919061263a565b60405180910390f35b34801561026e57600080fd5b5061028960048036038101906102849190612498565b611275565b604051610296919061251e565b60405180910390f35b3480156102ab57600080fd5b506102c660048036038101906102c191906124c5565b6114ab565b6040516102d39190612554565b60405180910390f35b3480156102e857600080fd5b506102f1611737565b6040516102fe919061251e565b60405180910390f35b34801561031357600080fd5b5061032e60048036038101906103299190612699565b611811565b005b34801561033c57600080fd5b5061035760048036038101906103529190612699565b611c17565b6040516103649190612554565b60405180910390f35b60008151116103b1576040517f08c379a00000000000000000000000000000000000000000000000000000000081526004016103a890612725565b60405180910390fd5b6000600160003373ffffffffffffffffffffffffffffffffffffffff1673ffffffffffffffffffffffffffffffffffffffff168152602001908152602001600020600001805461040090612774565b905014610442576040517f08c379a0000000000000000000000000000000000000000000000000000000008152600401610439906127f1565b60405180910390fd5b6040518060600160405280828152602001600081526020016000815250600160003373ffffffffffffffffffffffffffffffffffffffff1673ffffffffffffffffffffffffffffffffffffffff16815260200190815260200160002060008201518160000190816104b391906129bd565b5060208201518160010155604082015181600201559050503373ffffffffffffffffffffffffffffffffffffffff167f76686aa361308f4a08557cca1a847299ce61e5602a3495cd359a599a1dca438c8260405161051191906125ee565b60405180910390a250565b61052581610841565b610564576040517f08c379a000000000000000000000000000000000000000000000000000000000815260040161055b90612adb565b60405180910390fd5b6000600260008373ffffffffffffffffffffffffffffffffffffffff1673ffffffffffffffffffffffffffffffffffffffff16815260200190815260200160002060050160006101000a81548160ff02191690831515021790555050565b600080600160008573ffffffffffffffffffffffffffffffffffffffff1673ffffffffffffffffffffffffffffffffffffffff168152602001908152602001600020600001805461061290612774565b905011610654576040517f08c379a000000000000000000000000000000000000000000000000000000000815260040161064b90612b47565b60405180910390fd5b662386f26fc10000600160003373ffffffffffffffffffffffffffffffffffffffff1673ffffffffffffffffffffffffffffffffffffffff16815260200190815260200160002060010154116106df576040517f08c379a00000000000000000000000000000000000000000000000000000000081526004016106d690612bb3565b60405180910390fd5b8273ffffffffffffffffffffffffffffffffffffffff166000808473ffffffffffffffffffffffffffffffffffffffff1673ffffffffffffffffffffffffffffffffffffffff16815260200190815260200160002060000160009054906101000a900473ffffffffffffffffffffffffffffffffffffffff1673ffffffffffffffffffffffffffffffffffffffff16146107ae576040517f08c379a00000000000000000000000000000000000000000000000000000000081526004016107a590612c45565b60405180910390fd5b6107b782610841565b6107f6576040517f08c379a00000000000000000000000000000000000000000000000000000000081526004016107ed90612cb1565b60405180910390fd5b600260008373ffffffffffffffffffffffffffffffffffffffff1673ffffffffffffffffffffffffffffffffffffffff16815260200190815260200160002060040154905092915050565b600080600160003373ffffffffffffffffffffffffffffffffffffffff1673ffffffffffffffffffffffffffffffffffffffff168152602001908152602001600020600001805461089190612774565b9050116108d3576040517f08c379a00000000000000000000000000000000000000000000000000000000081526004016108ca90612b47565b60405180910390fd5b662386f26fc10000600160003373ffffffffffffffffffffffffffffffffffffffff1673ffffffffffffffffffffffffffffffffffffffff168152602001908152602001600020600101541161095e576040517f08c379a000000000000000000000000000000000000000000000000000000000815260040161095590612bb3565b60405180910390fd5b3373ffffffffffffffffffffffffffffffffffffffff166000808473ffffffffffffffffffffffffffffffffffffffff1673ffffffffffffffffffffffffffffffffffffffff16815260200190815260200160002060000160009054906101000a900473ffffffffffffffffffffffffffffffffffffffff1673ffffffffffffffffffffffffffffffffffffffff1614610a2d576040517f08c379a0000000000000000000000000000000000000000000000000000000008152600401610a2490612d43565b60405180910390fd5b8173ffffffffffffffffffffffffffffffffffffffff16600260008473ffffffffffffffffffffffffffffffffffffffff1673ffffffffffffffffffffffffffffffffffffffff16815260200190815260200160002060000160010160009054906101000a900473ffffffffffffffffffffffffffffffffffffffff1673ffffffffffffffffffffffffffffffffffffffff16149050919050565b6000600160003373ffffffffffffffffffffffffffffffffffffffff1673ffffffffffffffffffffffffffffffffffffffff1681526020019081526020016000206000018054610b1790612774565b905011610b59576040517f08c379a0000000000000000000000000000000000000000000000000000000008152600401610b5090612b47565b60405180910390fd5b60003411610b9c576040517f08c379a0000000000000000000000000000000000000000000000000000000008152600401610b9390612daf565b60405180910390fd5b34600160003373ffffffffffffffffffffffffffffffffffffffff1673ffffffffffffffffffffffffffffffffffffffff1681526020019081526020016000206001016000828254610bee9190612dfe565b925050819055503373ffffffffffffffffffffffffffffffffffffffff167fa2a2db73af12c9f5bef6303364d44e78f97e992c353cd8659f3474c471427e9b34604051610c3b919061251e565b60405180910390a2565b6000600160003373ffffffffffffffffffffffffffffffffffffffff1673ffffffffffffffffffffffffffffffffffffffff1681526020019081526020016000206000018054610c9490612774565b905011610cd6576040517f08c379a0000000000000000000000000000000000000000000000000000000008152600401610ccd90612b47565b60405180910390fd5b6000600160003373ffffffffffffffffffffffffffffffffffffffff1673ffffffffffffffffffffffffffffffffffffffff168152602001908152602001600020600101549050600160003373ffffffffffffffffffffffffffffffffffffffff1673ffffffffffffffffffffffffffffffffffffffff16815260200190815260200160002060008082016000610d6d919061223a565b6001820160009055600282016000905550503373ffffffffffffffffffffffffffffffffffffffff167f2564dc12f5c7d4be57c9d0417c313a76d08624ac131a3772f9abeedff476161160405160405180910390a26000811115610e13573373ffffffffffffffffffffffffffffffffffffffff166108fc829081150290604051600060405180830381858888f19350505050158015610e11573d6000803e3d6000fd5b505b50565b6060600160003373ffffffffffffffffffffffffffffffffffffffff1673ffffffffffffffffffffffffffffffffffffffff1681526020019081526020016000206000018054610e6590612774565b80601f0160208091040260200160405190810160405280929190818152602001828054610e9190612774565b8015610ede5780601f10610eb357610100808354040283529160200191610ede565b820191906000526020600020905b815481529060010190602001808311610ec157829003601f168201915b5050505050905090565b600360009054906101000a900473ffffffffffffffffffffffffffffffffffffffff1681565b600080610f1a83610841565b610f59576040517f08c379a0000000000000000000000000000000000000000000000000000000008152600401610f5090612e7e565b60405180910390fd5b60006201518042610f6a9190612ecd565b9050600062015180600260008773ffffffffffffffffffffffffffffffffffffffff1673ffffffffffffffffffffffffffffffffffffffff16815260200190815260200160002060030154610fbf9190612ecd565b9050808211156110e05760018183610fd79190612efe565b0361103b576001600260008773ffffffffffffffffffffffffffffffffffffffff1673ffffffffffffffffffffffffffffffffffffffff168152602001908152602001600020600401600082825461102f9190612dfe565b92505081905550611098565b600281836110499190612efe565b10611097576001600260008773ffffffffffffffffffffffffffffffffffffffff1673ffffffffffffffffffffffffffffffffffffffff168152602001908152602001600020600401819055505b5b42600260008773ffffffffffffffffffffffffffffffffffffffff1673ffffffffffffffffffffffffffffffffffffffff168152602001908152602001600020600301819055505b6001600260008773ffffffffffffffffffffffffffffffffffffffff1673ffffffffffffffffffffffffffffffffffffffff16815260200190815260200160002060050160006101000a81548160ff0219169083151502179055506007600260008773ffffffffffffffffffffffffffffffffffffffff1673ffffffffffffffffffffffffffffffffffffffff16815260200190815260200160002060040154036111d75761118e85612043565b6000600260008773ffffffffffffffffffffffffffffffffffffffff1673ffffffffffffffffffffffffffffffffffffffff168152602001908152602001600020600401819055505b600260008673ffffffffffffffffffffffffffffffffffffffff1673ffffffffffffffffffffffffffffffffffffffff16815260200190815260200160002060050160009054906101000a900460ff16600260008773ffffffffffffffffffffffffffffffffffffffff1673ffffffffffffffffffffffffffffffffffffffff16815260200190815260200160002060040154935093505050915091565b600080600160003373ffffffffffffffffffffffffffffffffffffffff1673ffffffffffffffffffffffffffffffffffffffff16815260200190815260200160002060000180546112c590612774565b905011611307576040517f08c379a00000000000000000000000000000000000000000000000000000000081526004016112fe90612b47565b60405180910390fd5b662386f26fc10000600160003373ffffffffffffffffffffffffffffffffffffffff1673ffffffffffffffffffffffffffffffffffffffff1681526020019081526020016000206001015411611392576040517f08c379a000000000000000000000000000000000000000000000000000000000815260040161138990612bb3565b60405180910390fd5b3373ffffffffffffffffffffffffffffffffffffffff166000808473ffffffffffffffffffffffffffffffffffffffff1673ffffffffffffffffffffffffffffffffffffffff16815260200190815260200160002060000160009054906101000a900473ffffffffffffffffffffffffffffffffffffffff1673ffffffffffffffffffffffffffffffffffffffff1614611461576040517f08c379a000000000000000000000000000000000000000000000000000000000815260040161145890612d43565b60405180910390fd5b600260008373ffffffffffffffffffffffffffffffffffffffff1673ffffffffffffffffffffffffffffffffffffffff168152602001908152602001600020600301549050919050565b600080600160008573ffffffffffffffffffffffffffffffffffffffff1673ffffffffffffffffffffffffffffffffffffffff16815260200190815260200160002060000180546114fb90612774565b90501161153d576040517f08c379a000000000000000000000000000000000000000000000000000000000815260040161153490612b47565b60405180910390fd5b662386f26fc10000600160008573ffffffffffffffffffffffffffffffffffffffff1673ffffffffffffffffffffffffffffffffffffffff16815260200190815260200160002060010154116115c8576040517f08c379a00000000000000000000000000000000000000000000000000000000081526004016115bf90612bb3565b60405180910390fd5b8273ffffffffffffffffffffffffffffffffffffffff166000808473ffffffffffffffffffffffffffffffffffffffff1673ffffffffffffffffffffffffffffffffffffffff16815260200190815260200160002060000160009054906101000a900473ffffffffffffffffffffffffffffffffffffffff1673ffffffffffffffffffffffffffffffffffffffff1614611697576040517f08c379a000000000000000000000000000000000000000000000000000000000815260040161168e90612c45565b60405180910390fd5b6116a082610841565b6116df576040517f08c379a00000000000000000000000000000000000000000000000000000000081526004016116d690612cb1565b60405180910390fd5b600260008373ffffffffffffffffffffffffffffffffffffffff1673ffffffffffffffffffffffffffffffffffffffff16815260200190815260200160002060050160009054906101000a900460ff16905092915050565b600080600160003373ffffffffffffffffffffffffffffffffffffffff1673ffffffffffffffffffffffffffffffffffffffff168152602001908152602001600020600001805461178790612774565b9050116117c9576040517f08c379a00000000000000000000000000000000000000000000000000000000081526004016117c090612b47565b60405180910390fd5b600160003373ffffffffffffffffffffffffffffffffffffffff1673ffffffffffffffffffffffffffffffffffffffff16815260200190815260200160002060010154905090565b6000801b8103611856576040517f08c379a000000000000000000000000000000000000000000000000000000000815260040161184d90612f7e565b60405180910390fd5b6000600160003373ffffffffffffffffffffffffffffffffffffffff1673ffffffffffffffffffffffffffffffffffffffff16815260200190815260200160002060000180546118a590612774565b9050116118e7576040517f08c379a00000000000000000000000000000000000000000000000000000000081526004016118de90613010565b60405180910390fd5b662386f26fc10000600160003373ffffffffffffffffffffffffffffffffffffffff1673ffffffffffffffffffffffffffffffffffffffff1681526020019081526020016000206001015411611972576040517f08c379a000000000000000000000000000000000000000000000000000000000815260040161196990612bb3565b60405180910390fd5b8173ffffffffffffffffffffffffffffffffffffffff166000808473ffffffffffffffffffffffffffffffffffffffff1673ffffffffffffffffffffffffffffffffffffffff16815260200190815260200160002060010160009054906101000a900473ffffffffffffffffffffffffffffffffffffffff1673ffffffffffffffffffffffffffffffffffffffff1603611a41576040517f08c379a0000000000000000000000000000000000000000000000000000000008152600401611a389061307c565b60405180910390fd5b60405180606001604052803373ffffffffffffffffffffffffffffffffffffffff1681526020018373ffffffffffffffffffffffffffffffffffffffff168152602001828152506000808473ffffffffffffffffffffffffffffffffffffffff1673ffffffffffffffffffffffffffffffffffffffff16815260200190815260200160002060008201518160000160006101000a81548173ffffffffffffffffffffffffffffffffffffffff021916908373ffffffffffffffffffffffffffffffffffffffff16021790555060208201518160010160006101000a81548173ffffffffffffffffffffffffffffffffffffffff021916908373ffffffffffffffffffffffffffffffffffffffff16021790555060408201518160020155905050600160003373ffffffffffffffffffffffffffffffffffffffff1673ffffffffffffffffffffffffffffffffffffffff1681526020019081526020016000206002016000815480929190611bb49061309c565b91905055508173ffffffffffffffffffffffffffffffffffffffff163373ffffffffffffffffffffffffffffffffffffffff167f2138b9314634f9fdd5e49bee3eaf17ca557b6637524d0db759711c3bfcd3d85060405160405180910390a35050565b6000611c2283610841565b15611c62576040517f08c379a0000000000000000000000000000000000000000000000000000000008152600401611c5990613130565b60405180910390fd5b6000801b8203611ca7576040517f08c379a0000000000000000000000000000000000000000000000000000000008152600401611c9e90612f7e565b60405180910390fd5b816000808573ffffffffffffffffffffffffffffffffffffffff1673ffffffffffffffffffffffffffffffffffffffff1681526020019081526020016000206002015414611d2a576040517f08c379a0000000000000000000000000000000000000000000000000000000008152600401611d219061319c565b60405180910390fd5b60008060008573ffffffffffffffffffffffffffffffffffffffff1673ffffffffffffffffffffffffffffffffffffffff1681526020019081526020016000206040518060600160405290816000820160009054906101000a900473ffffffffffffffffffffffffffffffffffffffff1673ffffffffffffffffffffffffffffffffffffffff1673ffffffffffffffffffffffffffffffffffffffff1681526020016001820160009054906101000a900473ffffffffffffffffffffffffffffffffffffffff1673ffffffffffffffffffffffffffffffffffffffff1673ffffffffffffffffffffffffffffffffffffffff168152602001600282015481525050905060405180608001604052808281526020014281526020016001815260200160011515815250600260008673ffffffffffffffffffffffffffffffffffffffff1673ffffffffffffffffffffffffffffffffffffffff16815260200190815260200160002060008201518160000160008201518160000160006101000a81548173ffffffffffffffffffffffffffffffffffffffff021916908373ffffffffffffffffffffffffffffffffffffffff16021790555060208201518160010160006101000a81548173ffffffffffffffffffffffffffffffffffffffff021916908373ffffffffffffffffffffffffffffffffffffffff160217905550604082015181600201555050602082015181600301556040820151816004015560608201518160050160006101000a81548160ff0219169083151502179055509050506000808573ffffffffffffffffffffffffffffffffffffffff1673ffffffffffffffffffffffffffffffffffffffff168152602001908152602001600020604051611fb691906132d7565b60405180910390207fc3e258c2735e50ca59d445076e61f3e568466d65196515d5fa3cef1518fff1da60405160405180910390a2600260008573ffffffffffffffffffffffffffffffffffffffff1673ffffffffffffffffffffffffffffffffffffffff16815260200190815260200160002060050160009054906101000a900460ff1691505092915050565b6000600160003373ffffffffffffffffffffffffffffffffffffffff1673ffffffffffffffffffffffffffffffffffffffff16815260200190815260200160002060020154600160003373ffffffffffffffffffffffffffffffffffffffff1673ffffffffffffffffffffffffffffffffffffffff168152602001908152602001600020600101546120d59190612ecd565b9050600260008373ffffffffffffffffffffffffffffffffffffffff1673ffffffffffffffffffffffffffffffffffffffff16815260200190815260200160002060000160010160009054906101000a900473ffffffffffffffffffffffffffffffffffffffff1673ffffffffffffffffffffffffffffffffffffffff166108fc829081150290604051600060405180830381858888f19350505050158015612182573d6000803e3d6000fd5b50600260008373ffffffffffffffffffffffffffffffffffffffff1673ffffffffffffffffffffffffffffffffffffffff16815260200190815260200160002060000160010160009054906101000a900473ffffffffffffffffffffffffffffffffffffffff1673ffffffffffffffffffffffffffffffffffffffff167fe366ef68d2c0620e9e4c5074fd7ad0ce6739b65287f9c2d09b7d002da556879b8260405161222e919061251e565b60405180910390a25050565b50805461224690612774565b6000825580601f106122585750612277565b601f016020900490600052602060002090810190612276919061227a565b5b50565b5b8082111561229357600081600090555060010161227b565b5090565b6000604051905090565b600080fd5b600080fd5b600080fd5b600080fd5b6000601f19601f8301169050919050565b7f4e487b7100000000000000000000000000000000000000000000000000000000600052604160045260246000fd5b6122fe826122b5565b810181811067ffffffffffffffff8211171561231d5761231c6122c6565b5b80604052505050565b6000612330612297565b905061233c82826122f5565b919050565b600067ffffffffffffffff82111561235c5761235b6122c6565b5b612365826122b5565b9050602081019050919050565b82818337600083830152505050565b600061239461238f84612341565b612326565b9050828152602081018484840111156123b0576123af6122b0565b5b6123bb848285612372565b509392505050565b600082601f8301126123d8576123d76122ab565b5b81356123e8848260208601612381565b91505092915050565b600060208284031215612407576124066122a1565b5b600082013567ffffffffffffffff811115612425576124246122a6565b5b612431848285016123c3565b91505092915050565b600073ffffffffffffffffffffffffffffffffffffffff82169050919050565b60006124658261243a565b9050919050565b6124758161245a565b811461248057600080fd5b50565b6000813590506124928161246c565b92915050565b6000602082840312156124ae576124ad6122a1565b5b60006124bc84828501612483565b91505092915050565b600080604083850312156124dc576124db6122a1565b5b60006124ea85828601612483565b92505060206124fb85828601612483565b9150509250929050565b6000819050919050565b61251881612505565b82525050565b6000602082019050612533600083018461250f565b92915050565b60008115159050919050565b61254e81612539565b82525050565b60006020820190506125696000830184612545565b92915050565b600081519050919050565b600082825260208201905092915050565b60005b838110156125a957808201518184015260208101905061258e565b60008484015250505050565b60006125c08261256f565b6125ca818561257a565b93506125da81856020860161258b565b6125e3816122b5565b840191505092915050565b6000602082019050818103600083015261260881846125b5565b905092915050565b6126198161245a565b82525050565b60006020820190506126346000830184612610565b92915050565b600060408201905061264f6000830185612545565b61265c602083018461250f565b9392505050565b6000819050919050565b61267681612663565b811461268157600080fd5b50565b6000813590506126938161266d565b92915050565b600080604083850312156126b0576126af6122a1565b5b60006126be85828601612483565b92505060206126cf85828601612684565b9150509250929050565b7f436f6d70616e79206e616d652063616e6e6f7420626520656d70747900000000600082015250565b600061270f601c8361257a565b915061271a826126d9565b602082019050919050565b6000602082019050818103600083015261273e81612702565b9050919050565b7f4e487b7100000000000000000000000000000000000000000000000000000000600052602260045260246000fd5b6000600282049050600182168061278c57607f821691505b60208210810361279f5761279e612745565b5b50919050565b7f436f6d70616e7920616c72656164792072656769737465726564000000000000600082015250565b60006127db601a8361257a565b91506127e6826127a5565b602082019050919050565b6000602082019050818103600083015261280a816127ce565b9050919050565b60008190508160005260206000209050919050565b60006020601f8301049050919050565b600082821b905092915050565b6000600883026128737fffffffffffffffffffffffffffffffffffffffffffffffffffffffffffffffff82612836565b61287d8683612836565b95508019841693508086168417925050509392505050565b6000819050919050565b60006128ba6128b56128b084612505565b612895565b612505565b9050919050565b6000819050919050565b6128d48361289f565b6128e86128e0826128c1565b848454612843565b825550505050565b600090565b6128fd6128f0565b6129088184846128cb565b505050565b5b8181101561292c576129216000826128f5565b60018101905061290e565b5050565b601f8211156129715761294281612811565b61294b84612826565b8101602085101561295a578190505b61296e61296685612826565b83018261290d565b50505b505050565b600082821c905092915050565b600061299460001984600802612976565b1980831691505092915050565b60006129ad8383612983565b9150826002028217905092915050565b6129c68261256f565b67ffffffffffffffff8111156129df576129de6122c6565b5b6129e98254612774565b6129f4828285612930565b600060209050601f831160018114612a275760008415612a15578287015190505b612a1f85826129a1565b865550612a87565b601f198416612a3586612811565b60005b82811015612a5d57848901518255600182019150602085019450602081019050612a38565b86831015612a7a5784890151612a76601f891682612983565b8355505b6001600288020188555050505b505050505050565b7f55736572206973206e6f742063757272656e746c79206c6f6767656420696e00600082015250565b6000612ac5601f8361257a565b9150612ad082612a8f565b602082019050919050565b60006020820190508181036000830152612af481612ab8565b9050919050565b7f436f6d70616e79206e6f74207265676973746572656400000000000000000000600082015250565b6000612b3160168361257a565b9150612b3c82612afb565b602082019050919050565b60006020820190508181036000830152612b6081612b24565b9050919050565b7f4465706f73697420736f6d652045544820666972737400000000000000000000600082015250565b6000612b9d60168361257a565b9150612ba882612b67565b602082019050919050565b60006020820190508181036000830152612bcc81612b90565b9050919050565b7f5573657220646f65736e27742065786973747320696e207468697320636f6d7060008201527f616e790000000000000000000000000000000000000000000000000000000000602082015250565b6000612c2f60238361257a565b9150612c3a82612bd3565b604082019050919050565b60006020820190508181036000830152612c5e81612c22565b9050919050565b7f4c6f67696e2064657461696c20646f6573206e6f742065786973747300000000600082015250565b6000612c9b601c8361257a565b9150612ca682612c65565b602082019050919050565b60006020820190508181036000830152612cca81612c8e565b9050919050565b7f5573657220646f65736e27742062656c6f6e6720746f20796f757220636f6d7060008201527f616e790000000000000000000000000000000000000000000000000000000000602082015250565b6000612d2d60238361257a565b9150612d3882612cd1565b604082019050919050565b60006020820190508181036000830152612d5c81612d20565b9050919050565b7f56616c75652063616e6e6f74206265206c657373207468616e20300000000000600082015250565b6000612d99601b8361257a565b9150612da482612d63565b602082019050919050565b60006020820190508181036000830152612dc881612d8c565b9050919050565b7f4e487b7100000000000000000000000000000000000000000000000000000000600052601160045260246000fd5b6000612e0982612505565b9150612e1483612505565b9250828201905080821115612e2c57612e2b612dcf565b5b92915050565b7f4c6f67696e2044657461696c7320646f65736e27742065786973747300000000600082015250565b6000612e68601c8361257a565b9150612e7382612e32565b602082019050919050565b60006020820190508181036000830152612e9781612e5b565b9050919050565b7f4e487b7100000000000000000000000000000000000000000000000000000000600052601260045260246000fd5b6000612ed882612505565b9150612ee383612505565b925082612ef357612ef2612e9e565b5b828204905092915050565b6000612f0982612505565b9150612f1483612505565b9250828203905081811115612f2c57612f2b612dcf565b5b92915050565b7f496e76616c69642070617373776f726420686173680000000000000000000000600082015250565b6000612f6860158361257a565b9150612f7382612f32565b602082019050919050565b60006020820190508181036000830152612f9781612f5b565b9050919050565b7f4f6e6c7920436f6d70616e6965732063616e207265676973746572207468656960008201527f7220757365727300000000000000000000000000000000000000000000000000602082015250565b6000612ffa60278361257a565b915061300582612f9e565b604082019050919050565b6000602082019050818103600083015261302981612fed565b9050919050565b7f5573657220616c72656164792072656769737465726564000000000000000000600082015250565b600061306660178361257a565b915061307182613030565b602082019050919050565b6000602082019050818103600083015261309581613059565b9050919050565b60006130a782612505565b91507fffffffffffffffffffffffffffffffffffffffffffffffffffffffffffffffff82036130d9576130d8612dcf565b5b600182019050919050565b7f4c6f67696e2044657461696c7320616c72656164792065786973747300000000600082015250565b600061311a601c8361257a565b9150613125826130e4565b602082019050919050565b600060208201905081810360008301526131498161310d565b9050919050565b7f496e636f72726563742070617373776f72640000000000000000000000000000600082015250565b600061318660128361257a565b915061319182613150565b602082019050919050565b600060208201905081810360008301526131b581613179565b9050919050565b60008160001c9050919050565b600073ffffffffffffffffffffffffffffffffffffffff82169050919050565b60006131fc6131f7836131bc565b6131c9565b9050919050565b61320c8161245a565b82525050565b600061321e8383613203565b60208301905092915050565b6000819050919050565b6000613247613242836131bc565b61322a565b9050919050565b61325781612663565b82525050565b6000613269838361324e565b60208301905092915050565b60008201600080830154905061328a816131e9565b6132948582613212565b945050600183015490506132a7816131e9565b6132b18582613212565b945050600283015490506132c481613234565b6132ce858261325d565b94505050505050565b60006132e38284613275565b6060820191508190509291505056fea2646970667358221220fc068ccf1a3fbf0a9b0afbce64c608fcc5b050b5cff2b1ec9bd5b5834cb642dd64736f6c63430008180033",
  "linkReferences": {},
  "deployedLinkReferences": {}
}