{
  "contractName": "CompanyRegistry",
  "abi": [
    {
      "anonymous": false,
      "inputs": [
        {
          "indexed": true,
          "internalType": "address",
          "name": "companyAddress",
          "type": "address"
        }
      ],
      "name": "CompanyDeleted",
      "type": "event"
    },
    {
      "anonymous": false,
      "inputs": [
        {
          "indexed": true,
          "internalType": "address",
          "name": "companyAddress",
          "type": "address"
        },
        {
          "indexed": false,
          "internalType": "string",
          "name": "name",
          "type": "string"
        }
      ],
      "name": "CompanyRegistered",
      "type": "event"
    },
    {
      "anonymous": false,
      "inputs": [
        {
          "indexed": true,
          "internalType": "address",
          "name": "companyAddress",
          "type": "address"
        },
        {
          "indexed": false,
          "internalType": "uint256",
          "name": "amount",
          "type": "uint256"
        }
      ],
      "name": "DepositAdded",
      "type": "event"
    },
    {
      "anonymous": false,
      "inputs": [
        {
          "components": [
            {
              "internalType": "address",
              "name": "company",
              "type": "address"
            },
            {
              "internalType": "address",
              "name": "walletAddress",
              "type": "address"
            },
            {
              "internalType": "bytes32",
              "name": "passwordHash",
              "type": "bytes32"
            }
          ],
          "indexed": true,
          "internalType": "struct CompanyRegistry.User",
          "name": "user",
          "type": "tuple"
        }
      ],
      "name": "UserLoggedIn",
      "type": "event"
    },
    {
      "anonymous": false,
      "inputs": [
        {
          "indexed": true,
          "internalType": "address",
          "name": "companyAddress",
          "type": "address"
        },
        {
          "indexed": true,
          "internalType": "address",
          "name": "userAddress",
          "type": "address"
        }
      ],
      "name": "UserRegistered",
      "type": "event"
    },
    {
      "anonymous": false,
      "inputs": [
        {
          "indexed": true,
          "internalType": "address",
          "name": "userAddress",
          "type": "address"
        },
        {
          "indexed": false,
          "internalType": "uint256",
          "name": "amount",
          "type": "uint256"
        }
      ],
      "name": "UserRewarded",
      "type": "event"
    },
    {
      "inputs": [
        {
          "internalType": "address",
          "name": "walletAddress",
          "type": "address"
        }
      ],
      "name": "doesLoginExist",
      "outputs": [
        {
          "internalType": "bool",
          "name": "",
          "type": "bool"
        }
      ],
      "stateMutability": "view",
      "type": "function"
    },
    {
      "inputs": [
        {
          "internalType": "address",
          "name": "walletAddress",
          "type": "address"
        },
        {
          "internalType": "bytes32",
          "name": "passwordHash",
          "type": "bytes32"
        }
      ],
      "name": "loginUser",
      "outputs": [
        {
          "internalType": "bool",
          "name": "",
          "type": "bool"
        }
      ],
      "stateMutability": "nonpayable",
      "type": "function"
    },
    {
      "inputs": [
        {
          "internalType": "address",
          "name": "CompanyAddress",
          "type": "address"
        },
        {
          "internalType": "address",
          "name": "userAddress",
          "type": "address"
        }
      ],
      "name": "gettotalLoggedInDays",
      "outputs": [
        {
          "internalType": "uint256",
          "name": "",
          "type": "uint256"
        }
      ],
      "stateMutability": "view",
      "type": "function"
    },
    {
      "inputs": [
        {
          "internalType": "address",
          "name": "CompanyAddress",
          "type": "address"
        },
        {
          "internalType": "address",
          "name": "userAddress",
          "type": "address"
        }
      ],
      "name": "getIsLoggedInStatus",
      "outputs": [
        {
          "internalType": "bool",
          "name": "",
          "type": "bool"
        }
      ],
      "stateMutability": "view",
      "type": "function"
    },
    {
      "inputs": [
        {
          "internalType": "string",
          "name": "name",
          "type": "string"
        }
      ],
      "name": "registerCompany",
      "outputs": [],
      "stateMutability": "nonpayable",
      "type": "function"
    },
    {
      "inputs": [],
      "name": "addDeposit",
      "outputs": [],
      "stateMutability": "payable",
      "type": "function"
    },
    {
      "inputs": [],
      "name": "deleteCompany",
      "outputs": [],
      "stateMutability": "nonpayable",
      "type": "function"
    },
    {
      "inputs": [
        {
          "internalType": "address",
          "name": "walletAddress",
          "type": "address"
        },
        {
          "internalType": "bytes32",
          "name": "passwordHash",
          "type": "bytes32"
        }
      ],
      "name": "registerUser",
      "outputs": [],
      "stateMutability": "nonpayable",
      "type": "function"
    },
    {
      "inputs": [],
      "name": "getCompanyDeposit",
      "outputs": [
        {
          "internalType": "uint256",
          "name": "",
          "type": "uint256"
        }
      ],
      "stateMutability": "view",
      "type": "function"
    },
    {
      "inputs": [
        {
          "internalType": "address",
          "name": "walletAddress",
          "type": "address"
        }
      ],
      "name": "lastLoginTime",
      "outputs": [
        {
          "internalType": "uint256",
          "name": "",
          "type": "uint256"
        }
      ],
      "stateMutability": "view",
      "type": "function"
    },
    {
      "inputs": [
        {
          "internalType": "address",
          "name": "userAddress",
          "type": "address"
        }
      ],
      "name": "updateLoggedInStatus",
      "outputs": [
        {
          "internalType": "bool",
          "name": "",
          "type": "bool"
        },
        {
          "internalType": "uint256",
          "name": "",
          "type": "uint256"
        }
      ],
      "stateMutability": "nonpayable",
      "type": "function"
    },
    {
      "inputs": [
        {
          "internalType": "address",
          "name": "walletAddress",
          "type": "address"
        }
      ],
      "name": "logoutUser",
      "outputs": [],
      "stateMutability": "nonpayable",
      "type": "function"
    },
    {
      "inputs": [],
      "name": "getRegisteredCompanyName",
      "outputs": [
        {
          "internalType": "string",
          "name": "",
          "type": "string"
        }
      ],
      "stateMutability": "view",
      "type": "function"
    }
  ],
  "bytecode": "0x608060405234801561000f575f80fd5b506131368061001d5f395ff3fe6080604052600436106100c0575f3560e01c80637f191b8d1161007e578063c89f883e11610058578063c89f883e1461024f578063cc6911b61461028b578063d7e0b6e3146102b5578063f7a04903146102dd576100c0565b80637f191b8d146101ac578063a73779a6146101d6578063b4bcca0314610213576100c0565b8062544194146100c457806309df5060146100ec57806319abc6a8146101145780633f3c2ad2146101505780634a58db191461018c5780635045499c14610196575b5f80fd5b3480156100cf575f80fd5b506100ea60048036038101906100e591906122ab565b610319565b005b3480156100f7575f80fd5b50610112600480360381019061010d919061234c565b6104bd565b005b34801561011f575f80fd5b5061013a60048036038101906101359190612377565b61055f565b60405161014791906123cd565b60405180910390f35b34801561015b575f80fd5b506101766004803603810190610171919061234c565b6107d2565b6040516101839190612400565b60405180910390f35b610194610a4b565b005b3480156101a1575f80fd5b506101aa610bc0565b005b3480156101b7575f80fd5b506101c0610d80565b6040516101cd9190612493565b60405180910390f35b3480156101e1575f80fd5b506101fc60048036038101906101f7919061234c565b610e4d565b60405161020a9291906124b3565b60405180910390f35b34801561021e575f80fd5b506102396004803603810190610234919061234c565b61119b565b60405161024691906123cd565b60405180910390f35b34801561025a575f80fd5b5061027560048036038101906102709190612377565b6113c5565b6040516102829190612400565b60405180910390f35b348015610296575f80fd5b5061029f611644565b6040516102ac91906123cd565b60405180910390f35b3480156102c0575f80fd5b506102db60048036038101906102d6919061250d565b611718565b005b3480156102e8575f80fd5b5061030360048036038101906102fe919061250d565b611b0b565b6040516103109190612400565b60405180910390f35b5f81511161035c576040517f08c379a000000000000000000000000000000000000000000000000000000000815260040161035390612595565b60405180910390fd5b5f60015f3373ffffffffffffffffffffffffffffffffffffffff1673ffffffffffffffffffffffffffffffffffffffff1681526020019081526020015f205f0180546103a7906125e0565b9050146103e9576040517f08c379a00000000000000000000000000000000000000000000000000000000081526004016103e09061265a565b60405180910390fd5b60405180606001604052808281526020015f81526020015f81525060015f3373ffffffffffffffffffffffffffffffffffffffff1673ffffffffffffffffffffffffffffffffffffffff1681526020019081526020015f205f820151815f0190816104549190612815565b5060208201518160010155604082015181600201559050503373ffffffffffffffffffffffffffffffffffffffff167f76686aa361308f4a08557cca1a847299ce61e5602a3495cd359a599a1dca438c826040516104b29190612493565b60405180910390a250565b6104c6816107d2565b610505576040517f08c379a00000000000000000000000000000000000000000000000000000000081526004016104fc9061292e565b60405180910390fd5b5f60025f8373ffffffffffffffffffffffffffffffffffffffff1673ffffffffffffffffffffffffffffffffffffffff1681526020019081526020015f206005015f6101000a81548160ff02191690831515021790555050565b5f8060015f8573ffffffffffffffffffffffffffffffffffffffff1673ffffffffffffffffffffffffffffffffffffffff1681526020019081526020015f205f0180546105ab906125e0565b9050116105ed576040517f08c379a00000000000000000000000000000000000000000000000000000000081526004016105e490612996565b60405180910390fd5b662386f26fc1000060015f3373ffffffffffffffffffffffffffffffffffffffff1673ffffffffffffffffffffffffffffffffffffffff1681526020019081526020015f206001015411610676576040517f08c379a000000000000000000000000000000000000000000000000000000000815260040161066d906129fe565b60405180910390fd5b8273ffffffffffffffffffffffffffffffffffffffff165f808473ffffffffffffffffffffffffffffffffffffffff1673ffffffffffffffffffffffffffffffffffffffff1681526020019081526020015f205f015f9054906101000a900473ffffffffffffffffffffffffffffffffffffffff1673ffffffffffffffffffffffffffffffffffffffff1614610741576040517f08c379a000000000000000000000000000000000000000000000000000000000815260040161073890612a8c565b60405180910390fd5b61074a826107d2565b610789576040517f08c379a000000000000000000000000000000000000000000000000000000000815260040161078090612af4565b60405180910390fd5b60025f8373ffffffffffffffffffffffffffffffffffffffff1673ffffffffffffffffffffffffffffffffffffffff1681526020019081526020015f2060040154905092915050565b5f8060015f3373ffffffffffffffffffffffffffffffffffffffff1673ffffffffffffffffffffffffffffffffffffffff1681526020019081526020015f205f01805461081e906125e0565b905011610860576040517f08c379a000000000000000000000000000000000000000000000000000000000815260040161085790612996565b60405180910390fd5b662386f26fc1000060015f3373ffffffffffffffffffffffffffffffffffffffff1673ffffffffffffffffffffffffffffffffffffffff1681526020019081526020015f2060010154116108e9576040517f08c379a00000000000000000000000000000000000000000000000000000000081526004016108e0906129fe565b60405180910390fd5b3373ffffffffffffffffffffffffffffffffffffffff165f808473ffffffffffffffffffffffffffffffffffffffff1673ffffffffffffffffffffffffffffffffffffffff1681526020019081526020015f205f015f9054906101000a900473ffffffffffffffffffffffffffffffffffffffff1673ffffffffffffffffffffffffffffffffffffffff16146109b4576040517f08c379a00000000000000000000000000000000000000000000000000000000081526004016109ab90612b82565b60405180910390fd5b8173ffffffffffffffffffffffffffffffffffffffff1660025f8473ffffffffffffffffffffffffffffffffffffffff1673ffffffffffffffffffffffffffffffffffffffff1681526020019081526020015f205f016001015f9054906101000a900473ffffffffffffffffffffffffffffffffffffffff1673ffffffffffffffffffffffffffffffffffffffff16149050919050565b5f60015f3373ffffffffffffffffffffffffffffffffffffffff1673ffffffffffffffffffffffffffffffffffffffff1681526020019081526020015f205f018054610a96906125e0565b905011610ad8576040517f08c379a0000000000000000000000000000000000000000000000000000000008152600401610acf90612996565b60405180910390fd5b5f3411610b1a576040517f08c379a0000000000000000000000000000000000000000000000000000000008152600401610b1190612bea565b60405180910390fd5b3460015f3373ffffffffffffffffffffffffffffffffffffffff1673ffffffffffffffffffffffffffffffffffffffff1681526020019081526020015f206001015f828254610b699190612c35565b925050819055503373ffffffffffffffffffffffffffffffffffffffff167fa2a2db73af12c9f5bef6303364d44e78f97e992c353cd8659f3474c471427e9b34604051610bb691906123cd565b60405180910390a2565b5f60015f3373ffffffffffffffffffffffffffffffffffffffff1673ffffffffffffffffffffffffffffffffffffffff1681526020019081526020015f205f018054610c0b906125e0565b905011610c4d576040517f08c379a0000000000000000000000000000000000000000000000000000000008152600401610c4490612996565b60405180910390fd5b5f60015f3373ffffffffffffffffffffffffffffffffffffffff1673ffffffffffffffffffffffffffffffffffffffff1681526020019081526020015f2060010154905060015f3373ffffffffffffffffffffffffffffffffffffffff1673ffffffffffffffffffffffffffffffffffffffff1681526020019081526020015f205f8082015f610cdd9190612106565b600182015f9055600282015f905550503373ffffffffffffffffffffffffffffffffffffffff167f2564dc12f5c7d4be57c9d0417c313a76d08624ac131a3772f9abeedff476161160405160405180910390a25f811115610d7d573373ffffffffffffffffffffffffffffffffffffffff166108fc8290811502906040515f60405180830381858888f19350505050158015610d7b573d5f803e3d5ffd5b505b50565b606060015f3373ffffffffffffffffffffffffffffffffffffffff1673ffffffffffffffffffffffffffffffffffffffff1681526020019081526020015f205f018054610dcc906125e0565b80601f0160208091040260200160405190810160405280929190818152602001828054610df8906125e0565b8015610e435780601f10610e1a57610100808354040283529160200191610e43565b820191905f5260205f20905b815481529060010190602001808311610e2657829003601f168201915b5050505050905090565b5f80610e58836107d2565b610e97576040517f08c379a0000000000000000000000000000000000000000000000000000000008152600401610e8e90612cb2565b60405180910390fd5b5f6201518042610ea79190612cfd565b90505f6201518060025f8773ffffffffffffffffffffffffffffffffffffffff1673ffffffffffffffffffffffffffffffffffffffff1681526020019081526020015f2060030154610ef99190612cfd565b9050808211156110135760018183610f119190612d2d565b03610f7257600160025f8773ffffffffffffffffffffffffffffffffffffffff1673ffffffffffffffffffffffffffffffffffffffff1681526020019081526020015f206004015f828254610f669190612c35565b92505081905550610fcd565b60028183610f809190612d2d565b10610fcc57600160025f8773ffffffffffffffffffffffffffffffffffffffff1673ffffffffffffffffffffffffffffffffffffffff1681526020019081526020015f20600401819055505b5b4260025f8773ffffffffffffffffffffffffffffffffffffffff1673ffffffffffffffffffffffffffffffffffffffff1681526020019081526020015f20600301819055505b600160025f8773ffffffffffffffffffffffffffffffffffffffff1673ffffffffffffffffffffffffffffffffffffffff1681526020019081526020015f206005015f6101000a81548160ff021916908315150217905550600760025f8773ffffffffffffffffffffffffffffffffffffffff1673ffffffffffffffffffffffffffffffffffffffff1681526020019081526020015f206004015403611102576110bc85611f1f565b5f60025f8773ffffffffffffffffffffffffffffffffffffffff1673ffffffffffffffffffffffffffffffffffffffff1681526020019081526020015f20600401819055505b60025f8673ffffffffffffffffffffffffffffffffffffffff1673ffffffffffffffffffffffffffffffffffffffff1681526020019081526020015f206005015f9054906101000a900460ff1660025f8773ffffffffffffffffffffffffffffffffffffffff1673ffffffffffffffffffffffffffffffffffffffff1681526020019081526020015f2060040154935093505050915091565b5f8060015f3373ffffffffffffffffffffffffffffffffffffffff1673ffffffffffffffffffffffffffffffffffffffff1681526020019081526020015f205f0180546111e7906125e0565b905011611229576040517f08c379a000000000000000000000000000000000000000000000000000000000815260040161122090612996565b60405180910390fd5b662386f26fc1000060015f3373ffffffffffffffffffffffffffffffffffffffff1673ffffffffffffffffffffffffffffffffffffffff1681526020019081526020015f2060010154116112b2576040517f08c379a00000000000000000000000000000000000000000000000000000000081526004016112a9906129fe565b60405180910390fd5b3373ffffffffffffffffffffffffffffffffffffffff165f808473ffffffffffffffffffffffffffffffffffffffff1673ffffffffffffffffffffffffffffffffffffffff1681526020019081526020015f205f015f9054906101000a900473ffffffffffffffffffffffffffffffffffffffff1673ffffffffffffffffffffffffffffffffffffffff161461137d576040517f08c379a000000000000000000000000000000000000000000000000000000000815260040161137490612b82565b60405180910390fd5b60025f8373ffffffffffffffffffffffffffffffffffffffff1673ffffffffffffffffffffffffffffffffffffffff1681526020019081526020015f20600301549050919050565b5f8060015f8573ffffffffffffffffffffffffffffffffffffffff1673ffffffffffffffffffffffffffffffffffffffff1681526020019081526020015f205f018054611411906125e0565b905011611453576040517f08c379a000000000000000000000000000000000000000000000000000000000815260040161144a90612996565b60405180910390fd5b662386f26fc1000060015f8573ffffffffffffffffffffffffffffffffffffffff1673ffffffffffffffffffffffffffffffffffffffff1681526020019081526020015f2060010154116114dc576040517f08c379a00000000000000000000000000000000000000000000000000000000081526004016114d3906129fe565b60405180910390fd5b8273ffffffffffffffffffffffffffffffffffffffff165f808473ffffffffffffffffffffffffffffffffffffffff1673ffffffffffffffffffffffffffffffffffffffff1681526020019081526020015f205f015f9054906101000a900473ffffffffffffffffffffffffffffffffffffffff1673ffffffffffffffffffffffffffffffffffffffff16146115a7576040517f08c379a000000000000000000000000000000000000000000000000000000000815260040161159e90612a8c565b60405180910390fd5b6115b0826107d2565b6115ef576040517f08c379a00000000000000000000000000000000000000000000000000000000081526004016115e690612af4565b60405180910390fd5b60025f8373ffffffffffffffffffffffffffffffffffffffff1673ffffffffffffffffffffffffffffffffffffffff1681526020019081526020015f206005015f9054906101000a900460ff16905092915050565b5f8060015f3373ffffffffffffffffffffffffffffffffffffffff1673ffffffffffffffffffffffffffffffffffffffff1681526020019081526020015f205f018054611690906125e0565b9050116116d2576040517f08c379a00000000000000000000000000000000000000000000000000000000081526004016116c990612996565b60405180910390fd5b60015f3373ffffffffffffffffffffffffffffffffffffffff1673ffffffffffffffffffffffffffffffffffffffff1681526020019081526020015f2060010154905090565b5f801b810361175c576040517f08c379a000000000000000000000000000000000000000000000000000000000815260040161175390612daa565b60405180910390fd5b5f60015f3373ffffffffffffffffffffffffffffffffffffffff1673ffffffffffffffffffffffffffffffffffffffff1681526020019081526020015f205f0180546117a7906125e0565b9050116117e9576040517f08c379a00000000000000000000000000000000000000000000000000000000081526004016117e090612e38565b60405180910390fd5b662386f26fc1000060015f3373ffffffffffffffffffffffffffffffffffffffff1673ffffffffffffffffffffffffffffffffffffffff1681526020019081526020015f206001015411611872576040517f08c379a0000000000000000000000000000000000000000000000000000000008152600401611869906129fe565b60405180910390fd5b8173ffffffffffffffffffffffffffffffffffffffff165f808473ffffffffffffffffffffffffffffffffffffffff1673ffffffffffffffffffffffffffffffffffffffff1681526020019081526020015f206001015f9054906101000a900473ffffffffffffffffffffffffffffffffffffffff1673ffffffffffffffffffffffffffffffffffffffff160361193e576040517f08c379a000000000000000000000000000000000000000000000000000000000815260040161193590612ea0565b60405180910390fd5b60405180606001604052803373ffffffffffffffffffffffffffffffffffffffff1681526020018373ffffffffffffffffffffffffffffffffffffffff168152602001828152505f808473ffffffffffffffffffffffffffffffffffffffff1673ffffffffffffffffffffffffffffffffffffffff1681526020019081526020015f205f820151815f015f6101000a81548173ffffffffffffffffffffffffffffffffffffffff021916908373ffffffffffffffffffffffffffffffffffffffff1602179055506020820151816001015f6101000a81548173ffffffffffffffffffffffffffffffffffffffff021916908373ffffffffffffffffffffffffffffffffffffffff1602179055506040820151816002015590505060015f3373ffffffffffffffffffffffffffffffffffffffff1673ffffffffffffffffffffffffffffffffffffffff1681526020019081526020015f206002015f815480929190611aa890612ebe565b91905055508173ffffffffffffffffffffffffffffffffffffffff163373ffffffffffffffffffffffffffffffffffffffff167f2138b9314634f9fdd5e49bee3eaf17ca557b6637524d0db759711c3bfcd3d85060405160405180910390a35050565b5f611b15836107d2565b15611b55576040517f08c379a0000000000000000000000000000000000000000000000000000000008152600401611b4c90612f4f565b60405180910390fd5b5f801b8203611b99576040517f08c379a0000000000000000000000000000000000000000000000000000000008152600401611b9090612daa565b60405180910390fd5b815f808573ffffffffffffffffffffffffffffffffffffffff1673ffffffffffffffffffffffffffffffffffffffff1681526020019081526020015f206002015414611c1a576040517f08c379a0000000000000000000000000000000000000000000000000000000008152600401611c1190612fb7565b60405180910390fd5b5f805f8573ffffffffffffffffffffffffffffffffffffffff1673ffffffffffffffffffffffffffffffffffffffff1681526020019081526020015f206040518060600160405290815f82015f9054906101000a900473ffffffffffffffffffffffffffffffffffffffff1673ffffffffffffffffffffffffffffffffffffffff1673ffffffffffffffffffffffffffffffffffffffff168152602001600182015f9054906101000a900473ffffffffffffffffffffffffffffffffffffffff1673ffffffffffffffffffffffffffffffffffffffff1673ffffffffffffffffffffffffffffffffffffffff16815260200160028201548152505090506040518060800160405280828152602001428152602001600181526020016001151581525060025f8673ffffffffffffffffffffffffffffffffffffffff1673ffffffffffffffffffffffffffffffffffffffff1681526020019081526020015f205f820151815f015f820151815f015f6101000a81548173ffffffffffffffffffffffffffffffffffffffff021916908373ffffffffffffffffffffffffffffffffffffffff1602179055506020820151816001015f6101000a81548173ffffffffffffffffffffffffffffffffffffffff021916908373ffffffffffffffffffffffffffffffffffffffff16021790555060408201518160020155505060208201518160030155604082015181600401556060820151816005015f6101000a81548160ff0219169083151502179055509050505f808573ffffffffffffffffffffffffffffffffffffffff1673ffffffffffffffffffffffffffffffffffffffff1681526020019081526020015f20604051611e9591906130e6565b60405180910390207fc3e258c2735e50ca59d445076e61f3e568466d65196515d5fa3cef1518fff1da60405160405180910390a260025f8573ffffffffffffffffffffffffffffffffffffffff1673ffffffffffffffffffffffffffffffffffffffff1681526020019081526020015f206005015f9054906101000a900460ff1691505092915050565b5f60015f3373ffffffffffffffffffffffffffffffffffffffff1673ffffffffffffffffffffffffffffffffffffffff1681526020019081526020015f206002015460015f3373ffffffffffffffffffffffffffffffffffffffff1673ffffffffffffffffffffffffffffffffffffffff1681526020019081526020015f2060010154611fac9190612cfd565b905060025f8373ffffffffffffffffffffffffffffffffffffffff1673ffffffffffffffffffffffffffffffffffffffff1681526020019081526020015f205f016001015f9054906101000a900473ffffffffffffffffffffffffffffffffffffffff1673ffffffffffffffffffffffffffffffffffffffff166108fc8290811502906040515f60405180830381858888f19350505050158015612052573d5f803e3d5ffd5b5060025f8373ffffffffffffffffffffffffffffffffffffffff1673ffffffffffffffffffffffffffffffffffffffff1681526020019081526020015f205f016001015f9054906101000a900473ffffffffffffffffffffffffffffffffffffffff1673ffffffffffffffffffffffffffffffffffffffff167fe366ef68d2c0620e9e4c5074fd7ad0ce6739b65287f9c2d09b7d002da556879b826040516120fa91906123cd565b60405180910390a25050565b508054612112906125e0565b5f825580601f106121235750612140565b601f0160209004905f5260205f209081019061213f9190612143565b5b50565b5b8082111561215a575f815f905550600101612144565b5090565b5f604051905090565b5f80fd5b5f80fd5b5f80fd5b5f80fd5b5f601f19601f8301169050919050565b7f4e487b71000000000000000000000000000000000000000000000000000000005f52604160045260245ffd5b6121bd82612177565b810181811067ffffffffffffffff821117156121dc576121db612187565b5b80604052505050565b5f6121ee61215e565b90506121fa82826121b4565b919050565b5f67ffffffffffffffff82111561221957612218612187565b5b61222282612177565b9050602081019050919050565b828183375f83830152505050565b5f61224f61224a846121ff565b6121e5565b90508281526020810184848401111561226b5761226a612173565b5b61227684828561222f565b509392505050565b5f82601f8301126122925761229161216f565b5b81356122a284826020860161223d565b91505092915050565b5f602082840312156122c0576122bf612167565b5b5f82013567ffffffffffffffff8111156122dd576122dc61216b565b5b6122e98482850161227e565b91505092915050565b5f73ffffffffffffffffffffffffffffffffffffffff82169050919050565b5f61231b826122f2565b9050919050565b61232b81612311565b8114612335575f80fd5b50565b5f8135905061234681612322565b92915050565b5f6020828403121561236157612360612167565b5b5f61236e84828501612338565b91505092915050565b5f806040838503121561238d5761238c612167565b5b5f61239a85828601612338565b92505060206123ab85828601612338565b9150509250929050565b5f819050919050565b6123c7816123b5565b82525050565b5f6020820190506123e05f8301846123be565b92915050565b5f8115159050919050565b6123fa816123e6565b82525050565b5f6020820190506124135f8301846123f1565b92915050565b5f81519050919050565b5f82825260208201905092915050565b5f5b83811015612450578082015181840152602081019050612435565b5f8484015250505050565b5f61246582612419565b61246f8185612423565b935061247f818560208601612433565b61248881612177565b840191505092915050565b5f6020820190508181035f8301526124ab818461245b565b905092915050565b5f6040820190506124c65f8301856123f1565b6124d360208301846123be565b9392505050565b5f819050919050565b6124ec816124da565b81146124f6575f80fd5b50565b5f81359050612507816124e3565b92915050565b5f806040838503121561252357612522612167565b5b5f61253085828601612338565b9250506020612541858286016124f9565b9150509250929050565b7f436f6d70616e79206e616d652063616e6e6f7420626520656d707479000000005f82015250565b5f61257f601c83612423565b915061258a8261254b565b602082019050919050565b5f6020820190508181035f8301526125ac81612573565b9050919050565b7f4e487b71000000000000000000000000000000000000000000000000000000005f52602260045260245ffd5b5f60028204905060018216806125f757607f821691505b60208210810361260a576126096125b3565b5b50919050565b7f436f6d70616e7920616c726561647920726567697374657265640000000000005f82015250565b5f612644601a83612423565b915061264f82612610565b602082019050919050565b5f6020820190508181035f83015261267181612638565b9050919050565b5f819050815f5260205f209050919050565b5f6020601f8301049050919050565b5f82821b905092915050565b5f600883026126d47fffffffffffffffffffffffffffffffffffffffffffffffffffffffffffffffff82612699565b6126de8683612699565b95508019841693508086168417925050509392505050565b5f819050919050565b5f61271961271461270f846123b5565b6126f6565b6123b5565b9050919050565b5f819050919050565b612732836126ff565b61274661273e82612720565b8484546126a5565b825550505050565b5f90565b61275a61274e565b612765818484612729565b505050565b5b818110156127885761277d5f82612752565b60018101905061276b565b5050565b601f8211156127cd5761279e81612678565b6127a78461268a565b810160208510156127b6578190505b6127ca6127c28561268a565b83018261276a565b50505b505050565b5f82821c905092915050565b5f6127ed5f19846008026127d2565b1980831691505092915050565b5f61280583836127de565b9150826002028217905092915050565b61281e82612419565b67ffffffffffffffff81111561283757612836612187565b5b61284182546125e0565b61284c82828561278c565b5f60209050601f83116001811461287d575f841561286b578287015190505b61287585826127fa565b8655506128dc565b601f19841661288b86612678565b5f5b828110156128b25784890151825560018201915060208501945060208101905061288d565b868310156128cf57848901516128cb601f8916826127de565b8355505b6001600288020188555050505b505050505050565b7f55736572206973206e6f742063757272656e746c79206c6f6767656420696e005f82015250565b5f612918601f83612423565b9150612923826128e4565b602082019050919050565b5f6020820190508181035f8301526129458161290c565b9050919050565b7f436f6d70616e79206e6f742072656769737465726564000000000000000000005f82015250565b5f612980601683612423565b915061298b8261294c565b602082019050919050565b5f6020820190508181035f8301526129ad81612974565b9050919050565b7f4465706f73697420736f6d6520455448206669727374000000000000000000005f82015250565b5f6129e8601683612423565b91506129f3826129b4565b602082019050919050565b5f6020820190508181035f830152612a15816129dc565b9050919050565b7f5573657220646f65736e27742065786973747320696e207468697320636f6d705f8201527f616e790000000000000000000000000000000000000000000000000000000000602082015250565b5f612a76602383612423565b9150612a8182612a1c565b604082019050919050565b5f6020820190508181035f830152612aa381612a6a565b9050919050565b7f4c6f67696e2064657461696c20646f6573206e6f7420657869737473000000005f82015250565b5f612ade601c83612423565b9150612ae982612aaa565b602082019050919050565b5f6020820190508181035f830152612b0b81612ad2565b9050919050565b7f5573657220646f65736e27742062656c6f6e6720746f20796f757220636f6d705f8201527f616e790000000000000000000000000000000000000000000000000000000000602082015250565b5f612b6c602383612423565b9150612b7782612b12565b604082019050919050565b5f6020820190508181035f830152612b9981612b60565b9050919050565b7f56616c75652063616e6e6f74206265206c657373207468616e203000000000005f82015250565b5f612bd4601b83612423565b9150612bdf82612ba0565b602082019050919050565b5f6020820190508181035f830152612c0181612bc8565b9050919050565b7f4e487b71000000000000000000000000000000000000000000000000000000005f52601160045260245ffd5b5f612c3f826123b5565b9150612c4a836123b5565b9250828201905080821115612c6257612c61612c08565b5b92915050565b7f4c6f67696e2044657461696c7320646f65736e277420657869737473000000005f82015250565b5f612c9c601c83612423565b9150612ca782612c68565b602082019050919050565b5f6020820190508181035f830152612cc981612c90565b9050919050565b7f4e487b71000000000000000000000000000000000000000000000000000000005f52601260045260245ffd5b5f612d07826123b5565b9150612d12836123b5565b925082612d2257612d21612cd0565b5b828204905092915050565b5f612d37826123b5565b9150612d42836123b5565b9250828203905081811115612d5a57612d59612c08565b5b92915050565b7f496e76616c69642070617373776f7264206861736800000000000000000000005f82015250565b5f612d94601583612423565b9150612d9f82612d60565b602082019050919050565b5f6020820190508181035f830152612dc181612d88565b9050919050565b7f4f6e6c7920436f6d70616e6965732063616e20726567697374657220746865695f8201527f7220757365727300000000000000000000000000000000000000000000000000602082015250565b5f612e22602783612423565b9150612e2d82612dc8565b604082019050919050565b5f6020820190508181035f830152612e4f81612e16565b9050919050565b7f5573657220616c726561647920726567697374657265640000000000000000005f82015250565b5f612e8a601783612423565b9150612e9582612e56565b602082019050919050565b5f6020820190508181035f830152612eb781612e7e565b9050919050565b5f612ec8826123b5565b91507fffffffffffffffffffffffffffffffffffffffffffffffffffffffffffffffff8203612efa57612ef9612c08565b5b600182019050919050565b7f4c6f67696e2044657461696c7320616c726561647920657869737473000000005f82015250565b5f612f39601c83612423565b9150612f4482612f05565b602082019050919050565b5f6020820190508181035f830152612f6681612f2d565b9050919050565b7f496e636f72726563742070617373776f726400000000000000000000000000005f82015250565b5f612fa1601283612423565b9150612fac82612f6d565b602082019050919050565b5f6020820190508181035f830152612fce81612f95565b9050919050565b5f815f1c9050919050565b5f73ffffffffffffffffffffffffffffffffffffffff82169050919050565b5f61301161300c83612fd5565b612fe0565b9050919050565b61302181612311565b82525050565b5f6130328383613018565b60208301905092915050565b5f819050919050565b5f61305961305483612fd5565b61303e565b9050919050565b613069816124da565b82525050565b5f61307a8383613060565b60208301905092915050565b5f82015f80830154905061309981612fff565b6130a38582613027565b945050600183015490506130b681612fff565b6130c08582613027565b945050600283015490506130d381613047565b6130dd858261306f565b94505050505050565b5f6130f18284613086565b6060820191508190509291505056fea264697066735822122053d17f8322ace18bb1321a0a33760b732b0774c89c6c967d58c236def9aecae764736f6c63430008180033",
  "immutableReferences": {},
  "source": "    // SPDX-License-Identifier: MIT\n    pragma solidity ^0.8.0;\n\n    contract CompanyRegistry {\n        struct User {\n            address company;\n            address walletAddress;\n            bytes32 passwordHash;\n        }\n        struct Company {\n            string name;\n            uint256 deposit;\n            uint256 totalUsers;\n        }\n\n        struct Login {\n            User user;\n            uint256 lastLoginTime;\n            uint256 totalLoggedInDays;\n            bool isLoggedIn;\n        }\n        mapping(address => User) private userMap;\n        mapping(address => Company) private companies;\n        mapping(address => Login) private LoginDetails;\n\n        event CompanyRegistered(address indexed companyAddress, string name);\n        event DepositAdded(address indexed companyAddress, uint256 amount);\n        event CompanyDeleted(address indexed companyAddress);\n        event UserLoggedIn(User indexed user);\n        event UserRewarded(address indexed userAddress, uint256 amount);\n        event UserRegistered(\n            address indexed companyAddress,\n            address indexed userAddress\n        );\n\n        function doesLoginExist(address walletAddress) public view returns (bool) {\n            require(\n                bytes(companies[msg.sender].name).length > 0,\n                \"Company not registered\"\n            );\n            require(\n                companies[msg.sender].deposit > 10000000000000000 wei,\n                \"Deposit some ETH first\"\n            );\n            require(\n                userMap[walletAddress].company == msg.sender,\n                \"User doesn't belong to your company\"\n            );\n\n            return LoginDetails[walletAddress].user.walletAddress == walletAddress;\n        }\n\n        function loginUser(address walletAddress, bytes32 passwordHash) public returns(bool) {\n            require(!doesLoginExist(walletAddress), \"Login Details already exists\");\n            require(passwordHash != 0, \"Invalid password hash\");\n            require(\n                userMap[walletAddress].passwordHash == passwordHash,\n                \"Incorrect password\"\n            );\n            User memory userInfo = userMap[walletAddress];\n            LoginDetails[walletAddress] = Login({\n                user: userInfo,\n                lastLoginTime: block.timestamp,\n                totalLoggedInDays: 1,\n                isLoggedIn: true\n            });\n            emit UserLoggedIn(userMap[walletAddress]);\n            return  LoginDetails[walletAddress].isLoggedIn;\n\n        }\n\n        // function checkForRewards() public {}\n        function gettotalLoggedInDays(address CompanyAddress, address userAddress)\n            public\n            view\n            returns (uint256)\n        {\n            require(\n                bytes(companies[CompanyAddress].name).length > 0,\n                \"Company not registered\"\n            );\n            require(\n                companies[msg.sender].deposit > 10000000000000000 wei,\n                \"Deposit some ETH first\"\n            );\n            require(\n                userMap[userAddress].company == CompanyAddress,\n                \"User doesn't exists in this company\"\n            );\n            require(doesLoginExist(userAddress), \"Login detail does not exists\");\n            return LoginDetails[userAddress].totalLoggedInDays;\n        }\n\n        function getIsLoggedInStatus(address CompanyAddress, address userAddress)\n            public\n            view\n            returns (bool)\n        {\n            require(\n                bytes(companies[CompanyAddress].name).length > 0,\n                \"Company not registered\"\n            );\n            require(\n                companies[CompanyAddress].deposit > 10000000000000000 wei,\n                \"Deposit some ETH first\"\n            );\n\n            require(\n                userMap[userAddress].company == CompanyAddress,\n                \"User doesn't exists in this company\"\n            );\n            require(doesLoginExist(userAddress), \"Login detail does not exists\");\n            return LoginDetails[userAddress].isLoggedIn;\n        }\n\n        function registerCompany(string memory name) public {\n            require(bytes(name).length > 0, \"Company name cannot be empty\");\n            require(\n                bytes(companies[msg.sender].name).length == 0,\n                \"Company already registered\"\n            );\n            companies[msg.sender] = Company(name, 0, 0);\n            emit CompanyRegistered(msg.sender, name);\n        }\n\n        function addDeposit() public payable {\n            require(\n                bytes(companies[msg.sender].name).length > 0,\n                \"Company not registered\"\n            );\n            require(msg.value > 0, \"Value cannot be less than 0\");\n            companies[msg.sender].deposit += msg.value;\n            emit DepositAdded(msg.sender, msg.value);\n        }\n\n        function deleteCompany() public {\n            require(\n                bytes(companies[msg.sender].name).length > 0,\n                \"Company not registered\"\n            );\n            uint256 balance = companies[msg.sender].deposit;\n            delete companies[msg.sender];\n            emit CompanyDeleted(msg.sender);\n            if (balance > 0) {\n                payable(msg.sender).transfer(balance);\n            }\n        }\n\n        function registerUser(address walletAddress, bytes32 passwordHash) public {\n            require(passwordHash != 0, \"Invalid password hash\");\n            require(\n                bytes(companies[msg.sender].name).length > 0,\n                \"Only Companies can register their users\"\n            );\n            require(\n                companies[msg.sender].deposit > 10000000000000000 wei,\n                \"Deposit some ETH first\"\n            );\n            require(\n                userMap[walletAddress].walletAddress != walletAddress,\n                \"User already registered\"\n            );\n\n            userMap[walletAddress] = User(msg.sender, walletAddress, passwordHash);\n            companies[msg.sender].totalUsers++;\n            emit UserRegistered(msg.sender, walletAddress);\n        }\n\n        function getCompanyDeposit() public view returns (uint256) {\n            require(\n                bytes(companies[msg.sender].name).length > 0,\n                \"Company not registered\"\n            );\n            return companies[msg.sender].deposit;\n        }\n\n        function lastLoginTime(address walletAddress)\n            public\n            view\n            returns (uint256)\n        {\n            require(\n                bytes(companies[msg.sender].name).length > 0,\n                \"Company not registered\"\n            );\n            require(\n                companies[msg.sender].deposit > 10000000000000000 wei,\n                \"Deposit some ETH first\"\n            );\n            require(\n                userMap[walletAddress].company == msg.sender,\n                \"User doesn't belong to your company\"\n            );\n\n            return (LoginDetails[walletAddress].lastLoginTime);\n        }\n\n        function giveReward(address userAddress) private {\n            uint256 rewardAmount = companies[msg.sender].deposit /\n                companies[msg.sender].totalUsers;\n            payable(LoginDetails[userAddress].user.walletAddress).transfer(\n                rewardAmount\n            );\n            emit UserRewarded(\n                LoginDetails[userAddress].user.walletAddress,\n                rewardAmount\n            );\n        }\n\n        //Update login status\n        function updateLoggedInStatus(address userAddress)\n            public\n            returns (bool, uint256)\n        {\n            require(doesLoginExist(userAddress), \"Login Details doesn't exists\");\n            uint256 currentDay = block.timestamp / 1 days;\n            uint256 lastLoginDay = LoginDetails[userAddress].lastLoginTime / 1 days;\n            if (currentDay > lastLoginDay) {\n                if (currentDay - lastLoginDay == 1) {\n                    LoginDetails[userAddress].totalLoggedInDays += 1;\n                } else if (currentDay - lastLoginDay >= 2) {\n                    LoginDetails[userAddress].totalLoggedInDays = 1;\n                }\n                LoginDetails[userAddress].lastLoginTime = block.timestamp;\n            }\n            LoginDetails[userAddress].isLoggedIn = true;\n            if (LoginDetails[userAddress].totalLoggedInDays == 7) {\n                // reward user with ETH\n                giveReward(userAddress);\n                // reset totalLoggedInDays\n                LoginDetails[userAddress].totalLoggedInDays = 0;\n            }\n            return (\n                LoginDetails[userAddress].isLoggedIn,\n                LoginDetails[userAddress].totalLoggedInDays\n            );\n        }\n\n        function logoutUser(address walletAddress) public {\n            require(\n                doesLoginExist(walletAddress),\n                \"User is not currently logged in\"\n            );\n            LoginDetails[walletAddress].isLoggedIn = false;\n        }\n        function getRegisteredCompanyName() public view returns (string memory) {\n            return companies[msg.sender].name;\n        }\n    \n    }\n",
  "sourcePath": "/home/munshi/Documents/Programs/BlockAuth/Improved Version/Blockchain-Based-Incentivized-Authentication-System/blockchain/contracts/CompanyRegistry.sol",
  "compiler": {
    "name": "solc",
    "version": "0.8.24+commit.e11b9ed9.Emscripten.clang"
  },
  "schemaVersion": "3.4.16",
  "updatedAt": "2024-02-22T18:51:14.321Z",
  "devdoc": {
    "kind": "dev",
    "methods": {},
    "version": 1
  },
  "userdoc": {
    "kind": "user",
    "methods": {},
    "version": 1
  }
}